{
	"contracts/5_Voting.sol": {
		"Ballot": {
			"abi": [
				{
					"inputs": [
						{
							"internalType": "string",
							"name": "_ballotOfficialName",
							"type": "string"
						},
						{
							"internalType": "string",
							"name": "_proposalName",
							"type": "string"
						}
					],
					"stateMutability": "nonpayable",
					"type": "constructor"
				},
				{
					"inputs": [
						{
							"internalType": "address",
							"name": "_voterAddress",
							"type": "address"
						},
						{
							"internalType": "string",
							"name": "_voterName",
							"type": "string"
						}
					],
					"name": "addVoter",
					"outputs": [],
					"stateMutability": "nonpayable",
					"type": "function"
				},
				{
					"inputs": [],
					"name": "ballotOfficialAddress",
					"outputs": [
						{
							"internalType": "address",
							"name": "",
							"type": "address"
						}
					],
					"stateMutability": "view",
					"type": "function"
				},
				{
					"inputs": [],
					"name": "ballotOfficialName",
					"outputs": [
						{
							"internalType": "string",
							"name": "",
							"type": "string"
						}
					],
					"stateMutability": "view",
					"type": "function"
				},
				{
					"inputs": [
						{
							"internalType": "bool",
							"name": "_choice",
							"type": "bool"
						}
					],
					"name": "doVote",
					"outputs": [
						{
							"internalType": "bool",
							"name": "voted",
							"type": "bool"
						}
					],
					"stateMutability": "nonpayable",
					"type": "function"
				},
				{
					"inputs": [],
					"name": "endVoate",
					"outputs": [],
					"stateMutability": "nonpayable",
					"type": "function"
				},
				{
					"inputs": [],
					"name": "finalResult",
					"outputs": [
						{
							"internalType": "uint256",
							"name": "",
							"type": "uint256"
						}
					],
					"stateMutability": "view",
					"type": "function"
				},
				{
					"inputs": [],
					"name": "proposal",
					"outputs": [
						{
							"internalType": "string",
							"name": "",
							"type": "string"
						}
					],
					"stateMutability": "view",
					"type": "function"
				},
				{
					"inputs": [],
					"name": "startVote",
					"outputs": [],
					"stateMutability": "nonpayable",
					"type": "function"
				},
				{
					"inputs": [],
					"name": "state",
					"outputs": [
						{
							"internalType": "enum Ballot.State",
							"name": "",
							"type": "uint8"
						}
					],
					"stateMutability": "view",
					"type": "function"
				},
				{
					"inputs": [],
					"name": "totalVoter",
					"outputs": [
						{
							"internalType": "uint256",
							"name": "",
							"type": "uint256"
						}
					],
					"stateMutability": "view",
					"type": "function"
				},
				{
					"inputs": [
						{
							"internalType": "address",
							"name": "",
							"type": "address"
						}
					],
					"name": "voterRegister",
					"outputs": [
						{
							"internalType": "string",
							"name": "voterName",
							"type": "string"
						},
						{
							"internalType": "bool",
							"name": "voted",
							"type": "bool"
						}
					],
					"stateMutability": "view",
					"type": "function"
				}
			],
			"devdoc": {
				"kind": "dev",
				"methods": {},
				"version": 1
			},
			"evm": {
				"assembly": "    /* \"contracts/5_Voting.sol\":72:2370  contract Ballot{... */\n  mstore(0x40, 0x80)\n    /* \"contracts/5_Voting.sol\":294:295  0 */\n  0x00\n    /* \"contracts/5_Voting.sol\":269:295  uint private countResult=0 */\n  dup1\n  sstore\n    /* \"contracts/5_Voting.sol\":327:328  0 */\n  0x00\n    /* \"contracts/5_Voting.sol\":302:328  uint public  finalResult=0 */\n  0x01\n  sstore\n    /* \"contracts/5_Voting.sol\":360:361  0 */\n  0x00\n    /* \"contracts/5_Voting.sol\":337:361  uint public totalVoter=0 */\n  0x02\n  sstore\n    /* \"contracts/5_Voting.sol\":383:384  0 */\n  0x00\n    /* \"contracts/5_Voting.sol\":368:384  uint totalVote=0 */\n  0x03\n  sstore\n    /* \"contracts/5_Voting.sol\":1012:1251  constructor(string memory _ballotOfficialName,string memory _proposalName){... */\n  callvalue\n  dup1\n  iszero\n  tag_1\n  jumpi\n  0x00\n  dup1\n  revert\ntag_1:\n  pop\n  mload(0x40)\n  sub(codesize, bytecodeSize)\n  dup1\n  bytecodeSize\n  dup4\n  codecopy\n  dup2\n  dup2\n  add\n  0x40\n  mstore\n  dup2\n  add\n  swap1\n  tag_2\n  swap2\n  swap1\n  tag_3\n  jump\t// in\ntag_2:\n    /* \"contracts/5_Voting.sol\":1119:1129  msg.sender */\n  caller\n    /* \"contracts/5_Voting.sol\":1097:1118  ballotOfficialAddress */\n  0x04\n  0x00\n    /* \"contracts/5_Voting.sol\":1097:1129  ballotOfficialAddress=msg.sender */\n  0x0100\n  exp\n  dup2\n  sload\n  dup2\n  0xffffffffffffffffffffffffffffffffffffffff\n  mul\n  not\n  and\n  swap1\n  dup4\n  0xffffffffffffffffffffffffffffffffffffffff\n  and\n  mul\n  or\n  swap1\n  sstore\n  pop\n    /* \"contracts/5_Voting.sol\":1159:1178  _ballotOfficialName */\n  dup2\n    /* \"contracts/5_Voting.sol\":1140:1158  ballotOfficialName */\n  0x05\n    /* \"contracts/5_Voting.sol\":1140:1178  ballotOfficialName=_ballotOfficialName */\n  swap1\n  dup2\n  tag_6\n  swap2\n  swap1\n  tag_7\n  jump\t// in\ntag_6:\n  pop\n    /* \"contracts/5_Voting.sol\":1198:1211  _proposalName */\n  dup1\n    /* \"contracts/5_Voting.sol\":1189:1197  proposal */\n  0x06\n    /* \"contracts/5_Voting.sol\":1189:1211  proposal=_proposalName */\n  swap1\n  dup2\n  tag_8\n  swap2\n  swap1\n  tag_7\n  jump\t// in\ntag_8:\n  pop\n    /* \"contracts/5_Voting.sol\":1228:1241  State.Created */\n  0x00\n    /* \"contracts/5_Voting.sol\":1222:1227  state */\n  0x09\n  0x00\n    /* \"contracts/5_Voting.sol\":1222:1241  state=State.Created */\n  0x0100\n  exp\n  dup2\n  sload\n  dup2\n  0xff\n  mul\n  not\n  and\n  swap1\n  dup4\n  0x02\n  dup2\n  gt\n  iszero\n  tag_9\n  jumpi\n  tag_10\n  tag_11\n  jump\t// in\ntag_10:\ntag_9:\n  mul\n  or\n  swap1\n  sstore\n  pop\n    /* \"contracts/5_Voting.sol\":1012:1251  constructor(string memory _ballotOfficialName,string memory _proposalName){... */\n  pop\n  pop\n    /* \"contracts/5_Voting.sol\":72:2370  contract Ballot{... */\n  jump(tag_12)\n    /* \"#utility.yul\":7:82   */\ntag_13:\n    /* \"#utility.yul\":40:46   */\n  0x00\n    /* \"#utility.yul\":73:75   */\n  0x40\n    /* \"#utility.yul\":67:76   */\n  mload\n    /* \"#utility.yul\":57:76   */\n  swap1\n  pop\n    /* \"#utility.yul\":7:82   */\n  swap1\n  jump\t// out\n    /* \"#utility.yul\":88:205   */\ntag_14:\n    /* \"#utility.yul\":197:198   */\n  0x00\n    /* \"#utility.yul\":194:195   */\n  dup1\n    /* \"#utility.yul\":187:199   */\n  revert\n    /* \"#utility.yul\":211:328   */\ntag_15:\n    /* \"#utility.yul\":320:321   */\n  0x00\n    /* \"#utility.yul\":317:318   */\n  dup1\n    /* \"#utility.yul\":310:322   */\n  revert\n    /* \"#utility.yul\":334:451   */\ntag_16:\n    /* \"#utility.yul\":443:444   */\n  0x00\n    /* \"#utility.yul\":440:441   */\n  dup1\n    /* \"#utility.yul\":433:445   */\n  revert\n    /* \"#utility.yul\":457:574   */\ntag_17:\n    /* \"#utility.yul\":566:567   */\n  0x00\n    /* \"#utility.yul\":563:564   */\n  dup1\n    /* \"#utility.yul\":556:568   */\n  revert\n    /* \"#utility.yul\":580:682   */\ntag_18:\n    /* \"#utility.yul\":621:627   */\n  0x00\n    /* \"#utility.yul\":672:674   */\n  0x1f\n    /* \"#utility.yul\":668:675   */\n  not\n    /* \"#utility.yul\":663:665   */\n  0x1f\n    /* \"#utility.yul\":656:661   */\n  dup4\n    /* \"#utility.yul\":652:666   */\n  add\n    /* \"#utility.yul\":648:676   */\n  and\n    /* \"#utility.yul\":638:676   */\n  swap1\n  pop\n    /* \"#utility.yul\":580:682   */\n  swap2\n  swap1\n  pop\n  jump\t// out\n    /* \"#utility.yul\":688:868   */\ntag_19:\n    /* \"#utility.yul\":736:813   */\n  0x4e487b7100000000000000000000000000000000000000000000000000000000\n    /* \"#utility.yul\":733:734   */\n  0x00\n    /* \"#utility.yul\":726:814   */\n  mstore\n    /* \"#utility.yul\":833:837   */\n  0x41\n    /* \"#utility.yul\":830:831   */\n  0x04\n    /* \"#utility.yul\":823:838   */\n  mstore\n    /* \"#utility.yul\":857:861   */\n  0x24\n    /* \"#utility.yul\":854:855   */\n  0x00\n    /* \"#utility.yul\":847:862   */\n  revert\n    /* \"#utility.yul\":874:1155   */\ntag_20:\n    /* \"#utility.yul\":957:984   */\n  tag_54\n    /* \"#utility.yul\":979:983   */\n  dup3\n    /* \"#utility.yul\":957:984   */\n  tag_18\n  jump\t// in\ntag_54:\n    /* \"#utility.yul\":949:955   */\n  dup2\n    /* \"#utility.yul\":945:985   */\n  add\n    /* \"#utility.yul\":1087:1093   */\n  dup2\n    /* \"#utility.yul\":1075:1085   */\n  dup2\n    /* \"#utility.yul\":1072:1094   */\n  lt\n    /* \"#utility.yul\":1051:1069   */\n  0xffffffffffffffff\n    /* \"#utility.yul\":1039:1049   */\n  dup3\n    /* \"#utility.yul\":1036:1070   */\n  gt\n    /* \"#utility.yul\":1033:1095   */\n  or\n    /* \"#utility.yul\":1030:1118   */\n  iszero\n  tag_55\n  jumpi\n    /* \"#utility.yul\":1098:1116   */\n  tag_56\n  tag_19\n  jump\t// in\ntag_56:\n    /* \"#utility.yul\":1030:1118   */\ntag_55:\n    /* \"#utility.yul\":1138:1148   */\n  dup1\n    /* \"#utility.yul\":1134:1136   */\n  0x40\n    /* \"#utility.yul\":1127:1149   */\n  mstore\n    /* \"#utility.yul\":917:1155   */\n  pop\n    /* \"#utility.yul\":874:1155   */\n  pop\n  pop\n  jump\t// out\n    /* \"#utility.yul\":1161:1290   */\ntag_21:\n    /* \"#utility.yul\":1195:1201   */\n  0x00\n    /* \"#utility.yul\":1222:1242   */\n  tag_58\n  tag_13\n  jump\t// in\ntag_58:\n    /* \"#utility.yul\":1212:1242   */\n  swap1\n  pop\n    /* \"#utility.yul\":1251:1284   */\n  tag_59\n    /* \"#utility.yul\":1279:1283   */\n  dup3\n    /* \"#utility.yul\":1271:1277   */\n  dup3\n    /* \"#utility.yul\":1251:1284   */\n  tag_20\n  jump\t// in\ntag_59:\n    /* \"#utility.yul\":1161:1290   */\n  swap2\n  swap1\n  pop\n  jump\t// out\n    /* \"#utility.yul\":1296:1604   */\ntag_22:\n    /* \"#utility.yul\":1358:1362   */\n  0x00\n    /* \"#utility.yul\":1448:1466   */\n  0xffffffffffffffff\n    /* \"#utility.yul\":1440:1446   */\n  dup3\n    /* \"#utility.yul\":1437:1467   */\n  gt\n    /* \"#utility.yul\":1434:1490   */\n  iszero\n  tag_61\n  jumpi\n    /* \"#utility.yul\":1470:1488   */\n  tag_62\n  tag_19\n  jump\t// in\ntag_62:\n    /* \"#utility.yul\":1434:1490   */\ntag_61:\n    /* \"#utility.yul\":1508:1537   */\n  tag_63\n    /* \"#utility.yul\":1530:1536   */\n  dup3\n    /* \"#utility.yul\":1508:1537   */\n  tag_18\n  jump\t// in\ntag_63:\n    /* \"#utility.yul\":1500:1537   */\n  swap1\n  pop\n    /* \"#utility.yul\":1592:1596   */\n  0x20\n    /* \"#utility.yul\":1586:1590   */\n  dup2\n    /* \"#utility.yul\":1582:1597   */\n  add\n    /* \"#utility.yul\":1574:1597   */\n  swap1\n  pop\n    /* \"#utility.yul\":1296:1604   */\n  swap2\n  swap1\n  pop\n  jump\t// out\n    /* \"#utility.yul\":1610:1749   */\ntag_23:\n    /* \"#utility.yul\":1699:1705   */\n  dup3\n    /* \"#utility.yul\":1694:1697   */\n  dup2\n    /* \"#utility.yul\":1689:1692   */\n  dup4\n    /* \"#utility.yul\":1683:1706   */\n  mcopy\n    /* \"#utility.yul\":1740:1741   */\n  0x00\n    /* \"#utility.yul\":1731:1737   */\n  dup4\n    /* \"#utility.yul\":1726:1729   */\n  dup4\n    /* \"#utility.yul\":1722:1738   */\n  add\n    /* \"#utility.yul\":1715:1742   */\n  mstore\n    /* \"#utility.yul\":1610:1749   */\n  pop\n  pop\n  pop\n  jump\t// out\n    /* \"#utility.yul\":1755:2189   */\ntag_24:\n    /* \"#utility.yul\":1844:1849   */\n  0x00\n    /* \"#utility.yul\":1869:1935   */\n  tag_66\n    /* \"#utility.yul\":1885:1934   */\n  tag_67\n    /* \"#utility.yul\":1927:1933   */\n  dup5\n    /* \"#utility.yul\":1885:1934   */\n  tag_22\n  jump\t// in\ntag_67:\n    /* \"#utility.yul\":1869:1935   */\n  tag_21\n  jump\t// in\ntag_66:\n    /* \"#utility.yul\":1860:1935   */\n  swap1\n  pop\n    /* \"#utility.yul\":1958:1964   */\n  dup3\n    /* \"#utility.yul\":1951:1956   */\n  dup2\n    /* \"#utility.yul\":1944:1965   */\n  mstore\n    /* \"#utility.yul\":1996:2000   */\n  0x20\n    /* \"#utility.yul\":1989:1994   */\n  dup2\n    /* \"#utility.yul\":1985:2001   */\n  add\n    /* \"#utility.yul\":2034:2037   */\n  dup5\n    /* \"#utility.yul\":2025:2031   */\n  dup5\n    /* \"#utility.yul\":2020:2023   */\n  dup5\n    /* \"#utility.yul\":2016:2032   */\n  add\n    /* \"#utility.yul\":2013:2038   */\n  gt\n    /* \"#utility.yul\":2010:2122   */\n  iszero\n  tag_68\n  jumpi\n    /* \"#utility.yul\":2041:2120   */\n  tag_69\n  tag_17\n  jump\t// in\ntag_69:\n    /* \"#utility.yul\":2010:2122   */\ntag_68:\n    /* \"#utility.yul\":2131:2183   */\n  tag_70\n    /* \"#utility.yul\":2176:2182   */\n  dup5\n    /* \"#utility.yul\":2171:2174   */\n  dup3\n    /* \"#utility.yul\":2166:2169   */\n  dup6\n    /* \"#utility.yul\":2131:2183   */\n  tag_23\n  jump\t// in\ntag_70:\n    /* \"#utility.yul\":1850:2189   */\n  pop\n    /* \"#utility.yul\":1755:2189   */\n  swap4\n  swap3\n  pop\n  pop\n  pop\n  jump\t// out\n    /* \"#utility.yul\":2209:2564   */\ntag_25:\n    /* \"#utility.yul\":2276:2281   */\n  0x00\n    /* \"#utility.yul\":2325:2328   */\n  dup3\n    /* \"#utility.yul\":2318:2322   */\n  0x1f\n    /* \"#utility.yul\":2310:2316   */\n  dup4\n    /* \"#utility.yul\":2306:2323   */\n  add\n    /* \"#utility.yul\":2302:2329   */\n  slt\n    /* \"#utility.yul\":2292:2414   */\n  tag_72\n  jumpi\n    /* \"#utility.yul\":2333:2412   */\n  tag_73\n  tag_16\n  jump\t// in\ntag_73:\n    /* \"#utility.yul\":2292:2414   */\ntag_72:\n    /* \"#utility.yul\":2443:2449   */\n  dup2\n    /* \"#utility.yul\":2437:2450   */\n  mload\n    /* \"#utility.yul\":2468:2558   */\n  tag_74\n    /* \"#utility.yul\":2554:2557   */\n  dup5\n    /* \"#utility.yul\":2546:2552   */\n  dup3\n    /* \"#utility.yul\":2539:2543   */\n  0x20\n    /* \"#utility.yul\":2531:2537   */\n  dup7\n    /* \"#utility.yul\":2527:2544   */\n  add\n    /* \"#utility.yul\":2468:2558   */\n  tag_24\n  jump\t// in\ntag_74:\n    /* \"#utility.yul\":2459:2558   */\n  swap2\n  pop\n    /* \"#utility.yul\":2282:2564   */\n  pop\n    /* \"#utility.yul\":2209:2564   */\n  swap3\n  swap2\n  pop\n  pop\n  jump\t// out\n    /* \"#utility.yul\":2570:3423   */\ntag_3:\n    /* \"#utility.yul\":2669:2675   */\n  0x00\n    /* \"#utility.yul\":2677:2683   */\n  dup1\n    /* \"#utility.yul\":2726:2728   */\n  0x40\n    /* \"#utility.yul\":2714:2723   */\n  dup4\n    /* \"#utility.yul\":2705:2712   */\n  dup6\n    /* \"#utility.yul\":2701:2724   */\n  sub\n    /* \"#utility.yul\":2697:2729   */\n  slt\n    /* \"#utility.yul\":2694:2813   */\n  iszero\n  tag_76\n  jumpi\n    /* \"#utility.yul\":2732:2811   */\n  tag_77\n  tag_14\n  jump\t// in\ntag_77:\n    /* \"#utility.yul\":2694:2813   */\ntag_76:\n    /* \"#utility.yul\":2873:2874   */\n  0x00\n    /* \"#utility.yul\":2862:2871   */\n  dup4\n    /* \"#utility.yul\":2858:2875   */\n  add\n    /* \"#utility.yul\":2852:2876   */\n  mload\n    /* \"#utility.yul\":2903:2921   */\n  0xffffffffffffffff\n    /* \"#utility.yul\":2895:2901   */\n  dup2\n    /* \"#utility.yul\":2892:2922   */\n  gt\n    /* \"#utility.yul\":2889:3006   */\n  iszero\n  tag_78\n  jumpi\n    /* \"#utility.yul\":2925:3004   */\n  tag_79\n  tag_15\n  jump\t// in\ntag_79:\n    /* \"#utility.yul\":2889:3006   */\ntag_78:\n    /* \"#utility.yul\":3030:3104   */\n  tag_80\n    /* \"#utility.yul\":3096:3103   */\n  dup6\n    /* \"#utility.yul\":3087:3093   */\n  dup3\n    /* \"#utility.yul\":3076:3085   */\n  dup7\n    /* \"#utility.yul\":3072:3094   */\n  add\n    /* \"#utility.yul\":3030:3104   */\n  tag_25\n  jump\t// in\ntag_80:\n    /* \"#utility.yul\":3020:3104   */\n  swap3\n  pop\n    /* \"#utility.yul\":2823:3114   */\n  pop\n    /* \"#utility.yul\":3174:3176   */\n  0x20\n    /* \"#utility.yul\":3163:3172   */\n  dup4\n    /* \"#utility.yul\":3159:3177   */\n  add\n    /* \"#utility.yul\":3153:3178   */\n  mload\n    /* \"#utility.yul\":3205:3223   */\n  0xffffffffffffffff\n    /* \"#utility.yul\":3197:3203   */\n  dup2\n    /* \"#utility.yul\":3194:3224   */\n  gt\n    /* \"#utility.yul\":3191:3308   */\n  iszero\n  tag_81\n  jumpi\n    /* \"#utility.yul\":3227:3306   */\n  tag_82\n  tag_15\n  jump\t// in\ntag_82:\n    /* \"#utility.yul\":3191:3308   */\ntag_81:\n    /* \"#utility.yul\":3332:3406   */\n  tag_83\n    /* \"#utility.yul\":3398:3405   */\n  dup6\n    /* \"#utility.yul\":3389:3395   */\n  dup3\n    /* \"#utility.yul\":3378:3387   */\n  dup7\n    /* \"#utility.yul\":3374:3396   */\n  add\n    /* \"#utility.yul\":3332:3406   */\n  tag_25\n  jump\t// in\ntag_83:\n    /* \"#utility.yul\":3322:3406   */\n  swap2\n  pop\n    /* \"#utility.yul\":3124:3416   */\n  pop\n    /* \"#utility.yul\":2570:3423   */\n  swap3\n  pop\n  swap3\n  swap1\n  pop\n  jump\t// out\n    /* \"#utility.yul\":3429:3528   */\ntag_26:\n    /* \"#utility.yul\":3481:3487   */\n  0x00\n    /* \"#utility.yul\":3515:3520   */\n  dup2\n    /* \"#utility.yul\":3509:3521   */\n  mload\n    /* \"#utility.yul\":3499:3521   */\n  swap1\n  pop\n    /* \"#utility.yul\":3429:3528   */\n  swap2\n  swap1\n  pop\n  jump\t// out\n    /* \"#utility.yul\":3534:3714   */\ntag_27:\n    /* \"#utility.yul\":3582:3659   */\n  0x4e487b7100000000000000000000000000000000000000000000000000000000\n    /* \"#utility.yul\":3579:3580   */\n  0x00\n    /* \"#utility.yul\":3572:3660   */\n  mstore\n    /* \"#utility.yul\":3679:3683   */\n  0x22\n    /* \"#utility.yul\":3676:3677   */\n  0x04\n    /* \"#utility.yul\":3669:3684   */\n  mstore\n    /* \"#utility.yul\":3703:3707   */\n  0x24\n    /* \"#utility.yul\":3700:3701   */\n  0x00\n    /* \"#utility.yul\":3693:3708   */\n  revert\n    /* \"#utility.yul\":3720:4040   */\ntag_28:\n    /* \"#utility.yul\":3764:3770   */\n  0x00\n    /* \"#utility.yul\":3801:3802   */\n  0x02\n    /* \"#utility.yul\":3795:3799   */\n  dup3\n    /* \"#utility.yul\":3791:3803   */\n  div\n    /* \"#utility.yul\":3781:3803   */\n  swap1\n  pop\n    /* \"#utility.yul\":3848:3849   */\n  0x01\n    /* \"#utility.yul\":3842:3846   */\n  dup3\n    /* \"#utility.yul\":3838:3850   */\n  and\n    /* \"#utility.yul\":3869:3887   */\n  dup1\n    /* \"#utility.yul\":3859:3940   */\n  tag_87\n  jumpi\n    /* \"#utility.yul\":3925:3929   */\n  0x7f\n    /* \"#utility.yul\":3917:3923   */\n  dup3\n    /* \"#utility.yul\":3913:3930   */\n  and\n    /* \"#utility.yul\":3903:3930   */\n  swap2\n  pop\n    /* \"#utility.yul\":3859:3940   */\ntag_87:\n    /* \"#utility.yul\":3987:3989   */\n  0x20\n    /* \"#utility.yul\":3979:3985   */\n  dup3\n    /* \"#utility.yul\":3976:3990   */\n  lt\n    /* \"#utility.yul\":3956:3974   */\n  dup2\n    /* \"#utility.yul\":3953:3991   */\n  sub\n    /* \"#utility.yul\":3950:4034   */\n  tag_88\n  jumpi\n    /* \"#utility.yul\":4006:4024   */\n  tag_89\n  tag_27\n  jump\t// in\ntag_89:\n    /* \"#utility.yul\":3950:4034   */\ntag_88:\n    /* \"#utility.yul\":3771:4040   */\n  pop\n    /* \"#utility.yul\":3720:4040   */\n  swap2\n  swap1\n  pop\n  jump\t// out\n    /* \"#utility.yul\":4046:4187   */\ntag_29:\n    /* \"#utility.yul\":4095:4099   */\n  0x00\n    /* \"#utility.yul\":4118:4121   */\n  dup2\n    /* \"#utility.yul\":4110:4121   */\n  swap1\n  pop\n    /* \"#utility.yul\":4141:4144   */\n  dup2\n    /* \"#utility.yul\":4138:4139   */\n  0x00\n    /* \"#utility.yul\":4131:4145   */\n  mstore\n    /* \"#utility.yul\":4175:4179   */\n  0x20\n    /* \"#utility.yul\":4172:4173   */\n  0x00\n    /* \"#utility.yul\":4162:4180   */\n  keccak256\n    /* \"#utility.yul\":4154:4180   */\n  swap1\n  pop\n    /* \"#utility.yul\":4046:4187   */\n  swap2\n  swap1\n  pop\n  jump\t// out\n    /* \"#utility.yul\":4193:4286   */\ntag_30:\n    /* \"#utility.yul\":4230:4236   */\n  0x00\n    /* \"#utility.yul\":4277:4279   */\n  0x20\n    /* \"#utility.yul\":4272:4274   */\n  0x1f\n    /* \"#utility.yul\":4265:4270   */\n  dup4\n    /* \"#utility.yul\":4261:4275   */\n  add\n    /* \"#utility.yul\":4257:4280   */\n  div\n    /* \"#utility.yul\":4247:4280   */\n  swap1\n  pop\n    /* \"#utility.yul\":4193:4286   */\n  swap2\n  swap1\n  pop\n  jump\t// out\n    /* \"#utility.yul\":4292:4399   */\ntag_31:\n    /* \"#utility.yul\":4336:4344   */\n  0x00\n    /* \"#utility.yul\":4386:4391   */\n  dup3\n    /* \"#utility.yul\":4380:4384   */\n  dup3\n    /* \"#utility.yul\":4376:4392   */\n  shl\n    /* \"#utility.yul\":4355:4392   */\n  swap1\n  pop\n    /* \"#utility.yul\":4292:4399   */\n  swap3\n  swap2\n  pop\n  pop\n  jump\t// out\n    /* \"#utility.yul\":4405:4798   */\ntag_32:\n    /* \"#utility.yul\":4474:4480   */\n  0x00\n    /* \"#utility.yul\":4524:4525   */\n  0x08\n    /* \"#utility.yul\":4512:4522   */\n  dup4\n    /* \"#utility.yul\":4508:4526   */\n  mul\n    /* \"#utility.yul\":4547:4644   */\n  tag_94\n    /* \"#utility.yul\":4577:4643   */\n  0xffffffffffffffffffffffffffffffffffffffffffffffffffffffffffffffff\n    /* \"#utility.yul\":4566:4575   */\n  dup3\n    /* \"#utility.yul\":4547:4644   */\n  tag_31\n  jump\t// in\ntag_94:\n    /* \"#utility.yul\":4665:4704   */\n  tag_95\n    /* \"#utility.yul\":4695:4703   */\n  dup7\n    /* \"#utility.yul\":4684:4693   */\n  dup4\n    /* \"#utility.yul\":4665:4704   */\n  tag_31\n  jump\t// in\ntag_95:\n    /* \"#utility.yul\":4653:4704   */\n  swap6\n  pop\n    /* \"#utility.yul\":4737:4741   */\n  dup1\n    /* \"#utility.yul\":4733:4742   */\n  not\n    /* \"#utility.yul\":4726:4731   */\n  dup5\n    /* \"#utility.yul\":4722:4743   */\n  and\n    /* \"#utility.yul\":4713:4743   */\n  swap4\n  pop\n    /* \"#utility.yul\":4786:4790   */\n  dup1\n    /* \"#utility.yul\":4776:4784   */\n  dup7\n    /* \"#utility.yul\":4772:4791   */\n  and\n    /* \"#utility.yul\":4765:4770   */\n  dup5\n    /* \"#utility.yul\":4762:4792   */\n  or\n    /* \"#utility.yul\":4752:4792   */\n  swap3\n  pop\n    /* \"#utility.yul\":4481:4798   */\n  pop\n  pop\n    /* \"#utility.yul\":4405:4798   */\n  swap4\n  swap3\n  pop\n  pop\n  pop\n  jump\t// out\n    /* \"#utility.yul\":4804:4881   */\ntag_33:\n    /* \"#utility.yul\":4841:4848   */\n  0x00\n    /* \"#utility.yul\":4870:4875   */\n  dup2\n    /* \"#utility.yul\":4859:4875   */\n  swap1\n  pop\n    /* \"#utility.yul\":4804:4881   */\n  swap2\n  swap1\n  pop\n  jump\t// out\n    /* \"#utility.yul\":4887:4947   */\ntag_34:\n    /* \"#utility.yul\":4915:4918   */\n  0x00\n    /* \"#utility.yul\":4936:4941   */\n  dup2\n    /* \"#utility.yul\":4929:4941   */\n  swap1\n  pop\n    /* \"#utility.yul\":4887:4947   */\n  swap2\n  swap1\n  pop\n  jump\t// out\n    /* \"#utility.yul\":4953:5095   */\ntag_35:\n    /* \"#utility.yul\":5003:5012   */\n  0x00\n    /* \"#utility.yul\":5036:5089   */\n  tag_99\n    /* \"#utility.yul\":5054:5088   */\n  tag_100\n    /* \"#utility.yul\":5063:5087   */\n  tag_101\n    /* \"#utility.yul\":5081:5086   */\n  dup5\n    /* \"#utility.yul\":5063:5087   */\n  tag_33\n  jump\t// in\ntag_101:\n    /* \"#utility.yul\":5054:5088   */\n  tag_34\n  jump\t// in\ntag_100:\n    /* \"#utility.yul\":5036:5089   */\n  tag_33\n  jump\t// in\ntag_99:\n    /* \"#utility.yul\":5023:5089   */\n  swap1\n  pop\n    /* \"#utility.yul\":4953:5095   */\n  swap2\n  swap1\n  pop\n  jump\t// out\n    /* \"#utility.yul\":5101:5176   */\ntag_36:\n    /* \"#utility.yul\":5144:5147   */\n  0x00\n    /* \"#utility.yul\":5165:5170   */\n  dup2\n    /* \"#utility.yul\":5158:5170   */\n  swap1\n  pop\n    /* \"#utility.yul\":5101:5176   */\n  swap2\n  swap1\n  pop\n  jump\t// out\n    /* \"#utility.yul\":5182:5451   */\ntag_37:\n    /* \"#utility.yul\":5292:5331   */\n  tag_104\n    /* \"#utility.yul\":5323:5330   */\n  dup4\n    /* \"#utility.yul\":5292:5331   */\n  tag_35\n  jump\t// in\ntag_104:\n    /* \"#utility.yul\":5353:5444   */\n  tag_105\n    /* \"#utility.yul\":5402:5443   */\n  tag_106\n    /* \"#utility.yul\":5426:5442   */\n  dup3\n    /* \"#utility.yul\":5402:5443   */\n  tag_36\n  jump\t// in\ntag_106:\n    /* \"#utility.yul\":5394:5400   */\n  dup5\n    /* \"#utility.yul\":5387:5391   */\n  dup5\n    /* \"#utility.yul\":5381:5392   */\n  sload\n    /* \"#utility.yul\":5353:5444   */\n  tag_32\n  jump\t// in\ntag_105:\n    /* \"#utility.yul\":5347:5351   */\n  dup3\n    /* \"#utility.yul\":5340:5445   */\n  sstore\n    /* \"#utility.yul\":5258:5451   */\n  pop\n    /* \"#utility.yul\":5182:5451   */\n  pop\n  pop\n  pop\n  jump\t// out\n    /* \"#utility.yul\":5457:5530   */\ntag_38:\n    /* \"#utility.yul\":5502:5505   */\n  0x00\n    /* \"#utility.yul\":5457:5530   */\n  swap1\n  jump\t// out\n    /* \"#utility.yul\":5536:5725   */\ntag_39:\n    /* \"#utility.yul\":5613:5645   */\n  tag_109\n  tag_38\n  jump\t// in\ntag_109:\n    /* \"#utility.yul\":5654:5719   */\n  tag_110\n    /* \"#utility.yul\":5712:5718   */\n  dup2\n    /* \"#utility.yul\":5704:5710   */\n  dup5\n    /* \"#utility.yul\":5698:5702   */\n  dup5\n    /* \"#utility.yul\":5654:5719   */\n  tag_37\n  jump\t// in\ntag_110:\n    /* \"#utility.yul\":5589:5725   */\n  pop\n    /* \"#utility.yul\":5536:5725   */\n  pop\n  pop\n  jump\t// out\n    /* \"#utility.yul\":5731:5917   */\ntag_40:\n    /* \"#utility.yul\":5791:5911   */\ntag_112:\n    /* \"#utility.yul\":5808:5811   */\n  dup2\n    /* \"#utility.yul\":5801:5806   */\n  dup2\n    /* \"#utility.yul\":5798:5812   */\n  lt\n    /* \"#utility.yul\":5791:5911   */\n  iszero\n  tag_114\n  jumpi\n    /* \"#utility.yul\":5862:5901   */\n  tag_115\n    /* \"#utility.yul\":5899:5900   */\n  0x00\n    /* \"#utility.yul\":5892:5897   */\n  dup3\n    /* \"#utility.yul\":5862:5901   */\n  tag_39\n  jump\t// in\ntag_115:\n    /* \"#utility.yul\":5835:5836   */\n  0x01\n    /* \"#utility.yul\":5828:5833   */\n  dup2\n    /* \"#utility.yul\":5824:5837   */\n  add\n    /* \"#utility.yul\":5815:5837   */\n  swap1\n  pop\n    /* \"#utility.yul\":5791:5911   */\n  jump(tag_112)\ntag_114:\n    /* \"#utility.yul\":5731:5917   */\n  pop\n  pop\n  jump\t// out\n    /* \"#utility.yul\":5923:6466   */\ntag_41:\n    /* \"#utility.yul\":6024:6026   */\n  0x1f\n    /* \"#utility.yul\":6019:6022   */\n  dup3\n    /* \"#utility.yul\":6016:6027   */\n  gt\n    /* \"#utility.yul\":6013:6459   */\n  iszero\n  tag_117\n  jumpi\n    /* \"#utility.yul\":6058:6096   */\n  tag_118\n    /* \"#utility.yul\":6090:6095   */\n  dup2\n    /* \"#utility.yul\":6058:6096   */\n  tag_29\n  jump\t// in\ntag_118:\n    /* \"#utility.yul\":6142:6171   */\n  tag_119\n    /* \"#utility.yul\":6160:6170   */\n  dup5\n    /* \"#utility.yul\":6142:6171   */\n  tag_30\n  jump\t// in\ntag_119:\n    /* \"#utility.yul\":6132:6140   */\n  dup2\n    /* \"#utility.yul\":6128:6172   */\n  add\n    /* \"#utility.yul\":6325:6327   */\n  0x20\n    /* \"#utility.yul\":6313:6323   */\n  dup6\n    /* \"#utility.yul\":6310:6328   */\n  lt\n    /* \"#utility.yul\":6307:6356   */\n  iszero\n  tag_120\n  jumpi\n    /* \"#utility.yul\":6346:6354   */\n  dup2\n    /* \"#utility.yul\":6331:6354   */\n  swap1\n  pop\n    /* \"#utility.yul\":6307:6356   */\ntag_120:\n    /* \"#utility.yul\":6369:6449   */\n  tag_121\n    /* \"#utility.yul\":6425:6447   */\n  tag_122\n    /* \"#utility.yul\":6443:6446   */\n  dup6\n    /* \"#utility.yul\":6425:6447   */\n  tag_30\n  jump\t// in\ntag_122:\n    /* \"#utility.yul\":6415:6423   */\n  dup4\n    /* \"#utility.yul\":6411:6448   */\n  add\n    /* \"#utility.yul\":6398:6409   */\n  dup3\n    /* \"#utility.yul\":6369:6449   */\n  tag_40\n  jump\t// in\ntag_121:\n    /* \"#utility.yul\":6028:6459   */\n  pop\n  pop\n    /* \"#utility.yul\":6013:6459   */\ntag_117:\n    /* \"#utility.yul\":5923:6466   */\n  pop\n  pop\n  pop\n  jump\t// out\n    /* \"#utility.yul\":6472:6589   */\ntag_42:\n    /* \"#utility.yul\":6526:6534   */\n  0x00\n    /* \"#utility.yul\":6576:6581   */\n  dup3\n    /* \"#utility.yul\":6570:6574   */\n  dup3\n    /* \"#utility.yul\":6566:6582   */\n  shr\n    /* \"#utility.yul\":6545:6582   */\n  swap1\n  pop\n    /* \"#utility.yul\":6472:6589   */\n  swap3\n  swap2\n  pop\n  pop\n  jump\t// out\n    /* \"#utility.yul\":6595:6764   */\ntag_43:\n    /* \"#utility.yul\":6639:6645   */\n  0x00\n    /* \"#utility.yul\":6672:6723   */\n  tag_125\n    /* \"#utility.yul\":6720:6721   */\n  0x00\n    /* \"#utility.yul\":6716:6722   */\n  not\n    /* \"#utility.yul\":6708:6713   */\n  dup5\n    /* \"#utility.yul\":6705:6706   */\n  0x08\n    /* \"#utility.yul\":6701:6714   */\n  mul\n    /* \"#utility.yul\":6672:6723   */\n  tag_42\n  jump\t// in\ntag_125:\n    /* \"#utility.yul\":6668:6724   */\n  not\n    /* \"#utility.yul\":6753:6757   */\n  dup1\n    /* \"#utility.yul\":6747:6751   */\n  dup4\n    /* \"#utility.yul\":6743:6758   */\n  and\n    /* \"#utility.yul\":6733:6758   */\n  swap2\n  pop\n    /* \"#utility.yul\":6646:6764   */\n  pop\n    /* \"#utility.yul\":6595:6764   */\n  swap3\n  swap2\n  pop\n  pop\n  jump\t// out\n    /* \"#utility.yul\":6769:7064   */\ntag_44:\n    /* \"#utility.yul\":6845:6849   */\n  0x00\n    /* \"#utility.yul\":6991:7020   */\n  tag_127\n    /* \"#utility.yul\":7016:7019   */\n  dup4\n    /* \"#utility.yul\":7010:7014   */\n  dup4\n    /* \"#utility.yul\":6991:7020   */\n  tag_43\n  jump\t// in\ntag_127:\n    /* \"#utility.yul\":6983:7020   */\n  swap2\n  pop\n    /* \"#utility.yul\":7053:7056   */\n  dup3\n    /* \"#utility.yul\":7050:7051   */\n  0x02\n    /* \"#utility.yul\":7046:7057   */\n  mul\n    /* \"#utility.yul\":7040:7044   */\n  dup3\n    /* \"#utility.yul\":7037:7058   */\n  or\n    /* \"#utility.yul\":7029:7058   */\n  swap1\n  pop\n    /* \"#utility.yul\":6769:7064   */\n  swap3\n  swap2\n  pop\n  pop\n  jump\t// out\n    /* \"#utility.yul\":7069:8464   */\ntag_7:\n    /* \"#utility.yul\":7186:7223   */\n  tag_129\n    /* \"#utility.yul\":7219:7222   */\n  dup3\n    /* \"#utility.yul\":7186:7223   */\n  tag_26\n  jump\t// in\ntag_129:\n    /* \"#utility.yul\":7288:7306   */\n  0xffffffffffffffff\n    /* \"#utility.yul\":7280:7286   */\n  dup2\n    /* \"#utility.yul\":7277:7307   */\n  gt\n    /* \"#utility.yul\":7274:7330   */\n  iszero\n  tag_130\n  jumpi\n    /* \"#utility.yul\":7310:7328   */\n  tag_131\n  tag_19\n  jump\t// in\ntag_131:\n    /* \"#utility.yul\":7274:7330   */\ntag_130:\n    /* \"#utility.yul\":7354:7392   */\n  tag_132\n    /* \"#utility.yul\":7386:7390   */\n  dup3\n    /* \"#utility.yul\":7380:7391   */\n  sload\n    /* \"#utility.yul\":7354:7392   */\n  tag_28\n  jump\t// in\ntag_132:\n    /* \"#utility.yul\":7439:7506   */\n  tag_133\n    /* \"#utility.yul\":7499:7505   */\n  dup3\n    /* \"#utility.yul\":7491:7497   */\n  dup3\n    /* \"#utility.yul\":7485:7489   */\n  dup6\n    /* \"#utility.yul\":7439:7506   */\n  tag_41\n  jump\t// in\ntag_133:\n    /* \"#utility.yul\":7533:7534   */\n  0x00\n    /* \"#utility.yul\":7557:7561   */\n  0x20\n    /* \"#utility.yul\":7544:7561   */\n  swap1\n  pop\n    /* \"#utility.yul\":7589:7591   */\n  0x1f\n    /* \"#utility.yul\":7581:7587   */\n  dup4\n    /* \"#utility.yul\":7578:7592   */\n  gt\n    /* \"#utility.yul\":7606:7607   */\n  0x01\n    /* \"#utility.yul\":7601:8219   */\n  dup2\n  eq\n  tag_135\n  jumpi\n    /* \"#utility.yul\":8263:8264   */\n  0x00\n    /* \"#utility.yul\":8280:8286   */\n  dup5\n    /* \"#utility.yul\":8277:8354   */\n  iszero\n  tag_136\n  jumpi\n    /* \"#utility.yul\":8329:8338   */\n  dup3\n    /* \"#utility.yul\":8324:8327   */\n  dup8\n    /* \"#utility.yul\":8320:8339   */\n  add\n    /* \"#utility.yul\":8314:8340   */\n  mload\n    /* \"#utility.yul\":8305:8340   */\n  swap1\n  pop\n    /* \"#utility.yul\":8277:8354   */\ntag_136:\n    /* \"#utility.yul\":8380:8447   */\n  tag_137\n    /* \"#utility.yul\":8440:8446   */\n  dup6\n    /* \"#utility.yul\":8433:8438   */\n  dup3\n    /* \"#utility.yul\":8380:8447   */\n  tag_44\n  jump\t// in\ntag_137:\n    /* \"#utility.yul\":8374:8378   */\n  dup7\n    /* \"#utility.yul\":8367:8448   */\n  sstore\n    /* \"#utility.yul\":8236:8458   */\n  pop\n    /* \"#utility.yul\":7571:8458   */\n  jump(tag_134)\n    /* \"#utility.yul\":7601:8219   */\ntag_135:\n    /* \"#utility.yul\":7653:7657   */\n  0x1f\n    /* \"#utility.yul\":7649:7658   */\n  not\n    /* \"#utility.yul\":7641:7647   */\n  dup5\n    /* \"#utility.yul\":7637:7659   */\n  and\n    /* \"#utility.yul\":7687:7724   */\n  tag_138\n    /* \"#utility.yul\":7719:7723   */\n  dup7\n    /* \"#utility.yul\":7687:7724   */\n  tag_29\n  jump\t// in\ntag_138:\n    /* \"#utility.yul\":7746:7747   */\n  0x00\n    /* \"#utility.yul\":7760:7968   */\ntag_139:\n    /* \"#utility.yul\":7774:7781   */\n  dup3\n    /* \"#utility.yul\":7771:7772   */\n  dup2\n    /* \"#utility.yul\":7768:7782   */\n  lt\n    /* \"#utility.yul\":7760:7968   */\n  iszero\n  tag_141\n  jumpi\n    /* \"#utility.yul\":7853:7862   */\n  dup5\n    /* \"#utility.yul\":7848:7851   */\n  dup10\n    /* \"#utility.yul\":7844:7863   */\n  add\n    /* \"#utility.yul\":7838:7864   */\n  mload\n    /* \"#utility.yul\":7830:7836   */\n  dup3\n    /* \"#utility.yul\":7823:7865   */\n  sstore\n    /* \"#utility.yul\":7904:7905   */\n  0x01\n    /* \"#utility.yul\":7896:7902   */\n  dup3\n    /* \"#utility.yul\":7892:7906   */\n  add\n    /* \"#utility.yul\":7882:7906   */\n  swap2\n  pop\n    /* \"#utility.yul\":7951:7953   */\n  0x20\n    /* \"#utility.yul\":7940:7949   */\n  dup6\n    /* \"#utility.yul\":7936:7954   */\n  add\n    /* \"#utility.yul\":7923:7954   */\n  swap5\n  pop\n    /* \"#utility.yul\":7797:7801   */\n  0x20\n    /* \"#utility.yul\":7794:7795   */\n  dup2\n    /* \"#utility.yul\":7790:7802   */\n  add\n    /* \"#utility.yul\":7785:7802   */\n  swap1\n  pop\n    /* \"#utility.yul\":7760:7968   */\n  jump(tag_139)\ntag_141:\n    /* \"#utility.yul\":7996:8002   */\n  dup7\n    /* \"#utility.yul\":7987:7994   */\n  dup4\n    /* \"#utility.yul\":7984:8003   */\n  lt\n    /* \"#utility.yul\":7981:8160   */\n  iszero\n  tag_142\n  jumpi\n    /* \"#utility.yul\":8054:8063   */\n  dup5\n    /* \"#utility.yul\":8049:8052   */\n  dup10\n    /* \"#utility.yul\":8045:8064   */\n  add\n    /* \"#utility.yul\":8039:8065   */\n  mload\n    /* \"#utility.yul\":8097:8145   */\n  tag_143\n    /* \"#utility.yul\":8139:8143   */\n  0x1f\n    /* \"#utility.yul\":8131:8137   */\n  dup10\n    /* \"#utility.yul\":8127:8144   */\n  and\n    /* \"#utility.yul\":8116:8125   */\n  dup3\n    /* \"#utility.yul\":8097:8145   */\n  tag_43\n  jump\t// in\ntag_143:\n    /* \"#utility.yul\":8089:8095   */\n  dup4\n    /* \"#utility.yul\":8082:8146   */\n  sstore\n    /* \"#utility.yul\":8004:8160   */\n  pop\n    /* \"#utility.yul\":7981:8160   */\ntag_142:\n    /* \"#utility.yul\":8206:8207   */\n  0x01\n    /* \"#utility.yul\":8202:8203   */\n  0x02\n    /* \"#utility.yul\":8194:8200   */\n  dup9\n    /* \"#utility.yul\":8190:8204   */\n  mul\n    /* \"#utility.yul\":8186:8208   */\n  add\n    /* \"#utility.yul\":8180:8184   */\n  dup9\n    /* \"#utility.yul\":8173:8209   */\n  sstore\n    /* \"#utility.yul\":7608:8219   */\n  pop\n  pop\n  pop\n    /* \"#utility.yul\":7571:8458   */\ntag_134:\n  pop\n    /* \"#utility.yul\":7161:8464   */\n  pop\n  pop\n  pop\n    /* \"#utility.yul\":7069:8464   */\n  pop\n  pop\n  jump\t// out\n    /* \"#utility.yul\":8470:8650   */\ntag_11:\n    /* \"#utility.yul\":8518:8595   */\n  0x4e487b7100000000000000000000000000000000000000000000000000000000\n    /* \"#utility.yul\":8515:8516   */\n  0x00\n    /* \"#utility.yul\":8508:8596   */\n  mstore\n    /* \"#utility.yul\":8615:8619   */\n  0x21\n    /* \"#utility.yul\":8612:8613   */\n  0x04\n    /* \"#utility.yul\":8605:8620   */\n  mstore\n    /* \"#utility.yul\":8639:8643   */\n  0x24\n    /* \"#utility.yul\":8636:8637   */\n  0x00\n    /* \"#utility.yul\":8629:8644   */\n  revert\n    /* \"contracts/5_Voting.sol\":72:2370  contract Ballot{... */\ntag_12:\n  dataSize(sub_0)\n  dup1\n  dataOffset(sub_0)\n  0x00\n  codecopy\n  0x00\n  return\nstop\n\nsub_0: assembly {\n        /* \"contracts/5_Voting.sol\":72:2370  contract Ballot{... */\n      mstore(0x40, 0x80)\n      callvalue\n      dup1\n      iszero\n      tag_1\n      jumpi\n      0x00\n      dup1\n      revert\n    tag_1:\n      pop\n      jumpi(tag_2, lt(calldatasize, 0x04))\n      shr(0xe0, calldataload(0x00))\n      dup1\n      0x90949747\n      gt\n      tag_14\n      jumpi\n      dup1\n      0x90949747\n      eq\n      tag_8\n      jumpi\n      dup1\n      0xaf154087\n      eq\n      tag_9\n      jumpi\n      dup1\n      0xc19d93fb\n      eq\n      tag_10\n      jumpi\n      dup1\n      0xd9e95a98\n      eq\n      tag_11\n      jumpi\n      dup1\n      0xde975d18\n      eq\n      tag_12\n      jumpi\n      dup1\n      0xf3a8286f\n      eq\n      tag_13\n      jumpi\n      jump(tag_2)\n    tag_14:\n      dup1\n      0x0289e227\n      eq\n      tag_3\n      jumpi\n      dup1\n      0x4c0a6af0\n      eq\n      tag_4\n      jumpi\n      dup1\n      0x6332abc9\n      eq\n      tag_5\n      jumpi\n      dup1\n      0x753ec103\n      eq\n      tag_6\n      jumpi\n      dup1\n      0x87caea78\n      eq\n      tag_7\n      jumpi\n    tag_2:\n      0x00\n      dup1\n      revert\n        /* \"contracts/5_Voting.sol\":2222:2352  function endVoate()public inState(State.Voting) onlyOfficial{... */\n    tag_3:\n      tag_15\n      tag_16\n      jump\t// in\n    tag_15:\n      stop\n        /* \"contracts/5_Voting.sol\":1530:1629  function startVote()public inState(State.Created) onlyOfficial{... */\n    tag_4:\n      tag_17\n      tag_18\n      jump\t// in\n    tag_17:\n      stop\n        /* \"contracts/5_Voting.sol\":337:361  uint public totalVoter=0 */\n    tag_5:\n      tag_19\n      tag_20\n      jump\t// in\n    tag_19:\n      mload(0x40)\n      tag_21\n      swap2\n      swap1\n      tag_22\n      jump\t// in\n    tag_21:\n      mload(0x40)\n      dup1\n      swap2\n      sub\n      swap1\n      return\n        /* \"contracts/5_Voting.sol\":476:498  string public proposal */\n    tag_6:\n      tag_23\n      tag_24\n      jump\t// in\n    tag_23:\n      mload(0x40)\n      tag_25\n      swap2\n      swap1\n      tag_26\n      jump\t// in\n    tag_25:\n      mload(0x40)\n      dup1\n      swap2\n      sub\n      swap1\n      return\n        /* \"contracts/5_Voting.sol\":1637:2214  function doVote(bool _choice)public  inState(State.Voting) returns (bool voted){... */\n    tag_7:\n      tag_27\n      0x04\n      dup1\n      calldatasize\n      sub\n      dup2\n      add\n      swap1\n      tag_28\n      swap2\n      swap1\n      tag_29\n      jump\t// in\n    tag_28:\n      tag_30\n      jump\t// in\n    tag_27:\n      mload(0x40)\n      tag_31\n      swap2\n      swap1\n      tag_32\n      jump\t// in\n    tag_31:\n      mload(0x40)\n      dup1\n      swap2\n      sub\n      swap1\n      return\n        /* \"contracts/5_Voting.sol\":393:430  address public  ballotOfficialAddress */\n    tag_8:\n      tag_33\n      tag_34\n      jump\t// in\n    tag_33:\n      mload(0x40)\n      tag_35\n      swap2\n      swap1\n      tag_36\n      jump\t// in\n    tag_35:\n      mload(0x40)\n      dup1\n      swap2\n      sub\n      swap1\n      return\n        /* \"contracts/5_Voting.sol\":547:592  mapping (address=>voter)public  voterRegister */\n    tag_9:\n      tag_37\n      0x04\n      dup1\n      calldatasize\n      sub\n      dup2\n      add\n      swap1\n      tag_38\n      swap2\n      swap1\n      tag_39\n      jump\t// in\n    tag_38:\n      tag_40\n      jump\t// in\n    tag_37:\n      mload(0x40)\n      tag_41\n      swap3\n      swap2\n      swap1\n      tag_42\n      jump\t// in\n    tag_41:\n      mload(0x40)\n      dup1\n      swap2\n      sub\n      swap1\n      return\n        /* \"contracts/5_Voting.sol\":640:659  State public  state */\n    tag_10:\n      tag_43\n      tag_44\n      jump\t// in\n    tag_43:\n      mload(0x40)\n      tag_45\n      swap2\n      swap1\n      tag_46\n      jump\t// in\n    tag_45:\n      mload(0x40)\n      dup1\n      swap2\n      sub\n      swap1\n      return\n        /* \"contracts/5_Voting.sol\":1259:1522  function addVoter(address _voterAddress,string memory _voterName)public inState(State.Created) onlyOfficial{... */\n    tag_11:\n      tag_47\n      0x04\n      dup1\n      calldatasize\n      sub\n      dup2\n      add\n      swap1\n      tag_48\n      swap2\n      swap1\n      tag_49\n      jump\t// in\n    tag_48:\n      tag_50\n      jump\t// in\n    tag_47:\n      stop\n        /* \"contracts/5_Voting.sol\":437:469  string public ballotOfficialName */\n    tag_12:\n      tag_51\n      tag_52\n      jump\t// in\n    tag_51:\n      mload(0x40)\n      tag_53\n      swap2\n      swap1\n      tag_26\n      jump\t// in\n    tag_53:\n      mload(0x40)\n      dup1\n      swap2\n      sub\n      swap1\n      return\n        /* \"contracts/5_Voting.sol\":302:328  uint public  finalResult=0 */\n    tag_13:\n      tag_54\n      tag_55\n      jump\t// in\n    tag_54:\n      mload(0x40)\n      tag_56\n      swap2\n      swap1\n      tag_22\n      jump\t// in\n    tag_56:\n      mload(0x40)\n      dup1\n      swap2\n      sub\n      swap1\n      return\n        /* \"contracts/5_Voting.sol\":2222:2352  function endVoate()public inState(State.Voting) onlyOfficial{... */\n    tag_16:\n        /* \"contracts/5_Voting.sol\":2256:2268  State.Voting */\n      0x01\n        /* \"contracts/5_Voting.sol\":942:948  _state */\n      dup1\n        /* \"contracts/5_Voting.sol\":935:948  state==_state */\n      0x02\n      dup2\n      gt\n      iszero\n      tag_58\n      jumpi\n      tag_59\n      tag_60\n      jump\t// in\n    tag_59:\n    tag_58:\n        /* \"contracts/5_Voting.sol\":935:940  state */\n      0x09\n      0x00\n      swap1\n      sload\n      swap1\n      0x0100\n      exp\n      swap1\n      div\n      0xff\n      and\n        /* \"contracts/5_Voting.sol\":935:948  state==_state */\n      0x02\n      dup2\n      gt\n      iszero\n      tag_61\n      jumpi\n      tag_62\n      tag_60\n      jump\t// in\n    tag_62:\n    tag_61:\n      eq\n        /* \"contracts/5_Voting.sol\":927:949  require(state==_state) */\n      tag_63\n      jumpi\n      0x00\n      dup1\n      revert\n    tag_63:\n        /* \"contracts/5_Voting.sol\":835:856  ballotOfficialAddress */\n      0x04\n      0x00\n      swap1\n      sload\n      swap1\n      0x0100\n      exp\n      swap1\n      div\n      0xffffffffffffffffffffffffffffffffffffffff\n      and\n        /* \"contracts/5_Voting.sol\":823:856  msg.sender==ballotOfficialAddress */\n      0xffffffffffffffffffffffffffffffffffffffff\n      and\n        /* \"contracts/5_Voting.sol\":823:833  msg.sender */\n      caller\n        /* \"contracts/5_Voting.sol\":823:856  msg.sender==ballotOfficialAddress */\n      0xffffffffffffffffffffffffffffffffffffffff\n      and\n      eq\n        /* \"contracts/5_Voting.sol\":815:857  require(msg.sender==ballotOfficialAddress) */\n      tag_65\n      jumpi\n      0x00\n      dup1\n      revert\n    tag_65:\n        /* \"contracts/5_Voting.sol\":2299:2310  State.Ended */\n      0x02\n        /* \"contracts/5_Voting.sol\":2293:2298  state */\n      0x09\n      0x00\n        /* \"contracts/5_Voting.sol\":2293:2310  state=State.Ended */\n      0x0100\n      exp\n      dup2\n      sload\n      dup2\n      0xff\n      mul\n      not\n      and\n      swap1\n      dup4\n      0x02\n      dup2\n      gt\n      iszero\n      tag_67\n      jumpi\n      tag_68\n      tag_60\n      jump\t// in\n    tag_68:\n    tag_67:\n      mul\n      or\n      swap1\n      sstore\n      pop\n        /* \"contracts/5_Voting.sol\":2333:2344  countResult */\n      sload(0x00)\n        /* \"contracts/5_Voting.sol\":2321:2332  finalResult */\n      0x01\n        /* \"contracts/5_Voting.sol\":2321:2344  finalResult=countResult */\n      dup2\n      swap1\n      sstore\n      pop\n        /* \"contracts/5_Voting.sol\":2222:2352  function endVoate()public inState(State.Voting) onlyOfficial{... */\n      pop\n      jump\t// out\n        /* \"contracts/5_Voting.sol\":1530:1629  function startVote()public inState(State.Created) onlyOfficial{... */\n    tag_18:\n        /* \"contracts/5_Voting.sol\":1565:1578  State.Created */\n      0x00\n        /* \"contracts/5_Voting.sol\":942:948  _state */\n      dup1\n        /* \"contracts/5_Voting.sol\":935:948  state==_state */\n      0x02\n      dup2\n      gt\n      iszero\n      tag_70\n      jumpi\n      tag_71\n      tag_60\n      jump\t// in\n    tag_71:\n    tag_70:\n        /* \"contracts/5_Voting.sol\":935:940  state */\n      0x09\n      0x00\n      swap1\n      sload\n      swap1\n      0x0100\n      exp\n      swap1\n      div\n      0xff\n      and\n        /* \"contracts/5_Voting.sol\":935:948  state==_state */\n      0x02\n      dup2\n      gt\n      iszero\n      tag_72\n      jumpi\n      tag_73\n      tag_60\n      jump\t// in\n    tag_73:\n    tag_72:\n      eq\n        /* \"contracts/5_Voting.sol\":927:949  require(state==_state) */\n      tag_74\n      jumpi\n      0x00\n      dup1\n      revert\n    tag_74:\n        /* \"contracts/5_Voting.sol\":835:856  ballotOfficialAddress */\n      0x04\n      0x00\n      swap1\n      sload\n      swap1\n      0x0100\n      exp\n      swap1\n      div\n      0xffffffffffffffffffffffffffffffffffffffff\n      and\n        /* \"contracts/5_Voting.sol\":823:856  msg.sender==ballotOfficialAddress */\n      0xffffffffffffffffffffffffffffffffffffffff\n      and\n        /* \"contracts/5_Voting.sol\":823:833  msg.sender */\n      caller\n        /* \"contracts/5_Voting.sol\":823:856  msg.sender==ballotOfficialAddress */\n      0xffffffffffffffffffffffffffffffffffffffff\n      and\n      eq\n        /* \"contracts/5_Voting.sol\":815:857  require(msg.sender==ballotOfficialAddress) */\n      tag_76\n      jumpi\n      0x00\n      dup1\n      revert\n    tag_76:\n        /* \"contracts/5_Voting.sol\":1609:1621  State.Voting */\n      0x01\n        /* \"contracts/5_Voting.sol\":1603:1608  state */\n      0x09\n      0x00\n        /* \"contracts/5_Voting.sol\":1603:1621  state=State.Voting */\n      0x0100\n      exp\n      dup2\n      sload\n      dup2\n      0xff\n      mul\n      not\n      and\n      swap1\n      dup4\n      0x02\n      dup2\n      gt\n      iszero\n      tag_78\n      jumpi\n      tag_79\n      tag_60\n      jump\t// in\n    tag_79:\n    tag_78:\n      mul\n      or\n      swap1\n      sstore\n      pop\n        /* \"contracts/5_Voting.sol\":1530:1629  function startVote()public inState(State.Created) onlyOfficial{... */\n      pop\n      jump\t// out\n        /* \"contracts/5_Voting.sol\":337:361  uint public totalVoter=0 */\n    tag_20:\n      sload(0x02)\n      dup2\n      jump\t// out\n        /* \"contracts/5_Voting.sol\":476:498  string public proposal */\n    tag_24:\n      0x06\n      dup1\n      sload\n      tag_80\n      swap1\n      tag_81\n      jump\t// in\n    tag_80:\n      dup1\n      0x1f\n      add\n      0x20\n      dup1\n      swap2\n      div\n      mul\n      0x20\n      add\n      mload(0x40)\n      swap1\n      dup2\n      add\n      0x40\n      mstore\n      dup1\n      swap3\n      swap2\n      swap1\n      dup2\n      dup2\n      mstore\n      0x20\n      add\n      dup3\n      dup1\n      sload\n      tag_82\n      swap1\n      tag_81\n      jump\t// in\n    tag_82:\n      dup1\n      iszero\n      tag_83\n      jumpi\n      dup1\n      0x1f\n      lt\n      tag_84\n      jumpi\n      0x0100\n      dup1\n      dup4\n      sload\n      div\n      mul\n      dup4\n      mstore\n      swap2\n      0x20\n      add\n      swap2\n      jump(tag_83)\n    tag_84:\n      dup3\n      add\n      swap2\n      swap1\n      0x00\n      mstore\n      keccak256(0x00, 0x20)\n      swap1\n    tag_85:\n      dup2\n      sload\n      dup2\n      mstore\n      swap1\n      0x01\n      add\n      swap1\n      0x20\n      add\n      dup1\n      dup4\n      gt\n      tag_85\n      jumpi\n      dup3\n      swap1\n      sub\n      0x1f\n      and\n      dup3\n      add\n      swap2\n    tag_83:\n      pop\n      pop\n      pop\n      pop\n      pop\n      dup2\n      jump\t// out\n        /* \"contracts/5_Voting.sol\":1637:2214  function doVote(bool _choice)public  inState(State.Voting) returns (bool voted){... */\n    tag_30:\n        /* \"contracts/5_Voting.sol\":1705:1715  bool voted */\n      0x00\n        /* \"contracts/5_Voting.sol\":1682:1694  State.Voting */\n      0x01\n        /* \"contracts/5_Voting.sol\":942:948  _state */\n      dup1\n        /* \"contracts/5_Voting.sol\":935:948  state==_state */\n      0x02\n      dup2\n      gt\n      iszero\n      tag_87\n      jumpi\n      tag_88\n      tag_60\n      jump\t// in\n    tag_88:\n    tag_87:\n        /* \"contracts/5_Voting.sol\":935:940  state */\n      0x09\n      0x00\n      swap1\n      sload\n      swap1\n      0x0100\n      exp\n      swap1\n      div\n      0xff\n      and\n        /* \"contracts/5_Voting.sol\":935:948  state==_state */\n      0x02\n      dup2\n      gt\n      iszero\n      tag_89\n      jumpi\n      tag_90\n      tag_60\n      jump\t// in\n    tag_90:\n    tag_89:\n      eq\n        /* \"contracts/5_Voting.sol\":927:949  require(state==_state) */\n      tag_91\n      jumpi\n      0x00\n      dup1\n      revert\n    tag_91:\n        /* \"contracts/5_Voting.sol\":1727:1739  bool isFound */\n      0x00\n        /* \"contracts/5_Voting.sol\":1811:1812  0 */\n      dup1\n        /* \"contracts/5_Voting.sol\":1766:1779  voterRegister */\n      0x08\n        /* \"contracts/5_Voting.sol\":1766:1791  voterRegister[msg.sender] */\n      0x00\n        /* \"contracts/5_Voting.sol\":1780:1790  msg.sender */\n      caller\n        /* \"contracts/5_Voting.sol\":1766:1791  voterRegister[msg.sender] */\n      0xffffffffffffffffffffffffffffffffffffffff\n      and\n      0xffffffffffffffffffffffffffffffffffffffff\n      and\n      dup2\n      mstore\n      0x20\n      add\n      swap1\n      dup2\n      mstore\n      0x20\n      add\n      0x00\n      keccak256\n        /* \"contracts/5_Voting.sol\":1766:1801  voterRegister[msg.sender].voterName */\n      0x00\n      add\n        /* \"contracts/5_Voting.sol\":1760:1809  bytes(voterRegister[msg.sender].voterName).length */\n      dup1\n      sload\n      tag_93\n      swap1\n      tag_81\n      jump\t// in\n    tag_93:\n      swap1\n      pop\n        /* \"contracts/5_Voting.sol\":1760:1812  bytes(voterRegister[msg.sender].voterName).length!=0 */\n      eq\n      iszero\n        /* \"contracts/5_Voting.sol\":1760:1854  bytes(voterRegister[msg.sender].voterName).length!=0 && voterRegister[msg.sender].voted==false */\n      dup1\n      iszero\n      tag_94\n      jumpi\n      pop\n        /* \"contracts/5_Voting.sol\":1849:1854  false */\n      0x00\n        /* \"contracts/5_Voting.sol\":1816:1854  voterRegister[msg.sender].voted==false */\n      iszero\n      iszero\n        /* \"contracts/5_Voting.sol\":1816:1829  voterRegister */\n      0x08\n        /* \"contracts/5_Voting.sol\":1816:1841  voterRegister[msg.sender] */\n      0x00\n        /* \"contracts/5_Voting.sol\":1830:1840  msg.sender */\n      caller\n        /* \"contracts/5_Voting.sol\":1816:1841  voterRegister[msg.sender] */\n      0xffffffffffffffffffffffffffffffffffffffff\n      and\n      0xffffffffffffffffffffffffffffffffffffffff\n      and\n      dup2\n      mstore\n      0x20\n      add\n      swap1\n      dup2\n      mstore\n      0x20\n      add\n      0x00\n      keccak256\n        /* \"contracts/5_Voting.sol\":1816:1847  voterRegister[msg.sender].voted */\n      0x01\n      add\n      0x00\n      swap1\n      sload\n      swap1\n      0x0100\n      exp\n      swap1\n      div\n      0xff\n      and\n        /* \"contracts/5_Voting.sol\":1816:1854  voterRegister[msg.sender].voted==false */\n      iszero\n      iszero\n      eq\n        /* \"contracts/5_Voting.sol\":1760:1854  bytes(voterRegister[msg.sender].voterName).length!=0 && voterRegister[msg.sender].voted==false */\n    tag_94:\n        /* \"contracts/5_Voting.sol\":1756:2182  if (bytes(voterRegister[msg.sender].voterName).length!=0 && voterRegister[msg.sender].voted==false){... */\n      iszero\n      tag_95\n      jumpi\n        /* \"contracts/5_Voting.sol\":1902:1906  true */\n      0x01\n        /* \"contracts/5_Voting.sol\":1870:1883  voterRegister */\n      0x08\n        /* \"contracts/5_Voting.sol\":1870:1895  voterRegister[msg.sender] */\n      0x00\n        /* \"contracts/5_Voting.sol\":1884:1894  msg.sender */\n      caller\n        /* \"contracts/5_Voting.sol\":1870:1895  voterRegister[msg.sender] */\n      0xffffffffffffffffffffffffffffffffffffffff\n      and\n      0xffffffffffffffffffffffffffffffffffffffff\n      and\n      dup2\n      mstore\n      0x20\n      add\n      swap1\n      dup2\n      mstore\n      0x20\n      add\n      0x00\n      keccak256\n        /* \"contracts/5_Voting.sol\":1870:1901  voterRegister[msg.sender].voted */\n      0x01\n      add\n      0x00\n        /* \"contracts/5_Voting.sol\":1870:1906  voterRegister[msg.sender].voted=true */\n      0x0100\n      exp\n      dup2\n      sload\n      dup2\n      0xff\n      mul\n      not\n      and\n      swap1\n      dup4\n      iszero\n      iszero\n      mul\n      or\n      swap1\n      sstore\n      pop\n        /* \"contracts/5_Voting.sol\":1921:1934  vote memory v */\n      tag_96\n      tag_97\n      jump\t// in\n    tag_96:\n        /* \"contracts/5_Voting.sol\":1964:1974  msg.sender */\n      caller\n        /* \"contracts/5_Voting.sol\":1949:1950  v */\n      dup2\n        /* \"contracts/5_Voting.sol\":1949:1963  v.voterAddress */\n      0x00\n      add\n        /* \"contracts/5_Voting.sol\":1949:1974  v.voterAddress=msg.sender */\n      swap1\n      0xffffffffffffffffffffffffffffffffffffffff\n      and\n      swap1\n      dup2\n      0xffffffffffffffffffffffffffffffffffffffff\n      and\n      dup2\n      mstore\n      pop\n      pop\n        /* \"contracts/5_Voting.sol\":1998:2005  _choice */\n      dup5\n        /* \"contracts/5_Voting.sol\":1989:1990  v */\n      dup2\n        /* \"contracts/5_Voting.sol\":1989:1997  v.choice */\n      0x20\n      add\n        /* \"contracts/5_Voting.sol\":1989:2005  v.choice=_choice */\n      swap1\n      iszero\n      iszero\n      swap1\n      dup2\n      iszero\n      iszero\n      dup2\n      mstore\n      pop\n      pop\n        /* \"contracts/5_Voting.sol\":2032:2036  true */\n      0x01\n        /* \"contracts/5_Voting.sol\":2023:2036  _choice==true */\n      iszero\n      iszero\n        /* \"contracts/5_Voting.sol\":2023:2030  _choice */\n      dup6\n        /* \"contracts/5_Voting.sol\":2023:2036  _choice==true */\n      iszero\n      iszero\n      sub\n        /* \"contracts/5_Voting.sol\":2020:2085  if(_choice==true){... */\n      tag_98\n      jumpi\n        /* \"contracts/5_Voting.sol\":2056:2067  countResult */\n      0x00\n      dup1\n        /* \"contracts/5_Voting.sol\":2056:2069  countResult++ */\n      dup2\n      sload\n      dup1\n      swap3\n      swap2\n      swap1\n      tag_99\n      swap1\n      tag_100\n      jump\t// in\n    tag_99:\n      swap2\n      swap1\n      pop\n      sstore\n      pop\n        /* \"contracts/5_Voting.sol\":2020:2085  if(_choice==true){... */\n    tag_98:\n        /* \"contracts/5_Voting.sol\":2116:2117  v */\n      dup1\n        /* \"contracts/5_Voting.sol\":2099:2104  votes */\n      0x07\n        /* \"contracts/5_Voting.sol\":2099:2115  votes[totalVote] */\n      0x00\n        /* \"contracts/5_Voting.sol\":2105:2114  totalVote */\n      sload(0x03)\n        /* \"contracts/5_Voting.sol\":2099:2115  votes[totalVote] */\n      dup2\n      mstore\n      0x20\n      add\n      swap1\n      dup2\n      mstore\n      0x20\n      add\n      0x00\n      keccak256\n        /* \"contracts/5_Voting.sol\":2099:2117  votes[totalVote]=v */\n      0x00\n      dup3\n      add\n      mload\n      dup2\n      0x00\n      add\n      exp(0x0100, 0x00)\n      dup2\n      sload\n      dup2\n      0xffffffffffffffffffffffffffffffffffffffff\n      mul\n      not\n      and\n      swap1\n      dup4\n      0xffffffffffffffffffffffffffffffffffffffff\n      and\n      mul\n      or\n      swap1\n      sstore\n      pop\n      0x20\n      dup3\n      add\n      mload\n      dup2\n      0x00\n      add\n      exp(0x0100, 0x14)\n      dup2\n      sload\n      dup2\n      0xff\n      mul\n      not\n      and\n      swap1\n      dup4\n      iszero\n      iszero\n      mul\n      or\n      swap1\n      sstore\n      pop\n      swap1\n      pop\n      pop\n        /* \"contracts/5_Voting.sol\":2132:2141  totalVote */\n      0x03\n      0x00\n        /* \"contracts/5_Voting.sol\":2132:2143  totalVote++ */\n      dup2\n      sload\n      dup1\n      swap3\n      swap2\n      swap1\n      tag_101\n      swap1\n      tag_100\n      jump\t// in\n    tag_101:\n      swap2\n      swap1\n      pop\n      sstore\n      pop\n        /* \"contracts/5_Voting.sol\":2166:2170  true */\n      0x01\n        /* \"contracts/5_Voting.sol\":2158:2170  isFound=true */\n      swap2\n      pop\n        /* \"contracts/5_Voting.sol\":1855:2182  {... */\n      pop\n        /* \"contracts/5_Voting.sol\":1756:2182  if (bytes(voterRegister[msg.sender].voterName).length!=0 && voterRegister[msg.sender].voted==false){... */\n    tag_95:\n        /* \"contracts/5_Voting.sol\":2199:2206  isFound */\n      dup1\n        /* \"contracts/5_Voting.sol\":2192:2206  return isFound */\n      swap3\n      pop\n      pop\n        /* \"contracts/5_Voting.sol\":1637:2214  function doVote(bool _choice)public  inState(State.Voting) returns (bool voted){... */\n      pop\n      swap2\n      swap1\n      pop\n      jump\t// out\n        /* \"contracts/5_Voting.sol\":393:430  address public  ballotOfficialAddress */\n    tag_34:\n      0x04\n      0x00\n      swap1\n      sload\n      swap1\n      0x0100\n      exp\n      swap1\n      div\n      0xffffffffffffffffffffffffffffffffffffffff\n      and\n      dup2\n      jump\t// out\n        /* \"contracts/5_Voting.sol\":547:592  mapping (address=>voter)public  voterRegister */\n    tag_40:\n      mstore(0x20, 0x08)\n      dup1\n      0x00\n      mstore\n      keccak256(0x00, 0x40)\n      0x00\n      swap2\n      pop\n      swap1\n      pop\n      dup1\n      0x00\n      add\n      dup1\n      sload\n      tag_102\n      swap1\n      tag_81\n      jump\t// in\n    tag_102:\n      dup1\n      0x1f\n      add\n      0x20\n      dup1\n      swap2\n      div\n      mul\n      0x20\n      add\n      mload(0x40)\n      swap1\n      dup2\n      add\n      0x40\n      mstore\n      dup1\n      swap3\n      swap2\n      swap1\n      dup2\n      dup2\n      mstore\n      0x20\n      add\n      dup3\n      dup1\n      sload\n      tag_103\n      swap1\n      tag_81\n      jump\t// in\n    tag_103:\n      dup1\n      iszero\n      tag_104\n      jumpi\n      dup1\n      0x1f\n      lt\n      tag_105\n      jumpi\n      0x0100\n      dup1\n      dup4\n      sload\n      div\n      mul\n      dup4\n      mstore\n      swap2\n      0x20\n      add\n      swap2\n      jump(tag_104)\n    tag_105:\n      dup3\n      add\n      swap2\n      swap1\n      0x00\n      mstore\n      keccak256(0x00, 0x20)\n      swap1\n    tag_106:\n      dup2\n      sload\n      dup2\n      mstore\n      swap1\n      0x01\n      add\n      swap1\n      0x20\n      add\n      dup1\n      dup4\n      gt\n      tag_106\n      jumpi\n      dup3\n      swap1\n      sub\n      0x1f\n      and\n      dup3\n      add\n      swap2\n    tag_104:\n      pop\n      pop\n      pop\n      pop\n      pop\n      swap1\n      dup1\n      0x01\n      add\n      0x00\n      swap1\n      sload\n      swap1\n      0x0100\n      exp\n      swap1\n      div\n      0xff\n      and\n      swap1\n      pop\n      dup3\n      jump\t// out\n        /* \"contracts/5_Voting.sol\":640:659  State public  state */\n    tag_44:\n      0x09\n      0x00\n      swap1\n      sload\n      swap1\n      0x0100\n      exp\n      swap1\n      div\n      0xff\n      and\n      dup2\n      jump\t// out\n        /* \"contracts/5_Voting.sol\":1259:1522  function addVoter(address _voterAddress,string memory _voterName)public inState(State.Created) onlyOfficial{... */\n    tag_50:\n        /* \"contracts/5_Voting.sol\":1339:1352  State.Created */\n      0x00\n        /* \"contracts/5_Voting.sol\":942:948  _state */\n      dup1\n        /* \"contracts/5_Voting.sol\":935:948  state==_state */\n      0x02\n      dup2\n      gt\n      iszero\n      tag_108\n      jumpi\n      tag_109\n      tag_60\n      jump\t// in\n    tag_109:\n    tag_108:\n        /* \"contracts/5_Voting.sol\":935:940  state */\n      0x09\n      0x00\n      swap1\n      sload\n      swap1\n      0x0100\n      exp\n      swap1\n      div\n      0xff\n      and\n        /* \"contracts/5_Voting.sol\":935:948  state==_state */\n      0x02\n      dup2\n      gt\n      iszero\n      tag_110\n      jumpi\n      tag_111\n      tag_60\n      jump\t// in\n    tag_111:\n    tag_110:\n      eq\n        /* \"contracts/5_Voting.sol\":927:949  require(state==_state) */\n      tag_112\n      jumpi\n      0x00\n      dup1\n      revert\n    tag_112:\n        /* \"contracts/5_Voting.sol\":835:856  ballotOfficialAddress */\n      0x04\n      0x00\n      swap1\n      sload\n      swap1\n      0x0100\n      exp\n      swap1\n      div\n      0xffffffffffffffffffffffffffffffffffffffff\n      and\n        /* \"contracts/5_Voting.sol\":823:856  msg.sender==ballotOfficialAddress */\n      0xffffffffffffffffffffffffffffffffffffffff\n      and\n        /* \"contracts/5_Voting.sol\":823:833  msg.sender */\n      caller\n        /* \"contracts/5_Voting.sol\":823:856  msg.sender==ballotOfficialAddress */\n      0xffffffffffffffffffffffffffffffffffffffff\n      and\n      eq\n        /* \"contracts/5_Voting.sol\":815:857  require(msg.sender==ballotOfficialAddress) */\n      tag_114\n      jumpi\n      0x00\n      dup1\n      revert\n    tag_114:\n        /* \"contracts/5_Voting.sol\":1377:1391  voter memory v */\n      tag_116\n      tag_117\n      jump\t// in\n    tag_116:\n        /* \"contracts/5_Voting.sol\":1414:1424  _voterName */\n      dup3\n        /* \"contracts/5_Voting.sol\":1402:1403  v */\n      dup2\n        /* \"contracts/5_Voting.sol\":1402:1413  v.voterName */\n      0x00\n      add\n        /* \"contracts/5_Voting.sol\":1402:1424  v.voterName=_voterName */\n      dup2\n      swap1\n      mstore\n      pop\n        /* \"contracts/5_Voting.sol\":1443:1448  false */\n      0x00\n        /* \"contracts/5_Voting.sol\":1435:1436  v */\n      dup2\n        /* \"contracts/5_Voting.sol\":1435:1442  v.voted */\n      0x20\n      add\n        /* \"contracts/5_Voting.sol\":1435:1448  v.voted=false */\n      swap1\n      iszero\n      iszero\n      swap1\n      dup2\n      iszero\n      iszero\n      dup2\n      mstore\n      pop\n      pop\n        /* \"contracts/5_Voting.sol\":1488:1489  v */\n      dup1\n        /* \"contracts/5_Voting.sol\":1459:1472  voterRegister */\n      0x08\n        /* \"contracts/5_Voting.sol\":1459:1487  voterRegister[_voterAddress] */\n      0x00\n        /* \"contracts/5_Voting.sol\":1473:1486  _voterAddress */\n      dup7\n        /* \"contracts/5_Voting.sol\":1459:1487  voterRegister[_voterAddress] */\n      0xffffffffffffffffffffffffffffffffffffffff\n      and\n      0xffffffffffffffffffffffffffffffffffffffff\n      and\n      dup2\n      mstore\n      0x20\n      add\n      swap1\n      dup2\n      mstore\n      0x20\n      add\n      0x00\n      keccak256\n        /* \"contracts/5_Voting.sol\":1459:1489  voterRegister[_voterAddress]=v */\n      0x00\n      dup3\n      add\n      mload\n      dup2\n      0x00\n      add\n      swap1\n      dup2\n      tag_118\n      swap2\n      swap1\n      tag_119\n      jump\t// in\n    tag_118:\n      pop\n      0x20\n      dup3\n      add\n      mload\n      dup2\n      0x01\n      add\n      exp(0x0100, 0x00)\n      dup2\n      sload\n      dup2\n      0xff\n      mul\n      not\n      and\n      swap1\n      dup4\n      iszero\n      iszero\n      mul\n      or\n      swap1\n      sstore\n      pop\n      swap1\n      pop\n      pop\n        /* \"contracts/5_Voting.sol\":1500:1510  totalVoter */\n      0x02\n      0x00\n        /* \"contracts/5_Voting.sol\":1500:1512  totalVoter++ */\n      dup2\n      sload\n      dup1\n      swap3\n      swap2\n      swap1\n      tag_120\n      swap1\n      tag_100\n      jump\t// in\n    tag_120:\n      swap2\n      swap1\n      pop\n      sstore\n      pop\n        /* \"contracts/5_Voting.sol\":1366:1522  {... */\n      pop\n        /* \"contracts/5_Voting.sol\":1259:1522  function addVoter(address _voterAddress,string memory _voterName)public inState(State.Created) onlyOfficial{... */\n      pop\n      pop\n      pop\n      jump\t// out\n        /* \"contracts/5_Voting.sol\":437:469  string public ballotOfficialName */\n    tag_52:\n      0x05\n      dup1\n      sload\n      tag_121\n      swap1\n      tag_81\n      jump\t// in\n    tag_121:\n      dup1\n      0x1f\n      add\n      0x20\n      dup1\n      swap2\n      div\n      mul\n      0x20\n      add\n      mload(0x40)\n      swap1\n      dup2\n      add\n      0x40\n      mstore\n      dup1\n      swap3\n      swap2\n      swap1\n      dup2\n      dup2\n      mstore\n      0x20\n      add\n      dup3\n      dup1\n      sload\n      tag_122\n      swap1\n      tag_81\n      jump\t// in\n    tag_122:\n      dup1\n      iszero\n      tag_123\n      jumpi\n      dup1\n      0x1f\n      lt\n      tag_124\n      jumpi\n      0x0100\n      dup1\n      dup4\n      sload\n      div\n      mul\n      dup4\n      mstore\n      swap2\n      0x20\n      add\n      swap2\n      jump(tag_123)\n    tag_124:\n      dup3\n      add\n      swap2\n      swap1\n      0x00\n      mstore\n      keccak256(0x00, 0x20)\n      swap1\n    tag_125:\n      dup2\n      sload\n      dup2\n      mstore\n      swap1\n      0x01\n      add\n      swap1\n      0x20\n      add\n      dup1\n      dup4\n      gt\n      tag_125\n      jumpi\n      dup3\n      swap1\n      sub\n      0x1f\n      and\n      dup3\n      add\n      swap2\n    tag_123:\n      pop\n      pop\n      pop\n      pop\n      pop\n      dup2\n      jump\t// out\n        /* \"contracts/5_Voting.sol\":302:328  uint public  finalResult=0 */\n    tag_55:\n      sload(0x01)\n      dup2\n      jump\t// out\n    tag_97:\n      mload(0x40)\n      dup1\n      0x40\n      add\n      0x40\n      mstore\n      dup1\n      and(0xffffffffffffffffffffffffffffffffffffffff, 0x00)\n      dup2\n      mstore\n      0x20\n      add\n      iszero(iszero(0x00))\n      dup2\n      mstore\n      pop\n      swap1\n      jump\t// out\n    tag_117:\n      mload(0x40)\n      dup1\n      0x40\n      add\n      0x40\n      mstore\n      dup1\n      0x60\n      dup2\n      mstore\n      0x20\n      add\n      iszero(iszero(0x00))\n      dup2\n      mstore\n      pop\n      swap1\n      jump\t// out\n        /* \"#utility.yul\":7:84   */\n    tag_126:\n        /* \"#utility.yul\":44:51   */\n      0x00\n        /* \"#utility.yul\":73:78   */\n      dup2\n        /* \"#utility.yul\":62:78   */\n      swap1\n      pop\n        /* \"#utility.yul\":7:84   */\n      swap2\n      swap1\n      pop\n      jump\t// out\n        /* \"#utility.yul\":90:208   */\n    tag_127:\n        /* \"#utility.yul\":177:201   */\n      tag_178\n        /* \"#utility.yul\":195:200   */\n      dup2\n        /* \"#utility.yul\":177:201   */\n      tag_126\n      jump\t// in\n    tag_178:\n        /* \"#utility.yul\":172:175   */\n      dup3\n        /* \"#utility.yul\":165:202   */\n      mstore\n        /* \"#utility.yul\":90:208   */\n      pop\n      pop\n      jump\t// out\n        /* \"#utility.yul\":214:436   */\n    tag_22:\n        /* \"#utility.yul\":307:311   */\n      0x00\n        /* \"#utility.yul\":345:347   */\n      0x20\n        /* \"#utility.yul\":334:343   */\n      dup3\n        /* \"#utility.yul\":330:348   */\n      add\n        /* \"#utility.yul\":322:348   */\n      swap1\n      pop\n        /* \"#utility.yul\":358:429   */\n      tag_180\n        /* \"#utility.yul\":426:427   */\n      0x00\n        /* \"#utility.yul\":415:424   */\n      dup4\n        /* \"#utility.yul\":411:428   */\n      add\n        /* \"#utility.yul\":402:408   */\n      dup5\n        /* \"#utility.yul\":358:429   */\n      tag_127\n      jump\t// in\n    tag_180:\n        /* \"#utility.yul\":214:436   */\n      swap3\n      swap2\n      pop\n      pop\n      jump\t// out\n        /* \"#utility.yul\":442:541   */\n    tag_128:\n        /* \"#utility.yul\":494:500   */\n      0x00\n        /* \"#utility.yul\":528:533   */\n      dup2\n        /* \"#utility.yul\":522:534   */\n      mload\n        /* \"#utility.yul\":512:534   */\n      swap1\n      pop\n        /* \"#utility.yul\":442:541   */\n      swap2\n      swap1\n      pop\n      jump\t// out\n        /* \"#utility.yul\":547:716   */\n    tag_129:\n        /* \"#utility.yul\":631:642   */\n      0x00\n        /* \"#utility.yul\":665:671   */\n      dup3\n        /* \"#utility.yul\":660:663   */\n      dup3\n        /* \"#utility.yul\":653:672   */\n      mstore\n        /* \"#utility.yul\":705:709   */\n      0x20\n        /* \"#utility.yul\":700:703   */\n      dup3\n        /* \"#utility.yul\":696:710   */\n      add\n        /* \"#utility.yul\":681:710   */\n      swap1\n      pop\n        /* \"#utility.yul\":547:716   */\n      swap3\n      swap2\n      pop\n      pop\n      jump\t// out\n        /* \"#utility.yul\":722:861   */\n    tag_130:\n        /* \"#utility.yul\":811:817   */\n      dup3\n        /* \"#utility.yul\":806:809   */\n      dup2\n        /* \"#utility.yul\":801:804   */\n      dup4\n        /* \"#utility.yul\":795:818   */\n      mcopy\n        /* \"#utility.yul\":852:853   */\n      0x00\n        /* \"#utility.yul\":843:849   */\n      dup4\n        /* \"#utility.yul\":838:841   */\n      dup4\n        /* \"#utility.yul\":834:850   */\n      add\n        /* \"#utility.yul\":827:854   */\n      mstore\n        /* \"#utility.yul\":722:861   */\n      pop\n      pop\n      pop\n      jump\t// out\n        /* \"#utility.yul\":867:969   */\n    tag_131:\n        /* \"#utility.yul\":908:914   */\n      0x00\n        /* \"#utility.yul\":959:961   */\n      0x1f\n        /* \"#utility.yul\":955:962   */\n      not\n        /* \"#utility.yul\":950:952   */\n      0x1f\n        /* \"#utility.yul\":943:948   */\n      dup4\n        /* \"#utility.yul\":939:953   */\n      add\n        /* \"#utility.yul\":935:963   */\n      and\n        /* \"#utility.yul\":925:963   */\n      swap1\n      pop\n        /* \"#utility.yul\":867:969   */\n      swap2\n      swap1\n      pop\n      jump\t// out\n        /* \"#utility.yul\":975:1352   */\n    tag_132:\n        /* \"#utility.yul\":1063:1066   */\n      0x00\n        /* \"#utility.yul\":1091:1130   */\n      tag_186\n        /* \"#utility.yul\":1124:1129   */\n      dup3\n        /* \"#utility.yul\":1091:1130   */\n      tag_128\n      jump\t// in\n    tag_186:\n        /* \"#utility.yul\":1146:1217   */\n      tag_187\n        /* \"#utility.yul\":1210:1216   */\n      dup2\n        /* \"#utility.yul\":1205:1208   */\n      dup6\n        /* \"#utility.yul\":1146:1217   */\n      tag_129\n      jump\t// in\n    tag_187:\n        /* \"#utility.yul\":1139:1217   */\n      swap4\n      pop\n        /* \"#utility.yul\":1226:1291   */\n      tag_188\n        /* \"#utility.yul\":1284:1290   */\n      dup2\n        /* \"#utility.yul\":1279:1282   */\n      dup6\n        /* \"#utility.yul\":1272:1276   */\n      0x20\n        /* \"#utility.yul\":1265:1270   */\n      dup7\n        /* \"#utility.yul\":1261:1277   */\n      add\n        /* \"#utility.yul\":1226:1291   */\n      tag_130\n      jump\t// in\n    tag_188:\n        /* \"#utility.yul\":1316:1345   */\n      tag_189\n        /* \"#utility.yul\":1338:1344   */\n      dup2\n        /* \"#utility.yul\":1316:1345   */\n      tag_131\n      jump\t// in\n    tag_189:\n        /* \"#utility.yul\":1311:1314   */\n      dup5\n        /* \"#utility.yul\":1307:1346   */\n      add\n        /* \"#utility.yul\":1300:1346   */\n      swap2\n      pop\n        /* \"#utility.yul\":1067:1352   */\n      pop\n        /* \"#utility.yul\":975:1352   */\n      swap3\n      swap2\n      pop\n      pop\n      jump\t// out\n        /* \"#utility.yul\":1358:1671   */\n    tag_26:\n        /* \"#utility.yul\":1471:1475   */\n      0x00\n        /* \"#utility.yul\":1509:1511   */\n      0x20\n        /* \"#utility.yul\":1498:1507   */\n      dup3\n        /* \"#utility.yul\":1494:1512   */\n      add\n        /* \"#utility.yul\":1486:1512   */\n      swap1\n      pop\n        /* \"#utility.yul\":1558:1567   */\n      dup2\n        /* \"#utility.yul\":1552:1556   */\n      dup2\n        /* \"#utility.yul\":1548:1568   */\n      sub\n        /* \"#utility.yul\":1544:1545   */\n      0x00\n        /* \"#utility.yul\":1533:1542   */\n      dup4\n        /* \"#utility.yul\":1529:1546   */\n      add\n        /* \"#utility.yul\":1522:1569   */\n      mstore\n        /* \"#utility.yul\":1586:1664   */\n      tag_191\n        /* \"#utility.yul\":1659:1663   */\n      dup2\n        /* \"#utility.yul\":1650:1656   */\n      dup5\n        /* \"#utility.yul\":1586:1664   */\n      tag_132\n      jump\t// in\n    tag_191:\n        /* \"#utility.yul\":1578:1664   */\n      swap1\n      pop\n        /* \"#utility.yul\":1358:1671   */\n      swap3\n      swap2\n      pop\n      pop\n      jump\t// out\n        /* \"#utility.yul\":1677:1752   */\n    tag_133:\n        /* \"#utility.yul\":1710:1716   */\n      0x00\n        /* \"#utility.yul\":1743:1745   */\n      0x40\n        /* \"#utility.yul\":1737:1746   */\n      mload\n        /* \"#utility.yul\":1727:1746   */\n      swap1\n      pop\n        /* \"#utility.yul\":1677:1752   */\n      swap1\n      jump\t// out\n        /* \"#utility.yul\":1758:1875   */\n    tag_134:\n        /* \"#utility.yul\":1867:1868   */\n      0x00\n        /* \"#utility.yul\":1864:1865   */\n      dup1\n        /* \"#utility.yul\":1857:1869   */\n      revert\n        /* \"#utility.yul\":1881:1998   */\n    tag_135:\n        /* \"#utility.yul\":1990:1991   */\n      0x00\n        /* \"#utility.yul\":1987:1988   */\n      dup1\n        /* \"#utility.yul\":1980:1992   */\n      revert\n        /* \"#utility.yul\":2004:2094   */\n    tag_136:\n        /* \"#utility.yul\":2038:2045   */\n      0x00\n        /* \"#utility.yul\":2081:2086   */\n      dup2\n        /* \"#utility.yul\":2074:2087   */\n      iszero\n        /* \"#utility.yul\":2067:2088   */\n      iszero\n        /* \"#utility.yul\":2056:2088   */\n      swap1\n      pop\n        /* \"#utility.yul\":2004:2094   */\n      swap2\n      swap1\n      pop\n      jump\t// out\n        /* \"#utility.yul\":2100:2216   */\n    tag_137:\n        /* \"#utility.yul\":2170:2191   */\n      tag_197\n        /* \"#utility.yul\":2185:2190   */\n      dup2\n        /* \"#utility.yul\":2170:2191   */\n      tag_136\n      jump\t// in\n    tag_197:\n        /* \"#utility.yul\":2163:2168   */\n      dup2\n        /* \"#utility.yul\":2160:2192   */\n      eq\n        /* \"#utility.yul\":2150:2210   */\n      tag_198\n      jumpi\n        /* \"#utility.yul\":2206:2207   */\n      0x00\n        /* \"#utility.yul\":2203:2204   */\n      dup1\n        /* \"#utility.yul\":2196:2208   */\n      revert\n        /* \"#utility.yul\":2150:2210   */\n    tag_198:\n        /* \"#utility.yul\":2100:2216   */\n      pop\n      jump\t// out\n        /* \"#utility.yul\":2222:2355   */\n    tag_138:\n        /* \"#utility.yul\":2265:2270   */\n      0x00\n        /* \"#utility.yul\":2303:2309   */\n      dup2\n        /* \"#utility.yul\":2290:2310   */\n      calldataload\n        /* \"#utility.yul\":2281:2310   */\n      swap1\n      pop\n        /* \"#utility.yul\":2319:2349   */\n      tag_200\n        /* \"#utility.yul\":2343:2348   */\n      dup2\n        /* \"#utility.yul\":2319:2349   */\n      tag_137\n      jump\t// in\n    tag_200:\n        /* \"#utility.yul\":2222:2355   */\n      swap3\n      swap2\n      pop\n      pop\n      jump\t// out\n        /* \"#utility.yul\":2361:2684   */\n    tag_29:\n        /* \"#utility.yul\":2417:2423   */\n      0x00\n        /* \"#utility.yul\":2466:2468   */\n      0x20\n        /* \"#utility.yul\":2454:2463   */\n      dup3\n        /* \"#utility.yul\":2445:2452   */\n      dup5\n        /* \"#utility.yul\":2441:2464   */\n      sub\n        /* \"#utility.yul\":2437:2469   */\n      slt\n        /* \"#utility.yul\":2434:2553   */\n      iszero\n      tag_202\n      jumpi\n        /* \"#utility.yul\":2472:2551   */\n      tag_203\n      tag_134\n      jump\t// in\n    tag_203:\n        /* \"#utility.yul\":2434:2553   */\n    tag_202:\n        /* \"#utility.yul\":2592:2593   */\n      0x00\n        /* \"#utility.yul\":2617:2667   */\n      tag_204\n        /* \"#utility.yul\":2659:2666   */\n      dup5\n        /* \"#utility.yul\":2650:2656   */\n      dup3\n        /* \"#utility.yul\":2639:2648   */\n      dup6\n        /* \"#utility.yul\":2635:2657   */\n      add\n        /* \"#utility.yul\":2617:2667   */\n      tag_138\n      jump\t// in\n    tag_204:\n        /* \"#utility.yul\":2607:2667   */\n      swap2\n      pop\n        /* \"#utility.yul\":2563:2677   */\n      pop\n        /* \"#utility.yul\":2361:2684   */\n      swap3\n      swap2\n      pop\n      pop\n      jump\t// out\n        /* \"#utility.yul\":2690:2799   */\n    tag_139:\n        /* \"#utility.yul\":2771:2792   */\n      tag_206\n        /* \"#utility.yul\":2786:2791   */\n      dup2\n        /* \"#utility.yul\":2771:2792   */\n      tag_136\n      jump\t// in\n    tag_206:\n        /* \"#utility.yul\":2766:2769   */\n      dup3\n        /* \"#utility.yul\":2759:2793   */\n      mstore\n        /* \"#utility.yul\":2690:2799   */\n      pop\n      pop\n      jump\t// out\n        /* \"#utility.yul\":2805:3015   */\n    tag_32:\n        /* \"#utility.yul\":2892:2896   */\n      0x00\n        /* \"#utility.yul\":2930:2932   */\n      0x20\n        /* \"#utility.yul\":2919:2928   */\n      dup3\n        /* \"#utility.yul\":2915:2933   */\n      add\n        /* \"#utility.yul\":2907:2933   */\n      swap1\n      pop\n        /* \"#utility.yul\":2943:3008   */\n      tag_208\n        /* \"#utility.yul\":3005:3006   */\n      0x00\n        /* \"#utility.yul\":2994:3003   */\n      dup4\n        /* \"#utility.yul\":2990:3007   */\n      add\n        /* \"#utility.yul\":2981:2987   */\n      dup5\n        /* \"#utility.yul\":2943:3008   */\n      tag_139\n      jump\t// in\n    tag_208:\n        /* \"#utility.yul\":2805:3015   */\n      swap3\n      swap2\n      pop\n      pop\n      jump\t// out\n        /* \"#utility.yul\":3021:3147   */\n    tag_140:\n        /* \"#utility.yul\":3058:3065   */\n      0x00\n        /* \"#utility.yul\":3098:3140   */\n      0xffffffffffffffffffffffffffffffffffffffff\n        /* \"#utility.yul\":3091:3096   */\n      dup3\n        /* \"#utility.yul\":3087:3141   */\n      and\n        /* \"#utility.yul\":3076:3141   */\n      swap1\n      pop\n        /* \"#utility.yul\":3021:3147   */\n      swap2\n      swap1\n      pop\n      jump\t// out\n        /* \"#utility.yul\":3153:3249   */\n    tag_141:\n        /* \"#utility.yul\":3190:3197   */\n      0x00\n        /* \"#utility.yul\":3219:3243   */\n      tag_211\n        /* \"#utility.yul\":3237:3242   */\n      dup3\n        /* \"#utility.yul\":3219:3243   */\n      tag_140\n      jump\t// in\n    tag_211:\n        /* \"#utility.yul\":3208:3243   */\n      swap1\n      pop\n        /* \"#utility.yul\":3153:3249   */\n      swap2\n      swap1\n      pop\n      jump\t// out\n        /* \"#utility.yul\":3255:3373   */\n    tag_142:\n        /* \"#utility.yul\":3342:3366   */\n      tag_213\n        /* \"#utility.yul\":3360:3365   */\n      dup2\n        /* \"#utility.yul\":3342:3366   */\n      tag_141\n      jump\t// in\n    tag_213:\n        /* \"#utility.yul\":3337:3340   */\n      dup3\n        /* \"#utility.yul\":3330:3367   */\n      mstore\n        /* \"#utility.yul\":3255:3373   */\n      pop\n      pop\n      jump\t// out\n        /* \"#utility.yul\":3379:3601   */\n    tag_36:\n        /* \"#utility.yul\":3472:3476   */\n      0x00\n        /* \"#utility.yul\":3510:3512   */\n      0x20\n        /* \"#utility.yul\":3499:3508   */\n      dup3\n        /* \"#utility.yul\":3495:3513   */\n      add\n        /* \"#utility.yul\":3487:3513   */\n      swap1\n      pop\n        /* \"#utility.yul\":3523:3594   */\n      tag_215\n        /* \"#utility.yul\":3591:3592   */\n      0x00\n        /* \"#utility.yul\":3580:3589   */\n      dup4\n        /* \"#utility.yul\":3576:3593   */\n      add\n        /* \"#utility.yul\":3567:3573   */\n      dup5\n        /* \"#utility.yul\":3523:3594   */\n      tag_142\n      jump\t// in\n    tag_215:\n        /* \"#utility.yul\":3379:3601   */\n      swap3\n      swap2\n      pop\n      pop\n      jump\t// out\n        /* \"#utility.yul\":3607:3729   */\n    tag_143:\n        /* \"#utility.yul\":3680:3704   */\n      tag_217\n        /* \"#utility.yul\":3698:3703   */\n      dup2\n        /* \"#utility.yul\":3680:3704   */\n      tag_141\n      jump\t// in\n    tag_217:\n        /* \"#utility.yul\":3673:3678   */\n      dup2\n        /* \"#utility.yul\":3670:3705   */\n      eq\n        /* \"#utility.yul\":3660:3723   */\n      tag_218\n      jumpi\n        /* \"#utility.yul\":3719:3720   */\n      0x00\n        /* \"#utility.yul\":3716:3717   */\n      dup1\n        /* \"#utility.yul\":3709:3721   */\n      revert\n        /* \"#utility.yul\":3660:3723   */\n    tag_218:\n        /* \"#utility.yul\":3607:3729   */\n      pop\n      jump\t// out\n        /* \"#utility.yul\":3735:3874   */\n    tag_144:\n        /* \"#utility.yul\":3781:3786   */\n      0x00\n        /* \"#utility.yul\":3819:3825   */\n      dup2\n        /* \"#utility.yul\":3806:3826   */\n      calldataload\n        /* \"#utility.yul\":3797:3826   */\n      swap1\n      pop\n        /* \"#utility.yul\":3835:3868   */\n      tag_220\n        /* \"#utility.yul\":3862:3867   */\n      dup2\n        /* \"#utility.yul\":3835:3868   */\n      tag_143\n      jump\t// in\n    tag_220:\n        /* \"#utility.yul\":3735:3874   */\n      swap3\n      swap2\n      pop\n      pop\n      jump\t// out\n        /* \"#utility.yul\":3880:4209   */\n    tag_39:\n        /* \"#utility.yul\":3939:3945   */\n      0x00\n        /* \"#utility.yul\":3988:3990   */\n      0x20\n        /* \"#utility.yul\":3976:3985   */\n      dup3\n        /* \"#utility.yul\":3967:3974   */\n      dup5\n        /* \"#utility.yul\":3963:3986   */\n      sub\n        /* \"#utility.yul\":3959:3991   */\n      slt\n        /* \"#utility.yul\":3956:4075   */\n      iszero\n      tag_222\n      jumpi\n        /* \"#utility.yul\":3994:4073   */\n      tag_223\n      tag_134\n      jump\t// in\n    tag_223:\n        /* \"#utility.yul\":3956:4075   */\n    tag_222:\n        /* \"#utility.yul\":4114:4115   */\n      0x00\n        /* \"#utility.yul\":4139:4192   */\n      tag_224\n        /* \"#utility.yul\":4184:4191   */\n      dup5\n        /* \"#utility.yul\":4175:4181   */\n      dup3\n        /* \"#utility.yul\":4164:4173   */\n      dup6\n        /* \"#utility.yul\":4160:4182   */\n      add\n        /* \"#utility.yul\":4139:4192   */\n      tag_144\n      jump\t// in\n    tag_224:\n        /* \"#utility.yul\":4129:4192   */\n      swap2\n      pop\n        /* \"#utility.yul\":4085:4202   */\n      pop\n        /* \"#utility.yul\":3880:4209   */\n      swap3\n      swap2\n      pop\n      pop\n      jump\t// out\n        /* \"#utility.yul\":4215:4626   */\n    tag_42:\n        /* \"#utility.yul\":4350:4354   */\n      0x00\n        /* \"#utility.yul\":4388:4390   */\n      0x40\n        /* \"#utility.yul\":4377:4386   */\n      dup3\n        /* \"#utility.yul\":4373:4391   */\n      add\n        /* \"#utility.yul\":4365:4391   */\n      swap1\n      pop\n        /* \"#utility.yul\":4437:4446   */\n      dup2\n        /* \"#utility.yul\":4431:4435   */\n      dup2\n        /* \"#utility.yul\":4427:4447   */\n      sub\n        /* \"#utility.yul\":4423:4424   */\n      0x00\n        /* \"#utility.yul\":4412:4421   */\n      dup4\n        /* \"#utility.yul\":4408:4425   */\n      add\n        /* \"#utility.yul\":4401:4448   */\n      mstore\n        /* \"#utility.yul\":4465:4543   */\n      tag_226\n        /* \"#utility.yul\":4538:4542   */\n      dup2\n        /* \"#utility.yul\":4529:4535   */\n      dup6\n        /* \"#utility.yul\":4465:4543   */\n      tag_132\n      jump\t// in\n    tag_226:\n        /* \"#utility.yul\":4457:4543   */\n      swap1\n      pop\n        /* \"#utility.yul\":4553:4619   */\n      tag_227\n        /* \"#utility.yul\":4615:4617   */\n      0x20\n        /* \"#utility.yul\":4604:4613   */\n      dup4\n        /* \"#utility.yul\":4600:4618   */\n      add\n        /* \"#utility.yul\":4591:4597   */\n      dup5\n        /* \"#utility.yul\":4553:4619   */\n      tag_139\n      jump\t// in\n    tag_227:\n        /* \"#utility.yul\":4215:4626   */\n      swap4\n      swap3\n      pop\n      pop\n      pop\n      jump\t// out\n        /* \"#utility.yul\":4632:4812   */\n    tag_60:\n        /* \"#utility.yul\":4680:4757   */\n      0x4e487b7100000000000000000000000000000000000000000000000000000000\n        /* \"#utility.yul\":4677:4678   */\n      0x00\n        /* \"#utility.yul\":4670:4758   */\n      mstore\n        /* \"#utility.yul\":4777:4781   */\n      0x21\n        /* \"#utility.yul\":4774:4775   */\n      0x04\n        /* \"#utility.yul\":4767:4782   */\n      mstore\n        /* \"#utility.yul\":4801:4805   */\n      0x24\n        /* \"#utility.yul\":4798:4799   */\n      0x00\n        /* \"#utility.yul\":4791:4806   */\n      revert\n        /* \"#utility.yul\":4818:4931   */\n    tag_145:\n        /* \"#utility.yul\":4899:4900   */\n      0x03\n        /* \"#utility.yul\":4892:4897   */\n      dup2\n        /* \"#utility.yul\":4889:4901   */\n      lt\n        /* \"#utility.yul\":4879:4925   */\n      tag_230\n      jumpi\n        /* \"#utility.yul\":4905:4923   */\n      tag_231\n      tag_60\n      jump\t// in\n    tag_231:\n        /* \"#utility.yul\":4879:4925   */\n    tag_230:\n        /* \"#utility.yul\":4818:4931   */\n      pop\n      jump\t// out\n        /* \"#utility.yul\":4937:5064   */\n    tag_146:\n        /* \"#utility.yul\":4982:4989   */\n      0x00\n        /* \"#utility.yul\":5011:5016   */\n      dup2\n        /* \"#utility.yul\":5000:5016   */\n      swap1\n      pop\n        /* \"#utility.yul\":5017:5058   */\n      tag_233\n        /* \"#utility.yul\":5052:5057   */\n      dup3\n        /* \"#utility.yul\":5017:5058   */\n      tag_145\n      jump\t// in\n    tag_233:\n        /* \"#utility.yul\":4937:5064   */\n      swap2\n      swap1\n      pop\n      jump\t// out\n        /* \"#utility.yul\":5070:5197   */\n    tag_147:\n        /* \"#utility.yul\":5126:5135   */\n      0x00\n        /* \"#utility.yul\":5159:5191   */\n      tag_235\n        /* \"#utility.yul\":5185:5190   */\n      dup3\n        /* \"#utility.yul\":5159:5191   */\n      tag_146\n      jump\t// in\n    tag_235:\n        /* \"#utility.yul\":5146:5191   */\n      swap1\n      pop\n        /* \"#utility.yul\":5070:5197   */\n      swap2\n      swap1\n      pop\n      jump\t// out\n        /* \"#utility.yul\":5203:5346   */\n    tag_148:\n        /* \"#utility.yul\":5296:5339   */\n      tag_237\n        /* \"#utility.yul\":5333:5338   */\n      dup2\n        /* \"#utility.yul\":5296:5339   */\n      tag_147\n      jump\t// in\n    tag_237:\n        /* \"#utility.yul\":5291:5294   */\n      dup3\n        /* \"#utility.yul\":5284:5340   */\n      mstore\n        /* \"#utility.yul\":5203:5346   */\n      pop\n      pop\n      jump\t// out\n        /* \"#utility.yul\":5352:5586   */\n    tag_46:\n        /* \"#utility.yul\":5451:5455   */\n      0x00\n        /* \"#utility.yul\":5489:5491   */\n      0x20\n        /* \"#utility.yul\":5478:5487   */\n      dup3\n        /* \"#utility.yul\":5474:5492   */\n      add\n        /* \"#utility.yul\":5466:5492   */\n      swap1\n      pop\n        /* \"#utility.yul\":5502:5579   */\n      tag_239\n        /* \"#utility.yul\":5576:5577   */\n      0x00\n        /* \"#utility.yul\":5565:5574   */\n      dup4\n        /* \"#utility.yul\":5561:5578   */\n      add\n        /* \"#utility.yul\":5552:5558   */\n      dup5\n        /* \"#utility.yul\":5502:5579   */\n      tag_148\n      jump\t// in\n    tag_239:\n        /* \"#utility.yul\":5352:5586   */\n      swap3\n      swap2\n      pop\n      pop\n      jump\t// out\n        /* \"#utility.yul\":5592:5709   */\n    tag_149:\n        /* \"#utility.yul\":5701:5702   */\n      0x00\n        /* \"#utility.yul\":5698:5699   */\n      dup1\n        /* \"#utility.yul\":5691:5703   */\n      revert\n        /* \"#utility.yul\":5715:5832   */\n    tag_150:\n        /* \"#utility.yul\":5824:5825   */\n      0x00\n        /* \"#utility.yul\":5821:5822   */\n      dup1\n        /* \"#utility.yul\":5814:5826   */\n      revert\n        /* \"#utility.yul\":5838:6018   */\n    tag_151:\n        /* \"#utility.yul\":5886:5963   */\n      0x4e487b7100000000000000000000000000000000000000000000000000000000\n        /* \"#utility.yul\":5883:5884   */\n      0x00\n        /* \"#utility.yul\":5876:5964   */\n      mstore\n        /* \"#utility.yul\":5983:5987   */\n      0x41\n        /* \"#utility.yul\":5980:5981   */\n      0x04\n        /* \"#utility.yul\":5973:5988   */\n      mstore\n        /* \"#utility.yul\":6007:6011   */\n      0x24\n        /* \"#utility.yul\":6004:6005   */\n      0x00\n        /* \"#utility.yul\":5997:6012   */\n      revert\n        /* \"#utility.yul\":6024:6305   */\n    tag_152:\n        /* \"#utility.yul\":6107:6134   */\n      tag_244\n        /* \"#utility.yul\":6129:6133   */\n      dup3\n        /* \"#utility.yul\":6107:6134   */\n      tag_131\n      jump\t// in\n    tag_244:\n        /* \"#utility.yul\":6099:6105   */\n      dup2\n        /* \"#utility.yul\":6095:6135   */\n      add\n        /* \"#utility.yul\":6237:6243   */\n      dup2\n        /* \"#utility.yul\":6225:6235   */\n      dup2\n        /* \"#utility.yul\":6222:6244   */\n      lt\n        /* \"#utility.yul\":6201:6219   */\n      0xffffffffffffffff\n        /* \"#utility.yul\":6189:6199   */\n      dup3\n        /* \"#utility.yul\":6186:6220   */\n      gt\n        /* \"#utility.yul\":6183:6245   */\n      or\n        /* \"#utility.yul\":6180:6268   */\n      iszero\n      tag_245\n      jumpi\n        /* \"#utility.yul\":6248:6266   */\n      tag_246\n      tag_151\n      jump\t// in\n    tag_246:\n        /* \"#utility.yul\":6180:6268   */\n    tag_245:\n        /* \"#utility.yul\":6288:6298   */\n      dup1\n        /* \"#utility.yul\":6284:6286   */\n      0x40\n        /* \"#utility.yul\":6277:6299   */\n      mstore\n        /* \"#utility.yul\":6067:6305   */\n      pop\n        /* \"#utility.yul\":6024:6305   */\n      pop\n      pop\n      jump\t// out\n        /* \"#utility.yul\":6311:6440   */\n    tag_153:\n        /* \"#utility.yul\":6345:6351   */\n      0x00\n        /* \"#utility.yul\":6372:6392   */\n      tag_248\n      tag_133\n      jump\t// in\n    tag_248:\n        /* \"#utility.yul\":6362:6392   */\n      swap1\n      pop\n        /* \"#utility.yul\":6401:6434   */\n      tag_249\n        /* \"#utility.yul\":6429:6433   */\n      dup3\n        /* \"#utility.yul\":6421:6427   */\n      dup3\n        /* \"#utility.yul\":6401:6434   */\n      tag_152\n      jump\t// in\n    tag_249:\n        /* \"#utility.yul\":6311:6440   */\n      swap2\n      swap1\n      pop\n      jump\t// out\n        /* \"#utility.yul\":6446:6754   */\n    tag_154:\n        /* \"#utility.yul\":6508:6512   */\n      0x00\n        /* \"#utility.yul\":6598:6616   */\n      0xffffffffffffffff\n        /* \"#utility.yul\":6590:6596   */\n      dup3\n        /* \"#utility.yul\":6587:6617   */\n      gt\n        /* \"#utility.yul\":6584:6640   */\n      iszero\n      tag_251\n      jumpi\n        /* \"#utility.yul\":6620:6638   */\n      tag_252\n      tag_151\n      jump\t// in\n    tag_252:\n        /* \"#utility.yul\":6584:6640   */\n    tag_251:\n        /* \"#utility.yul\":6658:6687   */\n      tag_253\n        /* \"#utility.yul\":6680:6686   */\n      dup3\n        /* \"#utility.yul\":6658:6687   */\n      tag_131\n      jump\t// in\n    tag_253:\n        /* \"#utility.yul\":6650:6687   */\n      swap1\n      pop\n        /* \"#utility.yul\":6742:6746   */\n      0x20\n        /* \"#utility.yul\":6736:6740   */\n      dup2\n        /* \"#utility.yul\":6732:6747   */\n      add\n        /* \"#utility.yul\":6724:6747   */\n      swap1\n      pop\n        /* \"#utility.yul\":6446:6754   */\n      swap2\n      swap1\n      pop\n      jump\t// out\n        /* \"#utility.yul\":6760:6908   */\n    tag_155:\n        /* \"#utility.yul\":6858:6864   */\n      dup3\n        /* \"#utility.yul\":6853:6856   */\n      dup2\n        /* \"#utility.yul\":6848:6851   */\n      dup4\n        /* \"#utility.yul\":6835:6865   */\n      calldatacopy\n        /* \"#utility.yul\":6899:6900   */\n      0x00\n        /* \"#utility.yul\":6890:6896   */\n      dup4\n        /* \"#utility.yul\":6885:6888   */\n      dup4\n        /* \"#utility.yul\":6881:6897   */\n      add\n        /* \"#utility.yul\":6874:6901   */\n      mstore\n        /* \"#utility.yul\":6760:6908   */\n      pop\n      pop\n      pop\n      jump\t// out\n        /* \"#utility.yul\":6914:7339   */\n    tag_156:\n        /* \"#utility.yul\":6992:6997   */\n      0x00\n        /* \"#utility.yul\":7017:7083   */\n      tag_256\n        /* \"#utility.yul\":7033:7082   */\n      tag_257\n        /* \"#utility.yul\":7075:7081   */\n      dup5\n        /* \"#utility.yul\":7033:7082   */\n      tag_154\n      jump\t// in\n    tag_257:\n        /* \"#utility.yul\":7017:7083   */\n      tag_153\n      jump\t// in\n    tag_256:\n        /* \"#utility.yul\":7008:7083   */\n      swap1\n      pop\n        /* \"#utility.yul\":7106:7112   */\n      dup3\n        /* \"#utility.yul\":7099:7104   */\n      dup2\n        /* \"#utility.yul\":7092:7113   */\n      mstore\n        /* \"#utility.yul\":7144:7148   */\n      0x20\n        /* \"#utility.yul\":7137:7142   */\n      dup2\n        /* \"#utility.yul\":7133:7149   */\n      add\n        /* \"#utility.yul\":7182:7185   */\n      dup5\n        /* \"#utility.yul\":7173:7179   */\n      dup5\n        /* \"#utility.yul\":7168:7171   */\n      dup5\n        /* \"#utility.yul\":7164:7180   */\n      add\n        /* \"#utility.yul\":7161:7186   */\n      gt\n        /* \"#utility.yul\":7158:7270   */\n      iszero\n      tag_258\n      jumpi\n        /* \"#utility.yul\":7189:7268   */\n      tag_259\n      tag_150\n      jump\t// in\n    tag_259:\n        /* \"#utility.yul\":7158:7270   */\n    tag_258:\n        /* \"#utility.yul\":7279:7333   */\n      tag_260\n        /* \"#utility.yul\":7326:7332   */\n      dup5\n        /* \"#utility.yul\":7321:7324   */\n      dup3\n        /* \"#utility.yul\":7316:7319   */\n      dup6\n        /* \"#utility.yul\":7279:7333   */\n      tag_155\n      jump\t// in\n    tag_260:\n        /* \"#utility.yul\":6998:7339   */\n      pop\n        /* \"#utility.yul\":6914:7339   */\n      swap4\n      swap3\n      pop\n      pop\n      pop\n      jump\t// out\n        /* \"#utility.yul\":7359:7699   */\n    tag_157:\n        /* \"#utility.yul\":7415:7420   */\n      0x00\n        /* \"#utility.yul\":7464:7467   */\n      dup3\n        /* \"#utility.yul\":7457:7461   */\n      0x1f\n        /* \"#utility.yul\":7449:7455   */\n      dup4\n        /* \"#utility.yul\":7445:7462   */\n      add\n        /* \"#utility.yul\":7441:7468   */\n      slt\n        /* \"#utility.yul\":7431:7553   */\n      tag_262\n      jumpi\n        /* \"#utility.yul\":7472:7551   */\n      tag_263\n      tag_149\n      jump\t// in\n    tag_263:\n        /* \"#utility.yul\":7431:7553   */\n    tag_262:\n        /* \"#utility.yul\":7589:7595   */\n      dup2\n        /* \"#utility.yul\":7576:7596   */\n      calldataload\n        /* \"#utility.yul\":7614:7693   */\n      tag_264\n        /* \"#utility.yul\":7689:7692   */\n      dup5\n        /* \"#utility.yul\":7681:7687   */\n      dup3\n        /* \"#utility.yul\":7674:7678   */\n      0x20\n        /* \"#utility.yul\":7666:7672   */\n      dup7\n        /* \"#utility.yul\":7662:7679   */\n      add\n        /* \"#utility.yul\":7614:7693   */\n      tag_156\n      jump\t// in\n    tag_264:\n        /* \"#utility.yul\":7605:7693   */\n      swap2\n      pop\n        /* \"#utility.yul\":7421:7699   */\n      pop\n        /* \"#utility.yul\":7359:7699   */\n      swap3\n      swap2\n      pop\n      pop\n      jump\t// out\n        /* \"#utility.yul\":7705:8359   */\n    tag_49:\n        /* \"#utility.yul\":7783:7789   */\n      0x00\n        /* \"#utility.yul\":7791:7797   */\n      dup1\n        /* \"#utility.yul\":7840:7842   */\n      0x40\n        /* \"#utility.yul\":7828:7837   */\n      dup4\n        /* \"#utility.yul\":7819:7826   */\n      dup6\n        /* \"#utility.yul\":7815:7838   */\n      sub\n        /* \"#utility.yul\":7811:7843   */\n      slt\n        /* \"#utility.yul\":7808:7927   */\n      iszero\n      tag_266\n      jumpi\n        /* \"#utility.yul\":7846:7925   */\n      tag_267\n      tag_134\n      jump\t// in\n    tag_267:\n        /* \"#utility.yul\":7808:7927   */\n    tag_266:\n        /* \"#utility.yul\":7966:7967   */\n      0x00\n        /* \"#utility.yul\":7991:8044   */\n      tag_268\n        /* \"#utility.yul\":8036:8043   */\n      dup6\n        /* \"#utility.yul\":8027:8033   */\n      dup3\n        /* \"#utility.yul\":8016:8025   */\n      dup7\n        /* \"#utility.yul\":8012:8034   */\n      add\n        /* \"#utility.yul\":7991:8044   */\n      tag_144\n      jump\t// in\n    tag_268:\n        /* \"#utility.yul\":7981:8044   */\n      swap3\n      pop\n        /* \"#utility.yul\":7937:8054   */\n      pop\n        /* \"#utility.yul\":8121:8123   */\n      0x20\n        /* \"#utility.yul\":8110:8119   */\n      dup4\n        /* \"#utility.yul\":8106:8124   */\n      add\n        /* \"#utility.yul\":8093:8125   */\n      calldataload\n        /* \"#utility.yul\":8152:8170   */\n      0xffffffffffffffff\n        /* \"#utility.yul\":8144:8150   */\n      dup2\n        /* \"#utility.yul\":8141:8171   */\n      gt\n        /* \"#utility.yul\":8138:8255   */\n      iszero\n      tag_269\n      jumpi\n        /* \"#utility.yul\":8174:8253   */\n      tag_270\n      tag_135\n      jump\t// in\n    tag_270:\n        /* \"#utility.yul\":8138:8255   */\n    tag_269:\n        /* \"#utility.yul\":8279:8342   */\n      tag_271\n        /* \"#utility.yul\":8334:8341   */\n      dup6\n        /* \"#utility.yul\":8325:8331   */\n      dup3\n        /* \"#utility.yul\":8314:8323   */\n      dup7\n        /* \"#utility.yul\":8310:8332   */\n      add\n        /* \"#utility.yul\":8279:8342   */\n      tag_157\n      jump\t// in\n    tag_271:\n        /* \"#utility.yul\":8269:8342   */\n      swap2\n      pop\n        /* \"#utility.yul\":8064:8352   */\n      pop\n        /* \"#utility.yul\":7705:8359   */\n      swap3\n      pop\n      swap3\n      swap1\n      pop\n      jump\t// out\n        /* \"#utility.yul\":8365:8545   */\n    tag_158:\n        /* \"#utility.yul\":8413:8490   */\n      0x4e487b7100000000000000000000000000000000000000000000000000000000\n        /* \"#utility.yul\":8410:8411   */\n      0x00\n        /* \"#utility.yul\":8403:8491   */\n      mstore\n        /* \"#utility.yul\":8510:8514   */\n      0x22\n        /* \"#utility.yul\":8507:8508   */\n      0x04\n        /* \"#utility.yul\":8500:8515   */\n      mstore\n        /* \"#utility.yul\":8534:8538   */\n      0x24\n        /* \"#utility.yul\":8531:8532   */\n      0x00\n        /* \"#utility.yul\":8524:8539   */\n      revert\n        /* \"#utility.yul\":8551:8871   */\n    tag_81:\n        /* \"#utility.yul\":8595:8601   */\n      0x00\n        /* \"#utility.yul\":8632:8633   */\n      0x02\n        /* \"#utility.yul\":8626:8630   */\n      dup3\n        /* \"#utility.yul\":8622:8634   */\n      div\n        /* \"#utility.yul\":8612:8634   */\n      swap1\n      pop\n        /* \"#utility.yul\":8679:8680   */\n      0x01\n        /* \"#utility.yul\":8673:8677   */\n      dup3\n        /* \"#utility.yul\":8669:8681   */\n      and\n        /* \"#utility.yul\":8700:8718   */\n      dup1\n        /* \"#utility.yul\":8690:8771   */\n      tag_274\n      jumpi\n        /* \"#utility.yul\":8756:8760   */\n      0x7f\n        /* \"#utility.yul\":8748:8754   */\n      dup3\n        /* \"#utility.yul\":8744:8761   */\n      and\n        /* \"#utility.yul\":8734:8761   */\n      swap2\n      pop\n        /* \"#utility.yul\":8690:8771   */\n    tag_274:\n        /* \"#utility.yul\":8818:8820   */\n      0x20\n        /* \"#utility.yul\":8810:8816   */\n      dup3\n        /* \"#utility.yul\":8807:8821   */\n      lt\n        /* \"#utility.yul\":8787:8805   */\n      dup2\n        /* \"#utility.yul\":8784:8822   */\n      sub\n        /* \"#utility.yul\":8781:8865   */\n      tag_275\n      jumpi\n        /* \"#utility.yul\":8837:8855   */\n      tag_276\n      tag_158\n      jump\t// in\n    tag_276:\n        /* \"#utility.yul\":8781:8865   */\n    tag_275:\n        /* \"#utility.yul\":8602:8871   */\n      pop\n        /* \"#utility.yul\":8551:8871   */\n      swap2\n      swap1\n      pop\n      jump\t// out\n        /* \"#utility.yul\":8877:9057   */\n    tag_159:\n        /* \"#utility.yul\":8925:9002   */\n      0x4e487b7100000000000000000000000000000000000000000000000000000000\n        /* \"#utility.yul\":8922:8923   */\n      0x00\n        /* \"#utility.yul\":8915:9003   */\n      mstore\n        /* \"#utility.yul\":9022:9026   */\n      0x11\n        /* \"#utility.yul\":9019:9020   */\n      0x04\n        /* \"#utility.yul\":9012:9027   */\n      mstore\n        /* \"#utility.yul\":9046:9050   */\n      0x24\n        /* \"#utility.yul\":9043:9044   */\n      0x00\n        /* \"#utility.yul\":9036:9051   */\n      revert\n        /* \"#utility.yul\":9063:9296   */\n    tag_100:\n        /* \"#utility.yul\":9102:9105   */\n      0x00\n        /* \"#utility.yul\":9125:9149   */\n      tag_279\n        /* \"#utility.yul\":9143:9148   */\n      dup3\n        /* \"#utility.yul\":9125:9149   */\n      tag_126\n      jump\t// in\n    tag_279:\n        /* \"#utility.yul\":9116:9149   */\n      swap2\n      pop\n        /* \"#utility.yul\":9171:9237   */\n      0xffffffffffffffffffffffffffffffffffffffffffffffffffffffffffffffff\n        /* \"#utility.yul\":9164:9169   */\n      dup3\n        /* \"#utility.yul\":9161:9238   */\n      sub\n        /* \"#utility.yul\":9158:9261   */\n      tag_280\n      jumpi\n        /* \"#utility.yul\":9241:9259   */\n      tag_281\n      tag_159\n      jump\t// in\n    tag_281:\n        /* \"#utility.yul\":9158:9261   */\n    tag_280:\n        /* \"#utility.yul\":9288:9289   */\n      0x01\n        /* \"#utility.yul\":9281:9286   */\n      dup3\n        /* \"#utility.yul\":9277:9290   */\n      add\n        /* \"#utility.yul\":9270:9290   */\n      swap1\n      pop\n        /* \"#utility.yul\":9063:9296   */\n      swap2\n      swap1\n      pop\n      jump\t// out\n        /* \"#utility.yul\":9302:9443   */\n    tag_160:\n        /* \"#utility.yul\":9351:9355   */\n      0x00\n        /* \"#utility.yul\":9374:9377   */\n      dup2\n        /* \"#utility.yul\":9366:9377   */\n      swap1\n      pop\n        /* \"#utility.yul\":9397:9400   */\n      dup2\n        /* \"#utility.yul\":9394:9395   */\n      0x00\n        /* \"#utility.yul\":9387:9401   */\n      mstore\n        /* \"#utility.yul\":9431:9435   */\n      0x20\n        /* \"#utility.yul\":9428:9429   */\n      0x00\n        /* \"#utility.yul\":9418:9436   */\n      keccak256\n        /* \"#utility.yul\":9410:9436   */\n      swap1\n      pop\n        /* \"#utility.yul\":9302:9443   */\n      swap2\n      swap1\n      pop\n      jump\t// out\n        /* \"#utility.yul\":9449:9542   */\n    tag_161:\n        /* \"#utility.yul\":9486:9492   */\n      0x00\n        /* \"#utility.yul\":9533:9535   */\n      0x20\n        /* \"#utility.yul\":9528:9530   */\n      0x1f\n        /* \"#utility.yul\":9521:9526   */\n      dup4\n        /* \"#utility.yul\":9517:9531   */\n      add\n        /* \"#utility.yul\":9513:9536   */\n      div\n        /* \"#utility.yul\":9503:9536   */\n      swap1\n      pop\n        /* \"#utility.yul\":9449:9542   */\n      swap2\n      swap1\n      pop\n      jump\t// out\n        /* \"#utility.yul\":9548:9655   */\n    tag_162:\n        /* \"#utility.yul\":9592:9600   */\n      0x00\n        /* \"#utility.yul\":9642:9647   */\n      dup3\n        /* \"#utility.yul\":9636:9640   */\n      dup3\n        /* \"#utility.yul\":9632:9648   */\n      shl\n        /* \"#utility.yul\":9611:9648   */\n      swap1\n      pop\n        /* \"#utility.yul\":9548:9655   */\n      swap3\n      swap2\n      pop\n      pop\n      jump\t// out\n        /* \"#utility.yul\":9661:10054   */\n    tag_163:\n        /* \"#utility.yul\":9730:9736   */\n      0x00\n        /* \"#utility.yul\":9780:9781   */\n      0x08\n        /* \"#utility.yul\":9768:9778   */\n      dup4\n        /* \"#utility.yul\":9764:9782   */\n      mul\n        /* \"#utility.yul\":9803:9900   */\n      tag_286\n        /* \"#utility.yul\":9833:9899   */\n      0xffffffffffffffffffffffffffffffffffffffffffffffffffffffffffffffff\n        /* \"#utility.yul\":9822:9831   */\n      dup3\n        /* \"#utility.yul\":9803:9900   */\n      tag_162\n      jump\t// in\n    tag_286:\n        /* \"#utility.yul\":9921:9960   */\n      tag_287\n        /* \"#utility.yul\":9951:9959   */\n      dup7\n        /* \"#utility.yul\":9940:9949   */\n      dup4\n        /* \"#utility.yul\":9921:9960   */\n      tag_162\n      jump\t// in\n    tag_287:\n        /* \"#utility.yul\":9909:9960   */\n      swap6\n      pop\n        /* \"#utility.yul\":9993:9997   */\n      dup1\n        /* \"#utility.yul\":9989:9998   */\n      not\n        /* \"#utility.yul\":9982:9987   */\n      dup5\n        /* \"#utility.yul\":9978:9999   */\n      and\n        /* \"#utility.yul\":9969:9999   */\n      swap4\n      pop\n        /* \"#utility.yul\":10042:10046   */\n      dup1\n        /* \"#utility.yul\":10032:10040   */\n      dup7\n        /* \"#utility.yul\":10028:10047   */\n      and\n        /* \"#utility.yul\":10021:10026   */\n      dup5\n        /* \"#utility.yul\":10018:10048   */\n      or\n        /* \"#utility.yul\":10008:10048   */\n      swap3\n      pop\n        /* \"#utility.yul\":9737:10054   */\n      pop\n      pop\n        /* \"#utility.yul\":9661:10054   */\n      swap4\n      swap3\n      pop\n      pop\n      pop\n      jump\t// out\n        /* \"#utility.yul\":10060:10120   */\n    tag_164:\n        /* \"#utility.yul\":10088:10091   */\n      0x00\n        /* \"#utility.yul\":10109:10114   */\n      dup2\n        /* \"#utility.yul\":10102:10114   */\n      swap1\n      pop\n        /* \"#utility.yul\":10060:10120   */\n      swap2\n      swap1\n      pop\n      jump\t// out\n        /* \"#utility.yul\":10126:10268   */\n    tag_165:\n        /* \"#utility.yul\":10176:10185   */\n      0x00\n        /* \"#utility.yul\":10209:10262   */\n      tag_290\n        /* \"#utility.yul\":10227:10261   */\n      tag_291\n        /* \"#utility.yul\":10236:10260   */\n      tag_292\n        /* \"#utility.yul\":10254:10259   */\n      dup5\n        /* \"#utility.yul\":10236:10260   */\n      tag_126\n      jump\t// in\n    tag_292:\n        /* \"#utility.yul\":10227:10261   */\n      tag_164\n      jump\t// in\n    tag_291:\n        /* \"#utility.yul\":10209:10262   */\n      tag_126\n      jump\t// in\n    tag_290:\n        /* \"#utility.yul\":10196:10262   */\n      swap1\n      pop\n        /* \"#utility.yul\":10126:10268   */\n      swap2\n      swap1\n      pop\n      jump\t// out\n        /* \"#utility.yul\":10274:10349   */\n    tag_166:\n        /* \"#utility.yul\":10317:10320   */\n      0x00\n        /* \"#utility.yul\":10338:10343   */\n      dup2\n        /* \"#utility.yul\":10331:10343   */\n      swap1\n      pop\n        /* \"#utility.yul\":10274:10349   */\n      swap2\n      swap1\n      pop\n      jump\t// out\n        /* \"#utility.yul\":10355:10624   */\n    tag_167:\n        /* \"#utility.yul\":10465:10504   */\n      tag_295\n        /* \"#utility.yul\":10496:10503   */\n      dup4\n        /* \"#utility.yul\":10465:10504   */\n      tag_165\n      jump\t// in\n    tag_295:\n        /* \"#utility.yul\":10526:10617   */\n      tag_296\n        /* \"#utility.yul\":10575:10616   */\n      tag_297\n        /* \"#utility.yul\":10599:10615   */\n      dup3\n        /* \"#utility.yul\":10575:10616   */\n      tag_166\n      jump\t// in\n    tag_297:\n        /* \"#utility.yul\":10567:10573   */\n      dup5\n        /* \"#utility.yul\":10560:10564   */\n      dup5\n        /* \"#utility.yul\":10554:10565   */\n      sload\n        /* \"#utility.yul\":10526:10617   */\n      tag_163\n      jump\t// in\n    tag_296:\n        /* \"#utility.yul\":10520:10524   */\n      dup3\n        /* \"#utility.yul\":10513:10618   */\n      sstore\n        /* \"#utility.yul\":10431:10624   */\n      pop\n        /* \"#utility.yul\":10355:10624   */\n      pop\n      pop\n      pop\n      jump\t// out\n        /* \"#utility.yul\":10630:10703   */\n    tag_168:\n        /* \"#utility.yul\":10675:10678   */\n      0x00\n        /* \"#utility.yul\":10630:10703   */\n      swap1\n      jump\t// out\n        /* \"#utility.yul\":10709:10898   */\n    tag_169:\n        /* \"#utility.yul\":10786:10818   */\n      tag_300\n      tag_168\n      jump\t// in\n    tag_300:\n        /* \"#utility.yul\":10827:10892   */\n      tag_301\n        /* \"#utility.yul\":10885:10891   */\n      dup2\n        /* \"#utility.yul\":10877:10883   */\n      dup5\n        /* \"#utility.yul\":10871:10875   */\n      dup5\n        /* \"#utility.yul\":10827:10892   */\n      tag_167\n      jump\t// in\n    tag_301:\n        /* \"#utility.yul\":10762:10898   */\n      pop\n        /* \"#utility.yul\":10709:10898   */\n      pop\n      pop\n      jump\t// out\n        /* \"#utility.yul\":10904:11090   */\n    tag_170:\n        /* \"#utility.yul\":10964:11084   */\n    tag_303:\n        /* \"#utility.yul\":10981:10984   */\n      dup2\n        /* \"#utility.yul\":10974:10979   */\n      dup2\n        /* \"#utility.yul\":10971:10985   */\n      lt\n        /* \"#utility.yul\":10964:11084   */\n      iszero\n      tag_305\n      jumpi\n        /* \"#utility.yul\":11035:11074   */\n      tag_306\n        /* \"#utility.yul\":11072:11073   */\n      0x00\n        /* \"#utility.yul\":11065:11070   */\n      dup3\n        /* \"#utility.yul\":11035:11074   */\n      tag_169\n      jump\t// in\n    tag_306:\n        /* \"#utility.yul\":11008:11009   */\n      0x01\n        /* \"#utility.yul\":11001:11006   */\n      dup2\n        /* \"#utility.yul\":10997:11010   */\n      add\n        /* \"#utility.yul\":10988:11010   */\n      swap1\n      pop\n        /* \"#utility.yul\":10964:11084   */\n      jump(tag_303)\n    tag_305:\n        /* \"#utility.yul\":10904:11090   */\n      pop\n      pop\n      jump\t// out\n        /* \"#utility.yul\":11096:11639   */\n    tag_171:\n        /* \"#utility.yul\":11197:11199   */\n      0x1f\n        /* \"#utility.yul\":11192:11195   */\n      dup3\n        /* \"#utility.yul\":11189:11200   */\n      gt\n        /* \"#utility.yul\":11186:11632   */\n      iszero\n      tag_308\n      jumpi\n        /* \"#utility.yul\":11231:11269   */\n      tag_309\n        /* \"#utility.yul\":11263:11268   */\n      dup2\n        /* \"#utility.yul\":11231:11269   */\n      tag_160\n      jump\t// in\n    tag_309:\n        /* \"#utility.yul\":11315:11344   */\n      tag_310\n        /* \"#utility.yul\":11333:11343   */\n      dup5\n        /* \"#utility.yul\":11315:11344   */\n      tag_161\n      jump\t// in\n    tag_310:\n        /* \"#utility.yul\":11305:11313   */\n      dup2\n        /* \"#utility.yul\":11301:11345   */\n      add\n        /* \"#utility.yul\":11498:11500   */\n      0x20\n        /* \"#utility.yul\":11486:11496   */\n      dup6\n        /* \"#utility.yul\":11483:11501   */\n      lt\n        /* \"#utility.yul\":11480:11529   */\n      iszero\n      tag_311\n      jumpi\n        /* \"#utility.yul\":11519:11527   */\n      dup2\n        /* \"#utility.yul\":11504:11527   */\n      swap1\n      pop\n        /* \"#utility.yul\":11480:11529   */\n    tag_311:\n        /* \"#utility.yul\":11542:11622   */\n      tag_312\n        /* \"#utility.yul\":11598:11620   */\n      tag_313\n        /* \"#utility.yul\":11616:11619   */\n      dup6\n        /* \"#utility.yul\":11598:11620   */\n      tag_161\n      jump\t// in\n    tag_313:\n        /* \"#utility.yul\":11588:11596   */\n      dup4\n        /* \"#utility.yul\":11584:11621   */\n      add\n        /* \"#utility.yul\":11571:11582   */\n      dup3\n        /* \"#utility.yul\":11542:11622   */\n      tag_170\n      jump\t// in\n    tag_312:\n        /* \"#utility.yul\":11201:11632   */\n      pop\n      pop\n        /* \"#utility.yul\":11186:11632   */\n    tag_308:\n        /* \"#utility.yul\":11096:11639   */\n      pop\n      pop\n      pop\n      jump\t// out\n        /* \"#utility.yul\":11645:11762   */\n    tag_172:\n        /* \"#utility.yul\":11699:11707   */\n      0x00\n        /* \"#utility.yul\":11749:11754   */\n      dup3\n        /* \"#utility.yul\":11743:11747   */\n      dup3\n        /* \"#utility.yul\":11739:11755   */\n      shr\n        /* \"#utility.yul\":11718:11755   */\n      swap1\n      pop\n        /* \"#utility.yul\":11645:11762   */\n      swap3\n      swap2\n      pop\n      pop\n      jump\t// out\n        /* \"#utility.yul\":11768:11937   */\n    tag_173:\n        /* \"#utility.yul\":11812:11818   */\n      0x00\n        /* \"#utility.yul\":11845:11896   */\n      tag_316\n        /* \"#utility.yul\":11893:11894   */\n      0x00\n        /* \"#utility.yul\":11889:11895   */\n      not\n        /* \"#utility.yul\":11881:11886   */\n      dup5\n        /* \"#utility.yul\":11878:11879   */\n      0x08\n        /* \"#utility.yul\":11874:11887   */\n      mul\n        /* \"#utility.yul\":11845:11896   */\n      tag_172\n      jump\t// in\n    tag_316:\n        /* \"#utility.yul\":11841:11897   */\n      not\n        /* \"#utility.yul\":11926:11930   */\n      dup1\n        /* \"#utility.yul\":11920:11924   */\n      dup4\n        /* \"#utility.yul\":11916:11931   */\n      and\n        /* \"#utility.yul\":11906:11931   */\n      swap2\n      pop\n        /* \"#utility.yul\":11819:11937   */\n      pop\n        /* \"#utility.yul\":11768:11937   */\n      swap3\n      swap2\n      pop\n      pop\n      jump\t// out\n        /* \"#utility.yul\":11942:12237   */\n    tag_174:\n        /* \"#utility.yul\":12018:12022   */\n      0x00\n        /* \"#utility.yul\":12164:12193   */\n      tag_318\n        /* \"#utility.yul\":12189:12192   */\n      dup4\n        /* \"#utility.yul\":12183:12187   */\n      dup4\n        /* \"#utility.yul\":12164:12193   */\n      tag_173\n      jump\t// in\n    tag_318:\n        /* \"#utility.yul\":12156:12193   */\n      swap2\n      pop\n        /* \"#utility.yul\":12226:12229   */\n      dup3\n        /* \"#utility.yul\":12223:12224   */\n      0x02\n        /* \"#utility.yul\":12219:12230   */\n      mul\n        /* \"#utility.yul\":12213:12217   */\n      dup3\n        /* \"#utility.yul\":12210:12231   */\n      or\n        /* \"#utility.yul\":12202:12231   */\n      swap1\n      pop\n        /* \"#utility.yul\":11942:12237   */\n      swap3\n      swap2\n      pop\n      pop\n      jump\t// out\n        /* \"#utility.yul\":12242:13637   */\n    tag_119:\n        /* \"#utility.yul\":12359:12396   */\n      tag_320\n        /* \"#utility.yul\":12392:12395   */\n      dup3\n        /* \"#utility.yul\":12359:12396   */\n      tag_128\n      jump\t// in\n    tag_320:\n        /* \"#utility.yul\":12461:12479   */\n      0xffffffffffffffff\n        /* \"#utility.yul\":12453:12459   */\n      dup2\n        /* \"#utility.yul\":12450:12480   */\n      gt\n        /* \"#utility.yul\":12447:12503   */\n      iszero\n      tag_321\n      jumpi\n        /* \"#utility.yul\":12483:12501   */\n      tag_322\n      tag_151\n      jump\t// in\n    tag_322:\n        /* \"#utility.yul\":12447:12503   */\n    tag_321:\n        /* \"#utility.yul\":12527:12565   */\n      tag_323\n        /* \"#utility.yul\":12559:12563   */\n      dup3\n        /* \"#utility.yul\":12553:12564   */\n      sload\n        /* \"#utility.yul\":12527:12565   */\n      tag_81\n      jump\t// in\n    tag_323:\n        /* \"#utility.yul\":12612:12679   */\n      tag_324\n        /* \"#utility.yul\":12672:12678   */\n      dup3\n        /* \"#utility.yul\":12664:12670   */\n      dup3\n        /* \"#utility.yul\":12658:12662   */\n      dup6\n        /* \"#utility.yul\":12612:12679   */\n      tag_171\n      jump\t// in\n    tag_324:\n        /* \"#utility.yul\":12706:12707   */\n      0x00\n        /* \"#utility.yul\":12730:12734   */\n      0x20\n        /* \"#utility.yul\":12717:12734   */\n      swap1\n      pop\n        /* \"#utility.yul\":12762:12764   */\n      0x1f\n        /* \"#utility.yul\":12754:12760   */\n      dup4\n        /* \"#utility.yul\":12751:12765   */\n      gt\n        /* \"#utility.yul\":12779:12780   */\n      0x01\n        /* \"#utility.yul\":12774:13392   */\n      dup2\n      eq\n      tag_326\n      jumpi\n        /* \"#utility.yul\":13436:13437   */\n      0x00\n        /* \"#utility.yul\":13453:13459   */\n      dup5\n        /* \"#utility.yul\":13450:13527   */\n      iszero\n      tag_327\n      jumpi\n        /* \"#utility.yul\":13502:13511   */\n      dup3\n        /* \"#utility.yul\":13497:13500   */\n      dup8\n        /* \"#utility.yul\":13493:13512   */\n      add\n        /* \"#utility.yul\":13487:13513   */\n      mload\n        /* \"#utility.yul\":13478:13513   */\n      swap1\n      pop\n        /* \"#utility.yul\":13450:13527   */\n    tag_327:\n        /* \"#utility.yul\":13553:13620   */\n      tag_328\n        /* \"#utility.yul\":13613:13619   */\n      dup6\n        /* \"#utility.yul\":13606:13611   */\n      dup3\n        /* \"#utility.yul\":13553:13620   */\n      tag_174\n      jump\t// in\n    tag_328:\n        /* \"#utility.yul\":13547:13551   */\n      dup7\n        /* \"#utility.yul\":13540:13621   */\n      sstore\n        /* \"#utility.yul\":13409:13631   */\n      pop\n        /* \"#utility.yul\":12744:13631   */\n      jump(tag_325)\n        /* \"#utility.yul\":12774:13392   */\n    tag_326:\n        /* \"#utility.yul\":12826:12830   */\n      0x1f\n        /* \"#utility.yul\":12822:12831   */\n      not\n        /* \"#utility.yul\":12814:12820   */\n      dup5\n        /* \"#utility.yul\":12810:12832   */\n      and\n        /* \"#utility.yul\":12860:12897   */\n      tag_329\n        /* \"#utility.yul\":12892:12896   */\n      dup7\n        /* \"#utility.yul\":12860:12897   */\n      tag_160\n      jump\t// in\n    tag_329:\n        /* \"#utility.yul\":12919:12920   */\n      0x00\n        /* \"#utility.yul\":12933:13141   */\n    tag_330:\n        /* \"#utility.yul\":12947:12954   */\n      dup3\n        /* \"#utility.yul\":12944:12945   */\n      dup2\n        /* \"#utility.yul\":12941:12955   */\n      lt\n        /* \"#utility.yul\":12933:13141   */\n      iszero\n      tag_332\n      jumpi\n        /* \"#utility.yul\":13026:13035   */\n      dup5\n        /* \"#utility.yul\":13021:13024   */\n      dup10\n        /* \"#utility.yul\":13017:13036   */\n      add\n        /* \"#utility.yul\":13011:13037   */\n      mload\n        /* \"#utility.yul\":13003:13009   */\n      dup3\n        /* \"#utility.yul\":12996:13038   */\n      sstore\n        /* \"#utility.yul\":13077:13078   */\n      0x01\n        /* \"#utility.yul\":13069:13075   */\n      dup3\n        /* \"#utility.yul\":13065:13079   */\n      add\n        /* \"#utility.yul\":13055:13079   */\n      swap2\n      pop\n        /* \"#utility.yul\":13124:13126   */\n      0x20\n        /* \"#utility.yul\":13113:13122   */\n      dup6\n        /* \"#utility.yul\":13109:13127   */\n      add\n        /* \"#utility.yul\":13096:13127   */\n      swap5\n      pop\n        /* \"#utility.yul\":12970:12974   */\n      0x20\n        /* \"#utility.yul\":12967:12968   */\n      dup2\n        /* \"#utility.yul\":12963:12975   */\n      add\n        /* \"#utility.yul\":12958:12975   */\n      swap1\n      pop\n        /* \"#utility.yul\":12933:13141   */\n      jump(tag_330)\n    tag_332:\n        /* \"#utility.yul\":13169:13175   */\n      dup7\n        /* \"#utility.yul\":13160:13167   */\n      dup4\n        /* \"#utility.yul\":13157:13176   */\n      lt\n        /* \"#utility.yul\":13154:13333   */\n      iszero\n      tag_333\n      jumpi\n        /* \"#utility.yul\":13227:13236   */\n      dup5\n        /* \"#utility.yul\":13222:13225   */\n      dup10\n        /* \"#utility.yul\":13218:13237   */\n      add\n        /* \"#utility.yul\":13212:13238   */\n      mload\n        /* \"#utility.yul\":13270:13318   */\n      tag_334\n        /* \"#utility.yul\":13312:13316   */\n      0x1f\n        /* \"#utility.yul\":13304:13310   */\n      dup10\n        /* \"#utility.yul\":13300:13317   */\n      and\n        /* \"#utility.yul\":13289:13298   */\n      dup3\n        /* \"#utility.yul\":13270:13318   */\n      tag_173\n      jump\t// in\n    tag_334:\n        /* \"#utility.yul\":13262:13268   */\n      dup4\n        /* \"#utility.yul\":13255:13319   */\n      sstore\n        /* \"#utility.yul\":13177:13333   */\n      pop\n        /* \"#utility.yul\":13154:13333   */\n    tag_333:\n        /* \"#utility.yul\":13379:13380   */\n      0x01\n        /* \"#utility.yul\":13375:13376   */\n      0x02\n        /* \"#utility.yul\":13367:13373   */\n      dup9\n        /* \"#utility.yul\":13363:13377   */\n      mul\n        /* \"#utility.yul\":13359:13381   */\n      add\n        /* \"#utility.yul\":13353:13357   */\n      dup9\n        /* \"#utility.yul\":13346:13382   */\n      sstore\n        /* \"#utility.yul\":12781:13392   */\n      pop\n      pop\n      pop\n        /* \"#utility.yul\":12744:13631   */\n    tag_325:\n      pop\n        /* \"#utility.yul\":12334:13637   */\n      pop\n      pop\n      pop\n        /* \"#utility.yul\":12242:13637   */\n      pop\n      pop\n      jump\t// out\n\n    auxdata: 0xa264697066735822122040690516f6441d96c55d3fc9b14e3e8f2ce711a9470443a364859d15062cf6ea64736f6c63430008190033\n}\n",
				"bytecode": {
					"linkReferences": {},
					"object": "60806040525f80555f6001555f6002555f60035534801561001e575f80fd5b506040516116dc3803806116dc8339818101604052810190610040919061021d565b3360045f6101000a81548173ffffffffffffffffffffffffffffffffffffffff021916908373ffffffffffffffffffffffffffffffffffffffff160217905550816005908161008f91906104a0565b50806006908161009f91906104a0565b505f60095f6101000a81548160ff021916908360028111156100c4576100c361056f565b5b0217905550505061059c565b5f604051905090565b5f80fd5b5f80fd5b5f80fd5b5f80fd5b5f601f19601f8301169050919050565b7f4e487b71000000000000000000000000000000000000000000000000000000005f52604160045260245ffd5b61012f826100e9565b810181811067ffffffffffffffff8211171561014e5761014d6100f9565b5b80604052505050565b5f6101606100d0565b905061016c8282610126565b919050565b5f67ffffffffffffffff82111561018b5761018a6100f9565b5b610194826100e9565b9050602081019050919050565b8281835e5f83830152505050565b5f6101c16101bc84610171565b610157565b9050828152602081018484840111156101dd576101dc6100e5565b5b6101e88482856101a1565b509392505050565b5f82601f830112610204576102036100e1565b5b81516102148482602086016101af565b91505092915050565b5f8060408385031215610233576102326100d9565b5b5f83015167ffffffffffffffff8111156102505761024f6100dd565b5b61025c858286016101f0565b925050602083015167ffffffffffffffff81111561027d5761027c6100dd565b5b610289858286016101f0565b9150509250929050565b5f81519050919050565b7f4e487b71000000000000000000000000000000000000000000000000000000005f52602260045260245ffd5b5f60028204905060018216806102e157607f821691505b6020821081036102f4576102f361029d565b5b50919050565b5f819050815f5260205f209050919050565b5f6020601f8301049050919050565b5f82821b905092915050565b5f600883026103567fffffffffffffffffffffffffffffffffffffffffffffffffffffffffffffffff8261031b565b610360868361031b565b95508019841693508086168417925050509392505050565b5f819050919050565b5f819050919050565b5f6103a461039f61039a84610378565b610381565b610378565b9050919050565b5f819050919050565b6103bd8361038a565b6103d16103c9826103ab565b848454610327565b825550505050565b5f90565b6103e56103d9565b6103f08184846103b4565b505050565b5b81811015610413576104085f826103dd565b6001810190506103f6565b5050565b601f82111561045857610429816102fa565b6104328461030c565b81016020851015610441578190505b61045561044d8561030c565b8301826103f5565b50505b505050565b5f82821c905092915050565b5f6104785f198460080261045d565b1980831691505092915050565b5f6104908383610469565b9150826002028217905092915050565b6104a982610293565b67ffffffffffffffff8111156104c2576104c16100f9565b5b6104cc82546102ca565b6104d7828285610417565b5f60209050601f831160018114610508575f84156104f6578287015190505b6105008582610485565b865550610567565b601f198416610516866102fa565b5f5b8281101561053d57848901518255600182019150602085019450602081019050610518565b8683101561055a5784890151610556601f891682610469565b8355505b6001600288020188555050505b505050505050565b7f4e487b71000000000000000000000000000000000000000000000000000000005f52602160045260245ffd5b611133806105a95f395ff3fe608060405234801561000f575f80fd5b50600436106100a7575f3560e01c8063909497471161006f578063909497471461012b578063af15408714610149578063c19d93fb1461017a578063d9e95a9814610198578063de975d18146101b4578063f3a8286f146101d2576100a7565b80630289e227146100ab5780634c0a6af0146100b55780636332abc9146100bf578063753ec103146100dd57806387caea78146100fb575b5f80fd5b6100b36101f0565b005b6100bd6102bc565b005b6100c761037f565b6040516100d49190610991565b60405180910390f35b6100e5610385565b6040516100f29190610a1a565b60405180910390f35b61011560048036038101906101109190610a80565b610411565b6040516101229190610aba565b60405180910390f35b61013361066c565b6040516101409190610b12565b60405180910390f35b610163600480360381019061015e9190610b55565b610691565b604051610171929190610b80565b60405180910390f35b610182610743565b60405161018f9190610c21565b60405180910390f35b6101b260048036038101906101ad9190610d66565b610755565b005b6101bc61089c565b6040516101c99190610a1a565b60405180910390f35b6101da610928565b6040516101e79190610991565b60405180910390f35b600180600281111561020557610204610bae565b5b60095f9054906101000a900460ff16600281111561022657610225610bae565b5b1461022f575f80fd5b60045f9054906101000a900473ffffffffffffffffffffffffffffffffffffffff1673ffffffffffffffffffffffffffffffffffffffff163373ffffffffffffffffffffffffffffffffffffffff1614610287575f80fd5b600260095f6101000a81548160ff021916908360028111156102ac576102ab610bae565b5b02179055505f5460018190555050565b5f8060028111156102d0576102cf610bae565b5b60095f9054906101000a900460ff1660028111156102f1576102f0610bae565b5b146102fa575f80fd5b60045f9054906101000a900473ffffffffffffffffffffffffffffffffffffffff1673ffffffffffffffffffffffffffffffffffffffff163373ffffffffffffffffffffffffffffffffffffffff1614610352575f80fd5b600160095f6101000a81548160ff0219169083600281111561037757610376610bae565b5b021790555050565b60025481565b6006805461039290610ded565b80601f01602080910402602001604051908101604052809291908181526020018280546103be90610ded565b80156104095780601f106103e057610100808354040283529160200191610409565b820191905f5260205f20905b8154815290600101906020018083116103ec57829003601f168201915b505050505081565b5f600180600281111561042757610426610bae565b5b60095f9054906101000a900460ff16600281111561044857610447610bae565b5b14610451575f80fd5b5f8060085f3373ffffffffffffffffffffffffffffffffffffffff1673ffffffffffffffffffffffffffffffffffffffff1681526020019081526020015f205f01805461049d90610ded565b9050141580156104fc57505f151560085f3373ffffffffffffffffffffffffffffffffffffffff1673ffffffffffffffffffffffffffffffffffffffff1681526020019081526020015f206001015f9054906101000a900460ff161515145b1561066257600160085f3373ffffffffffffffffffffffffffffffffffffffff1673ffffffffffffffffffffffffffffffffffffffff1681526020019081526020015f206001015f6101000a81548160ff02191690831515021790555061056161092e565b33815f019073ffffffffffffffffffffffffffffffffffffffff16908173ffffffffffffffffffffffffffffffffffffffff16815250508481602001901515908115158152505060011515851515036105cb575f808154809291906105c590610e4a565b91905055505b8060075f60035481526020019081526020015f205f820151815f015f6101000a81548173ffffffffffffffffffffffffffffffffffffffff021916908373ffffffffffffffffffffffffffffffffffffffff1602179055506020820151815f0160146101000a81548160ff02191690831515021790555090505060035f81548092919061065790610e4a565b919050555060019150505b8092505050919050565b60045f9054906101000a900473ffffffffffffffffffffffffffffffffffffffff1681565b6008602052805f5260405f205f91509050805f0180546106b090610ded565b80601f01602080910402602001604051908101604052809291908181526020018280546106dc90610ded565b80156107275780601f106106fe57610100808354040283529160200191610727565b820191905f5260205f20905b81548152906001019060200180831161070a57829003601f168201915b505050505090806001015f9054906101000a900460ff16905082565b60095f9054906101000a900460ff1681565b5f80600281111561076957610768610bae565b5b60095f9054906101000a900460ff16600281111561078a57610789610bae565b5b14610793575f80fd5b60045f9054906101000a900473ffffffffffffffffffffffffffffffffffffffff1673ffffffffffffffffffffffffffffffffffffffff163373ffffffffffffffffffffffffffffffffffffffff16146107eb575f80fd5b6107f361095e565b82815f01819052505f8160200190151590811515815250508060085f8673ffffffffffffffffffffffffffffffffffffffff1673ffffffffffffffffffffffffffffffffffffffff1681526020019081526020015f205f820151815f01908161085c919061102e565b506020820151816001015f6101000a81548160ff02191690831515021790555090505060025f81548092919061089190610e4a565b919050555050505050565b600580546108a990610ded565b80601f01602080910402602001604051908101604052809291908181526020018280546108d590610ded565b80156109205780601f106108f757610100808354040283529160200191610920565b820191905f5260205f20905b81548152906001019060200180831161090357829003601f168201915b505050505081565b60015481565b60405180604001604052805f73ffffffffffffffffffffffffffffffffffffffff1681526020015f151581525090565b6040518060400160405280606081526020015f151581525090565b5f819050919050565b61098b81610979565b82525050565b5f6020820190506109a45f830184610982565b92915050565b5f81519050919050565b5f82825260208201905092915050565b8281835e5f83830152505050565b5f601f19601f8301169050919050565b5f6109ec826109aa565b6109f681856109b4565b9350610a068185602086016109c4565b610a0f816109d2565b840191505092915050565b5f6020820190508181035f830152610a3281846109e2565b905092915050565b5f604051905090565b5f80fd5b5f80fd5b5f8115159050919050565b610a5f81610a4b565b8114610a69575f80fd5b50565b5f81359050610a7a81610a56565b92915050565b5f60208284031215610a9557610a94610a43565b5b5f610aa284828501610a6c565b91505092915050565b610ab481610a4b565b82525050565b5f602082019050610acd5f830184610aab565b92915050565b5f73ffffffffffffffffffffffffffffffffffffffff82169050919050565b5f610afc82610ad3565b9050919050565b610b0c81610af2565b82525050565b5f602082019050610b255f830184610b03565b92915050565b610b3481610af2565b8114610b3e575f80fd5b50565b5f81359050610b4f81610b2b565b92915050565b5f60208284031215610b6a57610b69610a43565b5b5f610b7784828501610b41565b91505092915050565b5f6040820190508181035f830152610b9881856109e2565b9050610ba76020830184610aab565b9392505050565b7f4e487b71000000000000000000000000000000000000000000000000000000005f52602160045260245ffd5b60038110610bec57610beb610bae565b5b50565b5f819050610bfc82610bdb565b919050565b5f610c0b82610bef565b9050919050565b610c1b81610c01565b82525050565b5f602082019050610c345f830184610c12565b92915050565b5f80fd5b5f80fd5b7f4e487b71000000000000000000000000000000000000000000000000000000005f52604160045260245ffd5b610c78826109d2565b810181811067ffffffffffffffff82111715610c9757610c96610c42565b5b80604052505050565b5f610ca9610a3a565b9050610cb58282610c6f565b919050565b5f67ffffffffffffffff821115610cd457610cd3610c42565b5b610cdd826109d2565b9050602081019050919050565b828183375f83830152505050565b5f610d0a610d0584610cba565b610ca0565b905082815260208101848484011115610d2657610d25610c3e565b5b610d31848285610cea565b509392505050565b5f82601f830112610d4d57610d4c610c3a565b5b8135610d5d848260208601610cf8565b91505092915050565b5f8060408385031215610d7c57610d7b610a43565b5b5f610d8985828601610b41565b925050602083013567ffffffffffffffff811115610daa57610da9610a47565b5b610db685828601610d39565b9150509250929050565b7f4e487b71000000000000000000000000000000000000000000000000000000005f52602260045260245ffd5b5f6002820490506001821680610e0457607f821691505b602082108103610e1757610e16610dc0565b5b50919050565b7f4e487b71000000000000000000000000000000000000000000000000000000005f52601160045260245ffd5b5f610e5482610979565b91507fffffffffffffffffffffffffffffffffffffffffffffffffffffffffffffffff8203610e8657610e85610e1d565b5b600182019050919050565b5f819050815f5260205f209050919050565b5f6020601f8301049050919050565b5f82821b905092915050565b5f60088302610eed7fffffffffffffffffffffffffffffffffffffffffffffffffffffffffffffffff82610eb2565b610ef78683610eb2565b95508019841693508086168417925050509392505050565b5f819050919050565b5f610f32610f2d610f2884610979565b610f0f565b610979565b9050919050565b5f819050919050565b610f4b83610f18565b610f5f610f5782610f39565b848454610ebe565b825550505050565b5f90565b610f73610f67565b610f7e818484610f42565b505050565b5b81811015610fa157610f965f82610f6b565b600181019050610f84565b5050565b601f821115610fe657610fb781610e91565b610fc084610ea3565b81016020851015610fcf578190505b610fe3610fdb85610ea3565b830182610f83565b50505b505050565b5f82821c905092915050565b5f6110065f1984600802610feb565b1980831691505092915050565b5f61101e8383610ff7565b9150826002028217905092915050565b611037826109aa565b67ffffffffffffffff8111156110505761104f610c42565b5b61105a8254610ded565b611065828285610fa5565b5f60209050601f831160018114611096575f8415611084578287015190505b61108e8582611013565b8655506110f5565b601f1984166110a486610e91565b5f5b828110156110cb578489015182556001820191506020850194506020810190506110a6565b868310156110e857848901516110e4601f891682610ff7565b8355505b6001600288020188555050505b50505050505056fea264697066735822122040690516f6441d96c55d3fc9b14e3e8f2ce711a9470443a364859d15062cf6ea64736f6c63430008190033",
					"opcodes": "PUSH1 0x80 PUSH1 0x40 MSTORE PUSH0 DUP1 SSTORE PUSH0 PUSH1 0x1 SSTORE PUSH0 PUSH1 0x2 SSTORE PUSH0 PUSH1 0x3 SSTORE CALLVALUE DUP1 ISZERO PUSH2 0x1E JUMPI PUSH0 DUP1 REVERT JUMPDEST POP PUSH1 0x40 MLOAD PUSH2 0x16DC CODESIZE SUB DUP1 PUSH2 0x16DC DUP4 CODECOPY DUP2 DUP2 ADD PUSH1 0x40 MSTORE DUP2 ADD SWAP1 PUSH2 0x40 SWAP2 SWAP1 PUSH2 0x21D JUMP JUMPDEST CALLER PUSH1 0x4 PUSH0 PUSH2 0x100 EXP DUP2 SLOAD DUP2 PUSH20 0xFFFFFFFFFFFFFFFFFFFFFFFFFFFFFFFFFFFFFFFF MUL NOT AND SWAP1 DUP4 PUSH20 0xFFFFFFFFFFFFFFFFFFFFFFFFFFFFFFFFFFFFFFFF AND MUL OR SWAP1 SSTORE POP DUP2 PUSH1 0x5 SWAP1 DUP2 PUSH2 0x8F SWAP2 SWAP1 PUSH2 0x4A0 JUMP JUMPDEST POP DUP1 PUSH1 0x6 SWAP1 DUP2 PUSH2 0x9F SWAP2 SWAP1 PUSH2 0x4A0 JUMP JUMPDEST POP PUSH0 PUSH1 0x9 PUSH0 PUSH2 0x100 EXP DUP2 SLOAD DUP2 PUSH1 0xFF MUL NOT AND SWAP1 DUP4 PUSH1 0x2 DUP2 GT ISZERO PUSH2 0xC4 JUMPI PUSH2 0xC3 PUSH2 0x56F JUMP JUMPDEST JUMPDEST MUL OR SWAP1 SSTORE POP POP POP PUSH2 0x59C JUMP JUMPDEST PUSH0 PUSH1 0x40 MLOAD SWAP1 POP SWAP1 JUMP JUMPDEST PUSH0 DUP1 REVERT JUMPDEST PUSH0 DUP1 REVERT JUMPDEST PUSH0 DUP1 REVERT JUMPDEST PUSH0 DUP1 REVERT JUMPDEST PUSH0 PUSH1 0x1F NOT PUSH1 0x1F DUP4 ADD AND SWAP1 POP SWAP2 SWAP1 POP JUMP JUMPDEST PUSH32 0x4E487B7100000000000000000000000000000000000000000000000000000000 PUSH0 MSTORE PUSH1 0x41 PUSH1 0x4 MSTORE PUSH1 0x24 PUSH0 REVERT JUMPDEST PUSH2 0x12F DUP3 PUSH2 0xE9 JUMP JUMPDEST DUP2 ADD DUP2 DUP2 LT PUSH8 0xFFFFFFFFFFFFFFFF DUP3 GT OR ISZERO PUSH2 0x14E JUMPI PUSH2 0x14D PUSH2 0xF9 JUMP JUMPDEST JUMPDEST DUP1 PUSH1 0x40 MSTORE POP POP POP JUMP JUMPDEST PUSH0 PUSH2 0x160 PUSH2 0xD0 JUMP JUMPDEST SWAP1 POP PUSH2 0x16C DUP3 DUP3 PUSH2 0x126 JUMP JUMPDEST SWAP2 SWAP1 POP JUMP JUMPDEST PUSH0 PUSH8 0xFFFFFFFFFFFFFFFF DUP3 GT ISZERO PUSH2 0x18B JUMPI PUSH2 0x18A PUSH2 0xF9 JUMP JUMPDEST JUMPDEST PUSH2 0x194 DUP3 PUSH2 0xE9 JUMP JUMPDEST SWAP1 POP PUSH1 0x20 DUP2 ADD SWAP1 POP SWAP2 SWAP1 POP JUMP JUMPDEST DUP3 DUP2 DUP4 MCOPY PUSH0 DUP4 DUP4 ADD MSTORE POP POP POP JUMP JUMPDEST PUSH0 PUSH2 0x1C1 PUSH2 0x1BC DUP5 PUSH2 0x171 JUMP JUMPDEST PUSH2 0x157 JUMP JUMPDEST SWAP1 POP DUP3 DUP2 MSTORE PUSH1 0x20 DUP2 ADD DUP5 DUP5 DUP5 ADD GT ISZERO PUSH2 0x1DD JUMPI PUSH2 0x1DC PUSH2 0xE5 JUMP JUMPDEST JUMPDEST PUSH2 0x1E8 DUP5 DUP3 DUP6 PUSH2 0x1A1 JUMP JUMPDEST POP SWAP4 SWAP3 POP POP POP JUMP JUMPDEST PUSH0 DUP3 PUSH1 0x1F DUP4 ADD SLT PUSH2 0x204 JUMPI PUSH2 0x203 PUSH2 0xE1 JUMP JUMPDEST JUMPDEST DUP2 MLOAD PUSH2 0x214 DUP5 DUP3 PUSH1 0x20 DUP7 ADD PUSH2 0x1AF JUMP JUMPDEST SWAP2 POP POP SWAP3 SWAP2 POP POP JUMP JUMPDEST PUSH0 DUP1 PUSH1 0x40 DUP4 DUP6 SUB SLT ISZERO PUSH2 0x233 JUMPI PUSH2 0x232 PUSH2 0xD9 JUMP JUMPDEST JUMPDEST PUSH0 DUP4 ADD MLOAD PUSH8 0xFFFFFFFFFFFFFFFF DUP2 GT ISZERO PUSH2 0x250 JUMPI PUSH2 0x24F PUSH2 0xDD JUMP JUMPDEST JUMPDEST PUSH2 0x25C DUP6 DUP3 DUP7 ADD PUSH2 0x1F0 JUMP JUMPDEST SWAP3 POP POP PUSH1 0x20 DUP4 ADD MLOAD PUSH8 0xFFFFFFFFFFFFFFFF DUP2 GT ISZERO PUSH2 0x27D JUMPI PUSH2 0x27C PUSH2 0xDD JUMP JUMPDEST JUMPDEST PUSH2 0x289 DUP6 DUP3 DUP7 ADD PUSH2 0x1F0 JUMP JUMPDEST SWAP2 POP POP SWAP3 POP SWAP3 SWAP1 POP JUMP JUMPDEST PUSH0 DUP2 MLOAD SWAP1 POP SWAP2 SWAP1 POP JUMP JUMPDEST PUSH32 0x4E487B7100000000000000000000000000000000000000000000000000000000 PUSH0 MSTORE PUSH1 0x22 PUSH1 0x4 MSTORE PUSH1 0x24 PUSH0 REVERT JUMPDEST PUSH0 PUSH1 0x2 DUP3 DIV SWAP1 POP PUSH1 0x1 DUP3 AND DUP1 PUSH2 0x2E1 JUMPI PUSH1 0x7F DUP3 AND SWAP2 POP JUMPDEST PUSH1 0x20 DUP3 LT DUP2 SUB PUSH2 0x2F4 JUMPI PUSH2 0x2F3 PUSH2 0x29D JUMP JUMPDEST JUMPDEST POP SWAP2 SWAP1 POP JUMP JUMPDEST PUSH0 DUP2 SWAP1 POP DUP2 PUSH0 MSTORE PUSH1 0x20 PUSH0 KECCAK256 SWAP1 POP SWAP2 SWAP1 POP JUMP JUMPDEST PUSH0 PUSH1 0x20 PUSH1 0x1F DUP4 ADD DIV SWAP1 POP SWAP2 SWAP1 POP JUMP JUMPDEST PUSH0 DUP3 DUP3 SHL SWAP1 POP SWAP3 SWAP2 POP POP JUMP JUMPDEST PUSH0 PUSH1 0x8 DUP4 MUL PUSH2 0x356 PUSH32 0xFFFFFFFFFFFFFFFFFFFFFFFFFFFFFFFFFFFFFFFFFFFFFFFFFFFFFFFFFFFFFFFF DUP3 PUSH2 0x31B JUMP JUMPDEST PUSH2 0x360 DUP7 DUP4 PUSH2 0x31B JUMP JUMPDEST SWAP6 POP DUP1 NOT DUP5 AND SWAP4 POP DUP1 DUP7 AND DUP5 OR SWAP3 POP POP POP SWAP4 SWAP3 POP POP POP JUMP JUMPDEST PUSH0 DUP2 SWAP1 POP SWAP2 SWAP1 POP JUMP JUMPDEST PUSH0 DUP2 SWAP1 POP SWAP2 SWAP1 POP JUMP JUMPDEST PUSH0 PUSH2 0x3A4 PUSH2 0x39F PUSH2 0x39A DUP5 PUSH2 0x378 JUMP JUMPDEST PUSH2 0x381 JUMP JUMPDEST PUSH2 0x378 JUMP JUMPDEST SWAP1 POP SWAP2 SWAP1 POP JUMP JUMPDEST PUSH0 DUP2 SWAP1 POP SWAP2 SWAP1 POP JUMP JUMPDEST PUSH2 0x3BD DUP4 PUSH2 0x38A JUMP JUMPDEST PUSH2 0x3D1 PUSH2 0x3C9 DUP3 PUSH2 0x3AB JUMP JUMPDEST DUP5 DUP5 SLOAD PUSH2 0x327 JUMP JUMPDEST DUP3 SSTORE POP POP POP POP JUMP JUMPDEST PUSH0 SWAP1 JUMP JUMPDEST PUSH2 0x3E5 PUSH2 0x3D9 JUMP JUMPDEST PUSH2 0x3F0 DUP2 DUP5 DUP5 PUSH2 0x3B4 JUMP JUMPDEST POP POP POP JUMP JUMPDEST JUMPDEST DUP2 DUP2 LT ISZERO PUSH2 0x413 JUMPI PUSH2 0x408 PUSH0 DUP3 PUSH2 0x3DD JUMP JUMPDEST PUSH1 0x1 DUP2 ADD SWAP1 POP PUSH2 0x3F6 JUMP JUMPDEST POP POP JUMP JUMPDEST PUSH1 0x1F DUP3 GT ISZERO PUSH2 0x458 JUMPI PUSH2 0x429 DUP2 PUSH2 0x2FA JUMP JUMPDEST PUSH2 0x432 DUP5 PUSH2 0x30C JUMP JUMPDEST DUP2 ADD PUSH1 0x20 DUP6 LT ISZERO PUSH2 0x441 JUMPI DUP2 SWAP1 POP JUMPDEST PUSH2 0x455 PUSH2 0x44D DUP6 PUSH2 0x30C JUMP JUMPDEST DUP4 ADD DUP3 PUSH2 0x3F5 JUMP JUMPDEST POP POP JUMPDEST POP POP POP JUMP JUMPDEST PUSH0 DUP3 DUP3 SHR SWAP1 POP SWAP3 SWAP2 POP POP JUMP JUMPDEST PUSH0 PUSH2 0x478 PUSH0 NOT DUP5 PUSH1 0x8 MUL PUSH2 0x45D JUMP JUMPDEST NOT DUP1 DUP4 AND SWAP2 POP POP SWAP3 SWAP2 POP POP JUMP JUMPDEST PUSH0 PUSH2 0x490 DUP4 DUP4 PUSH2 0x469 JUMP JUMPDEST SWAP2 POP DUP3 PUSH1 0x2 MUL DUP3 OR SWAP1 POP SWAP3 SWAP2 POP POP JUMP JUMPDEST PUSH2 0x4A9 DUP3 PUSH2 0x293 JUMP JUMPDEST PUSH8 0xFFFFFFFFFFFFFFFF DUP2 GT ISZERO PUSH2 0x4C2 JUMPI PUSH2 0x4C1 PUSH2 0xF9 JUMP JUMPDEST JUMPDEST PUSH2 0x4CC DUP3 SLOAD PUSH2 0x2CA JUMP JUMPDEST PUSH2 0x4D7 DUP3 DUP3 DUP6 PUSH2 0x417 JUMP JUMPDEST PUSH0 PUSH1 0x20 SWAP1 POP PUSH1 0x1F DUP4 GT PUSH1 0x1 DUP2 EQ PUSH2 0x508 JUMPI PUSH0 DUP5 ISZERO PUSH2 0x4F6 JUMPI DUP3 DUP8 ADD MLOAD SWAP1 POP JUMPDEST PUSH2 0x500 DUP6 DUP3 PUSH2 0x485 JUMP JUMPDEST DUP7 SSTORE POP PUSH2 0x567 JUMP JUMPDEST PUSH1 0x1F NOT DUP5 AND PUSH2 0x516 DUP7 PUSH2 0x2FA JUMP JUMPDEST PUSH0 JUMPDEST DUP3 DUP2 LT ISZERO PUSH2 0x53D JUMPI DUP5 DUP10 ADD MLOAD DUP3 SSTORE PUSH1 0x1 DUP3 ADD SWAP2 POP PUSH1 0x20 DUP6 ADD SWAP5 POP PUSH1 0x20 DUP2 ADD SWAP1 POP PUSH2 0x518 JUMP JUMPDEST DUP7 DUP4 LT ISZERO PUSH2 0x55A JUMPI DUP5 DUP10 ADD MLOAD PUSH2 0x556 PUSH1 0x1F DUP10 AND DUP3 PUSH2 0x469 JUMP JUMPDEST DUP4 SSTORE POP JUMPDEST PUSH1 0x1 PUSH1 0x2 DUP9 MUL ADD DUP9 SSTORE POP POP POP JUMPDEST POP POP POP POP POP POP JUMP JUMPDEST PUSH32 0x4E487B7100000000000000000000000000000000000000000000000000000000 PUSH0 MSTORE PUSH1 0x21 PUSH1 0x4 MSTORE PUSH1 0x24 PUSH0 REVERT JUMPDEST PUSH2 0x1133 DUP1 PUSH2 0x5A9 PUSH0 CODECOPY PUSH0 RETURN INVALID PUSH1 0x80 PUSH1 0x40 MSTORE CALLVALUE DUP1 ISZERO PUSH2 0xF JUMPI PUSH0 DUP1 REVERT JUMPDEST POP PUSH1 0x4 CALLDATASIZE LT PUSH2 0xA7 JUMPI PUSH0 CALLDATALOAD PUSH1 0xE0 SHR DUP1 PUSH4 0x90949747 GT PUSH2 0x6F JUMPI DUP1 PUSH4 0x90949747 EQ PUSH2 0x12B JUMPI DUP1 PUSH4 0xAF154087 EQ PUSH2 0x149 JUMPI DUP1 PUSH4 0xC19D93FB EQ PUSH2 0x17A JUMPI DUP1 PUSH4 0xD9E95A98 EQ PUSH2 0x198 JUMPI DUP1 PUSH4 0xDE975D18 EQ PUSH2 0x1B4 JUMPI DUP1 PUSH4 0xF3A8286F EQ PUSH2 0x1D2 JUMPI PUSH2 0xA7 JUMP JUMPDEST DUP1 PUSH4 0x289E227 EQ PUSH2 0xAB JUMPI DUP1 PUSH4 0x4C0A6AF0 EQ PUSH2 0xB5 JUMPI DUP1 PUSH4 0x6332ABC9 EQ PUSH2 0xBF JUMPI DUP1 PUSH4 0x753EC103 EQ PUSH2 0xDD JUMPI DUP1 PUSH4 0x87CAEA78 EQ PUSH2 0xFB JUMPI JUMPDEST PUSH0 DUP1 REVERT JUMPDEST PUSH2 0xB3 PUSH2 0x1F0 JUMP JUMPDEST STOP JUMPDEST PUSH2 0xBD PUSH2 0x2BC JUMP JUMPDEST STOP JUMPDEST PUSH2 0xC7 PUSH2 0x37F JUMP JUMPDEST PUSH1 0x40 MLOAD PUSH2 0xD4 SWAP2 SWAP1 PUSH2 0x991 JUMP JUMPDEST PUSH1 0x40 MLOAD DUP1 SWAP2 SUB SWAP1 RETURN JUMPDEST PUSH2 0xE5 PUSH2 0x385 JUMP JUMPDEST PUSH1 0x40 MLOAD PUSH2 0xF2 SWAP2 SWAP1 PUSH2 0xA1A JUMP JUMPDEST PUSH1 0x40 MLOAD DUP1 SWAP2 SUB SWAP1 RETURN JUMPDEST PUSH2 0x115 PUSH1 0x4 DUP1 CALLDATASIZE SUB DUP2 ADD SWAP1 PUSH2 0x110 SWAP2 SWAP1 PUSH2 0xA80 JUMP JUMPDEST PUSH2 0x411 JUMP JUMPDEST PUSH1 0x40 MLOAD PUSH2 0x122 SWAP2 SWAP1 PUSH2 0xABA JUMP JUMPDEST PUSH1 0x40 MLOAD DUP1 SWAP2 SUB SWAP1 RETURN JUMPDEST PUSH2 0x133 PUSH2 0x66C JUMP JUMPDEST PUSH1 0x40 MLOAD PUSH2 0x140 SWAP2 SWAP1 PUSH2 0xB12 JUMP JUMPDEST PUSH1 0x40 MLOAD DUP1 SWAP2 SUB SWAP1 RETURN JUMPDEST PUSH2 0x163 PUSH1 0x4 DUP1 CALLDATASIZE SUB DUP2 ADD SWAP1 PUSH2 0x15E SWAP2 SWAP1 PUSH2 0xB55 JUMP JUMPDEST PUSH2 0x691 JUMP JUMPDEST PUSH1 0x40 MLOAD PUSH2 0x171 SWAP3 SWAP2 SWAP1 PUSH2 0xB80 JUMP JUMPDEST PUSH1 0x40 MLOAD DUP1 SWAP2 SUB SWAP1 RETURN JUMPDEST PUSH2 0x182 PUSH2 0x743 JUMP JUMPDEST PUSH1 0x40 MLOAD PUSH2 0x18F SWAP2 SWAP1 PUSH2 0xC21 JUMP JUMPDEST PUSH1 0x40 MLOAD DUP1 SWAP2 SUB SWAP1 RETURN JUMPDEST PUSH2 0x1B2 PUSH1 0x4 DUP1 CALLDATASIZE SUB DUP2 ADD SWAP1 PUSH2 0x1AD SWAP2 SWAP1 PUSH2 0xD66 JUMP JUMPDEST PUSH2 0x755 JUMP JUMPDEST STOP JUMPDEST PUSH2 0x1BC PUSH2 0x89C JUMP JUMPDEST PUSH1 0x40 MLOAD PUSH2 0x1C9 SWAP2 SWAP1 PUSH2 0xA1A JUMP JUMPDEST PUSH1 0x40 MLOAD DUP1 SWAP2 SUB SWAP1 RETURN JUMPDEST PUSH2 0x1DA PUSH2 0x928 JUMP JUMPDEST PUSH1 0x40 MLOAD PUSH2 0x1E7 SWAP2 SWAP1 PUSH2 0x991 JUMP JUMPDEST PUSH1 0x40 MLOAD DUP1 SWAP2 SUB SWAP1 RETURN JUMPDEST PUSH1 0x1 DUP1 PUSH1 0x2 DUP2 GT ISZERO PUSH2 0x205 JUMPI PUSH2 0x204 PUSH2 0xBAE JUMP JUMPDEST JUMPDEST PUSH1 0x9 PUSH0 SWAP1 SLOAD SWAP1 PUSH2 0x100 EXP SWAP1 DIV PUSH1 0xFF AND PUSH1 0x2 DUP2 GT ISZERO PUSH2 0x226 JUMPI PUSH2 0x225 PUSH2 0xBAE JUMP JUMPDEST JUMPDEST EQ PUSH2 0x22F JUMPI PUSH0 DUP1 REVERT JUMPDEST PUSH1 0x4 PUSH0 SWAP1 SLOAD SWAP1 PUSH2 0x100 EXP SWAP1 DIV PUSH20 0xFFFFFFFFFFFFFFFFFFFFFFFFFFFFFFFFFFFFFFFF AND PUSH20 0xFFFFFFFFFFFFFFFFFFFFFFFFFFFFFFFFFFFFFFFF AND CALLER PUSH20 0xFFFFFFFFFFFFFFFFFFFFFFFFFFFFFFFFFFFFFFFF AND EQ PUSH2 0x287 JUMPI PUSH0 DUP1 REVERT JUMPDEST PUSH1 0x2 PUSH1 0x9 PUSH0 PUSH2 0x100 EXP DUP2 SLOAD DUP2 PUSH1 0xFF MUL NOT AND SWAP1 DUP4 PUSH1 0x2 DUP2 GT ISZERO PUSH2 0x2AC JUMPI PUSH2 0x2AB PUSH2 0xBAE JUMP JUMPDEST JUMPDEST MUL OR SWAP1 SSTORE POP PUSH0 SLOAD PUSH1 0x1 DUP2 SWAP1 SSTORE POP POP JUMP JUMPDEST PUSH0 DUP1 PUSH1 0x2 DUP2 GT ISZERO PUSH2 0x2D0 JUMPI PUSH2 0x2CF PUSH2 0xBAE JUMP JUMPDEST JUMPDEST PUSH1 0x9 PUSH0 SWAP1 SLOAD SWAP1 PUSH2 0x100 EXP SWAP1 DIV PUSH1 0xFF AND PUSH1 0x2 DUP2 GT ISZERO PUSH2 0x2F1 JUMPI PUSH2 0x2F0 PUSH2 0xBAE JUMP JUMPDEST JUMPDEST EQ PUSH2 0x2FA JUMPI PUSH0 DUP1 REVERT JUMPDEST PUSH1 0x4 PUSH0 SWAP1 SLOAD SWAP1 PUSH2 0x100 EXP SWAP1 DIV PUSH20 0xFFFFFFFFFFFFFFFFFFFFFFFFFFFFFFFFFFFFFFFF AND PUSH20 0xFFFFFFFFFFFFFFFFFFFFFFFFFFFFFFFFFFFFFFFF AND CALLER PUSH20 0xFFFFFFFFFFFFFFFFFFFFFFFFFFFFFFFFFFFFFFFF AND EQ PUSH2 0x352 JUMPI PUSH0 DUP1 REVERT JUMPDEST PUSH1 0x1 PUSH1 0x9 PUSH0 PUSH2 0x100 EXP DUP2 SLOAD DUP2 PUSH1 0xFF MUL NOT AND SWAP1 DUP4 PUSH1 0x2 DUP2 GT ISZERO PUSH2 0x377 JUMPI PUSH2 0x376 PUSH2 0xBAE JUMP JUMPDEST JUMPDEST MUL OR SWAP1 SSTORE POP POP JUMP JUMPDEST PUSH1 0x2 SLOAD DUP2 JUMP JUMPDEST PUSH1 0x6 DUP1 SLOAD PUSH2 0x392 SWAP1 PUSH2 0xDED JUMP JUMPDEST DUP1 PUSH1 0x1F ADD PUSH1 0x20 DUP1 SWAP2 DIV MUL PUSH1 0x20 ADD PUSH1 0x40 MLOAD SWAP1 DUP2 ADD PUSH1 0x40 MSTORE DUP1 SWAP3 SWAP2 SWAP1 DUP2 DUP2 MSTORE PUSH1 0x20 ADD DUP3 DUP1 SLOAD PUSH2 0x3BE SWAP1 PUSH2 0xDED JUMP JUMPDEST DUP1 ISZERO PUSH2 0x409 JUMPI DUP1 PUSH1 0x1F LT PUSH2 0x3E0 JUMPI PUSH2 0x100 DUP1 DUP4 SLOAD DIV MUL DUP4 MSTORE SWAP2 PUSH1 0x20 ADD SWAP2 PUSH2 0x409 JUMP JUMPDEST DUP3 ADD SWAP2 SWAP1 PUSH0 MSTORE PUSH1 0x20 PUSH0 KECCAK256 SWAP1 JUMPDEST DUP2 SLOAD DUP2 MSTORE SWAP1 PUSH1 0x1 ADD SWAP1 PUSH1 0x20 ADD DUP1 DUP4 GT PUSH2 0x3EC JUMPI DUP3 SWAP1 SUB PUSH1 0x1F AND DUP3 ADD SWAP2 JUMPDEST POP POP POP POP POP DUP2 JUMP JUMPDEST PUSH0 PUSH1 0x1 DUP1 PUSH1 0x2 DUP2 GT ISZERO PUSH2 0x427 JUMPI PUSH2 0x426 PUSH2 0xBAE JUMP JUMPDEST JUMPDEST PUSH1 0x9 PUSH0 SWAP1 SLOAD SWAP1 PUSH2 0x100 EXP SWAP1 DIV PUSH1 0xFF AND PUSH1 0x2 DUP2 GT ISZERO PUSH2 0x448 JUMPI PUSH2 0x447 PUSH2 0xBAE JUMP JUMPDEST JUMPDEST EQ PUSH2 0x451 JUMPI PUSH0 DUP1 REVERT JUMPDEST PUSH0 DUP1 PUSH1 0x8 PUSH0 CALLER PUSH20 0xFFFFFFFFFFFFFFFFFFFFFFFFFFFFFFFFFFFFFFFF AND PUSH20 0xFFFFFFFFFFFFFFFFFFFFFFFFFFFFFFFFFFFFFFFF AND DUP2 MSTORE PUSH1 0x20 ADD SWAP1 DUP2 MSTORE PUSH1 0x20 ADD PUSH0 KECCAK256 PUSH0 ADD DUP1 SLOAD PUSH2 0x49D SWAP1 PUSH2 0xDED JUMP JUMPDEST SWAP1 POP EQ ISZERO DUP1 ISZERO PUSH2 0x4FC JUMPI POP PUSH0 ISZERO ISZERO PUSH1 0x8 PUSH0 CALLER PUSH20 0xFFFFFFFFFFFFFFFFFFFFFFFFFFFFFFFFFFFFFFFF AND PUSH20 0xFFFFFFFFFFFFFFFFFFFFFFFFFFFFFFFFFFFFFFFF AND DUP2 MSTORE PUSH1 0x20 ADD SWAP1 DUP2 MSTORE PUSH1 0x20 ADD PUSH0 KECCAK256 PUSH1 0x1 ADD PUSH0 SWAP1 SLOAD SWAP1 PUSH2 0x100 EXP SWAP1 DIV PUSH1 0xFF AND ISZERO ISZERO EQ JUMPDEST ISZERO PUSH2 0x662 JUMPI PUSH1 0x1 PUSH1 0x8 PUSH0 CALLER PUSH20 0xFFFFFFFFFFFFFFFFFFFFFFFFFFFFFFFFFFFFFFFF AND PUSH20 0xFFFFFFFFFFFFFFFFFFFFFFFFFFFFFFFFFFFFFFFF AND DUP2 MSTORE PUSH1 0x20 ADD SWAP1 DUP2 MSTORE PUSH1 0x20 ADD PUSH0 KECCAK256 PUSH1 0x1 ADD PUSH0 PUSH2 0x100 EXP DUP2 SLOAD DUP2 PUSH1 0xFF MUL NOT AND SWAP1 DUP4 ISZERO ISZERO MUL OR SWAP1 SSTORE POP PUSH2 0x561 PUSH2 0x92E JUMP JUMPDEST CALLER DUP2 PUSH0 ADD SWAP1 PUSH20 0xFFFFFFFFFFFFFFFFFFFFFFFFFFFFFFFFFFFFFFFF AND SWAP1 DUP2 PUSH20 0xFFFFFFFFFFFFFFFFFFFFFFFFFFFFFFFFFFFFFFFF AND DUP2 MSTORE POP POP DUP5 DUP2 PUSH1 0x20 ADD SWAP1 ISZERO ISZERO SWAP1 DUP2 ISZERO ISZERO DUP2 MSTORE POP POP PUSH1 0x1 ISZERO ISZERO DUP6 ISZERO ISZERO SUB PUSH2 0x5CB JUMPI PUSH0 DUP1 DUP2 SLOAD DUP1 SWAP3 SWAP2 SWAP1 PUSH2 0x5C5 SWAP1 PUSH2 0xE4A JUMP JUMPDEST SWAP2 SWAP1 POP SSTORE POP JUMPDEST DUP1 PUSH1 0x7 PUSH0 PUSH1 0x3 SLOAD DUP2 MSTORE PUSH1 0x20 ADD SWAP1 DUP2 MSTORE PUSH1 0x20 ADD PUSH0 KECCAK256 PUSH0 DUP3 ADD MLOAD DUP2 PUSH0 ADD PUSH0 PUSH2 0x100 EXP DUP2 SLOAD DUP2 PUSH20 0xFFFFFFFFFFFFFFFFFFFFFFFFFFFFFFFFFFFFFFFF MUL NOT AND SWAP1 DUP4 PUSH20 0xFFFFFFFFFFFFFFFFFFFFFFFFFFFFFFFFFFFFFFFF AND MUL OR SWAP1 SSTORE POP PUSH1 0x20 DUP3 ADD MLOAD DUP2 PUSH0 ADD PUSH1 0x14 PUSH2 0x100 EXP DUP2 SLOAD DUP2 PUSH1 0xFF MUL NOT AND SWAP1 DUP4 ISZERO ISZERO MUL OR SWAP1 SSTORE POP SWAP1 POP POP PUSH1 0x3 PUSH0 DUP2 SLOAD DUP1 SWAP3 SWAP2 SWAP1 PUSH2 0x657 SWAP1 PUSH2 0xE4A JUMP JUMPDEST SWAP2 SWAP1 POP SSTORE POP PUSH1 0x1 SWAP2 POP POP JUMPDEST DUP1 SWAP3 POP POP POP SWAP2 SWAP1 POP JUMP JUMPDEST PUSH1 0x4 PUSH0 SWAP1 SLOAD SWAP1 PUSH2 0x100 EXP SWAP1 DIV PUSH20 0xFFFFFFFFFFFFFFFFFFFFFFFFFFFFFFFFFFFFFFFF AND DUP2 JUMP JUMPDEST PUSH1 0x8 PUSH1 0x20 MSTORE DUP1 PUSH0 MSTORE PUSH1 0x40 PUSH0 KECCAK256 PUSH0 SWAP2 POP SWAP1 POP DUP1 PUSH0 ADD DUP1 SLOAD PUSH2 0x6B0 SWAP1 PUSH2 0xDED JUMP JUMPDEST DUP1 PUSH1 0x1F ADD PUSH1 0x20 DUP1 SWAP2 DIV MUL PUSH1 0x20 ADD PUSH1 0x40 MLOAD SWAP1 DUP2 ADD PUSH1 0x40 MSTORE DUP1 SWAP3 SWAP2 SWAP1 DUP2 DUP2 MSTORE PUSH1 0x20 ADD DUP3 DUP1 SLOAD PUSH2 0x6DC SWAP1 PUSH2 0xDED JUMP JUMPDEST DUP1 ISZERO PUSH2 0x727 JUMPI DUP1 PUSH1 0x1F LT PUSH2 0x6FE JUMPI PUSH2 0x100 DUP1 DUP4 SLOAD DIV MUL DUP4 MSTORE SWAP2 PUSH1 0x20 ADD SWAP2 PUSH2 0x727 JUMP JUMPDEST DUP3 ADD SWAP2 SWAP1 PUSH0 MSTORE PUSH1 0x20 PUSH0 KECCAK256 SWAP1 JUMPDEST DUP2 SLOAD DUP2 MSTORE SWAP1 PUSH1 0x1 ADD SWAP1 PUSH1 0x20 ADD DUP1 DUP4 GT PUSH2 0x70A JUMPI DUP3 SWAP1 SUB PUSH1 0x1F AND DUP3 ADD SWAP2 JUMPDEST POP POP POP POP POP SWAP1 DUP1 PUSH1 0x1 ADD PUSH0 SWAP1 SLOAD SWAP1 PUSH2 0x100 EXP SWAP1 DIV PUSH1 0xFF AND SWAP1 POP DUP3 JUMP JUMPDEST PUSH1 0x9 PUSH0 SWAP1 SLOAD SWAP1 PUSH2 0x100 EXP SWAP1 DIV PUSH1 0xFF AND DUP2 JUMP JUMPDEST PUSH0 DUP1 PUSH1 0x2 DUP2 GT ISZERO PUSH2 0x769 JUMPI PUSH2 0x768 PUSH2 0xBAE JUMP JUMPDEST JUMPDEST PUSH1 0x9 PUSH0 SWAP1 SLOAD SWAP1 PUSH2 0x100 EXP SWAP1 DIV PUSH1 0xFF AND PUSH1 0x2 DUP2 GT ISZERO PUSH2 0x78A JUMPI PUSH2 0x789 PUSH2 0xBAE JUMP JUMPDEST JUMPDEST EQ PUSH2 0x793 JUMPI PUSH0 DUP1 REVERT JUMPDEST PUSH1 0x4 PUSH0 SWAP1 SLOAD SWAP1 PUSH2 0x100 EXP SWAP1 DIV PUSH20 0xFFFFFFFFFFFFFFFFFFFFFFFFFFFFFFFFFFFFFFFF AND PUSH20 0xFFFFFFFFFFFFFFFFFFFFFFFFFFFFFFFFFFFFFFFF AND CALLER PUSH20 0xFFFFFFFFFFFFFFFFFFFFFFFFFFFFFFFFFFFFFFFF AND EQ PUSH2 0x7EB JUMPI PUSH0 DUP1 REVERT JUMPDEST PUSH2 0x7F3 PUSH2 0x95E JUMP JUMPDEST DUP3 DUP2 PUSH0 ADD DUP2 SWAP1 MSTORE POP PUSH0 DUP2 PUSH1 0x20 ADD SWAP1 ISZERO ISZERO SWAP1 DUP2 ISZERO ISZERO DUP2 MSTORE POP POP DUP1 PUSH1 0x8 PUSH0 DUP7 PUSH20 0xFFFFFFFFFFFFFFFFFFFFFFFFFFFFFFFFFFFFFFFF AND PUSH20 0xFFFFFFFFFFFFFFFFFFFFFFFFFFFFFFFFFFFFFFFF AND DUP2 MSTORE PUSH1 0x20 ADD SWAP1 DUP2 MSTORE PUSH1 0x20 ADD PUSH0 KECCAK256 PUSH0 DUP3 ADD MLOAD DUP2 PUSH0 ADD SWAP1 DUP2 PUSH2 0x85C SWAP2 SWAP1 PUSH2 0x102E JUMP JUMPDEST POP PUSH1 0x20 DUP3 ADD MLOAD DUP2 PUSH1 0x1 ADD PUSH0 PUSH2 0x100 EXP DUP2 SLOAD DUP2 PUSH1 0xFF MUL NOT AND SWAP1 DUP4 ISZERO ISZERO MUL OR SWAP1 SSTORE POP SWAP1 POP POP PUSH1 0x2 PUSH0 DUP2 SLOAD DUP1 SWAP3 SWAP2 SWAP1 PUSH2 0x891 SWAP1 PUSH2 0xE4A JUMP JUMPDEST SWAP2 SWAP1 POP SSTORE POP POP POP POP POP JUMP JUMPDEST PUSH1 0x5 DUP1 SLOAD PUSH2 0x8A9 SWAP1 PUSH2 0xDED JUMP JUMPDEST DUP1 PUSH1 0x1F ADD PUSH1 0x20 DUP1 SWAP2 DIV MUL PUSH1 0x20 ADD PUSH1 0x40 MLOAD SWAP1 DUP2 ADD PUSH1 0x40 MSTORE DUP1 SWAP3 SWAP2 SWAP1 DUP2 DUP2 MSTORE PUSH1 0x20 ADD DUP3 DUP1 SLOAD PUSH2 0x8D5 SWAP1 PUSH2 0xDED JUMP JUMPDEST DUP1 ISZERO PUSH2 0x920 JUMPI DUP1 PUSH1 0x1F LT PUSH2 0x8F7 JUMPI PUSH2 0x100 DUP1 DUP4 SLOAD DIV MUL DUP4 MSTORE SWAP2 PUSH1 0x20 ADD SWAP2 PUSH2 0x920 JUMP JUMPDEST DUP3 ADD SWAP2 SWAP1 PUSH0 MSTORE PUSH1 0x20 PUSH0 KECCAK256 SWAP1 JUMPDEST DUP2 SLOAD DUP2 MSTORE SWAP1 PUSH1 0x1 ADD SWAP1 PUSH1 0x20 ADD DUP1 DUP4 GT PUSH2 0x903 JUMPI DUP3 SWAP1 SUB PUSH1 0x1F AND DUP3 ADD SWAP2 JUMPDEST POP POP POP POP POP DUP2 JUMP JUMPDEST PUSH1 0x1 SLOAD DUP2 JUMP JUMPDEST PUSH1 0x40 MLOAD DUP1 PUSH1 0x40 ADD PUSH1 0x40 MSTORE DUP1 PUSH0 PUSH20 0xFFFFFFFFFFFFFFFFFFFFFFFFFFFFFFFFFFFFFFFF AND DUP2 MSTORE PUSH1 0x20 ADD PUSH0 ISZERO ISZERO DUP2 MSTORE POP SWAP1 JUMP JUMPDEST PUSH1 0x40 MLOAD DUP1 PUSH1 0x40 ADD PUSH1 0x40 MSTORE DUP1 PUSH1 0x60 DUP2 MSTORE PUSH1 0x20 ADD PUSH0 ISZERO ISZERO DUP2 MSTORE POP SWAP1 JUMP JUMPDEST PUSH0 DUP2 SWAP1 POP SWAP2 SWAP1 POP JUMP JUMPDEST PUSH2 0x98B DUP2 PUSH2 0x979 JUMP JUMPDEST DUP3 MSTORE POP POP JUMP JUMPDEST PUSH0 PUSH1 0x20 DUP3 ADD SWAP1 POP PUSH2 0x9A4 PUSH0 DUP4 ADD DUP5 PUSH2 0x982 JUMP JUMPDEST SWAP3 SWAP2 POP POP JUMP JUMPDEST PUSH0 DUP2 MLOAD SWAP1 POP SWAP2 SWAP1 POP JUMP JUMPDEST PUSH0 DUP3 DUP3 MSTORE PUSH1 0x20 DUP3 ADD SWAP1 POP SWAP3 SWAP2 POP POP JUMP JUMPDEST DUP3 DUP2 DUP4 MCOPY PUSH0 DUP4 DUP4 ADD MSTORE POP POP POP JUMP JUMPDEST PUSH0 PUSH1 0x1F NOT PUSH1 0x1F DUP4 ADD AND SWAP1 POP SWAP2 SWAP1 POP JUMP JUMPDEST PUSH0 PUSH2 0x9EC DUP3 PUSH2 0x9AA JUMP JUMPDEST PUSH2 0x9F6 DUP2 DUP6 PUSH2 0x9B4 JUMP JUMPDEST SWAP4 POP PUSH2 0xA06 DUP2 DUP6 PUSH1 0x20 DUP7 ADD PUSH2 0x9C4 JUMP JUMPDEST PUSH2 0xA0F DUP2 PUSH2 0x9D2 JUMP JUMPDEST DUP5 ADD SWAP2 POP POP SWAP3 SWAP2 POP POP JUMP JUMPDEST PUSH0 PUSH1 0x20 DUP3 ADD SWAP1 POP DUP2 DUP2 SUB PUSH0 DUP4 ADD MSTORE PUSH2 0xA32 DUP2 DUP5 PUSH2 0x9E2 JUMP JUMPDEST SWAP1 POP SWAP3 SWAP2 POP POP JUMP JUMPDEST PUSH0 PUSH1 0x40 MLOAD SWAP1 POP SWAP1 JUMP JUMPDEST PUSH0 DUP1 REVERT JUMPDEST PUSH0 DUP1 REVERT JUMPDEST PUSH0 DUP2 ISZERO ISZERO SWAP1 POP SWAP2 SWAP1 POP JUMP JUMPDEST PUSH2 0xA5F DUP2 PUSH2 0xA4B JUMP JUMPDEST DUP2 EQ PUSH2 0xA69 JUMPI PUSH0 DUP1 REVERT JUMPDEST POP JUMP JUMPDEST PUSH0 DUP2 CALLDATALOAD SWAP1 POP PUSH2 0xA7A DUP2 PUSH2 0xA56 JUMP JUMPDEST SWAP3 SWAP2 POP POP JUMP JUMPDEST PUSH0 PUSH1 0x20 DUP3 DUP5 SUB SLT ISZERO PUSH2 0xA95 JUMPI PUSH2 0xA94 PUSH2 0xA43 JUMP JUMPDEST JUMPDEST PUSH0 PUSH2 0xAA2 DUP5 DUP3 DUP6 ADD PUSH2 0xA6C JUMP JUMPDEST SWAP2 POP POP SWAP3 SWAP2 POP POP JUMP JUMPDEST PUSH2 0xAB4 DUP2 PUSH2 0xA4B JUMP JUMPDEST DUP3 MSTORE POP POP JUMP JUMPDEST PUSH0 PUSH1 0x20 DUP3 ADD SWAP1 POP PUSH2 0xACD PUSH0 DUP4 ADD DUP5 PUSH2 0xAAB JUMP JUMPDEST SWAP3 SWAP2 POP POP JUMP JUMPDEST PUSH0 PUSH20 0xFFFFFFFFFFFFFFFFFFFFFFFFFFFFFFFFFFFFFFFF DUP3 AND SWAP1 POP SWAP2 SWAP1 POP JUMP JUMPDEST PUSH0 PUSH2 0xAFC DUP3 PUSH2 0xAD3 JUMP JUMPDEST SWAP1 POP SWAP2 SWAP1 POP JUMP JUMPDEST PUSH2 0xB0C DUP2 PUSH2 0xAF2 JUMP JUMPDEST DUP3 MSTORE POP POP JUMP JUMPDEST PUSH0 PUSH1 0x20 DUP3 ADD SWAP1 POP PUSH2 0xB25 PUSH0 DUP4 ADD DUP5 PUSH2 0xB03 JUMP JUMPDEST SWAP3 SWAP2 POP POP JUMP JUMPDEST PUSH2 0xB34 DUP2 PUSH2 0xAF2 JUMP JUMPDEST DUP2 EQ PUSH2 0xB3E JUMPI PUSH0 DUP1 REVERT JUMPDEST POP JUMP JUMPDEST PUSH0 DUP2 CALLDATALOAD SWAP1 POP PUSH2 0xB4F DUP2 PUSH2 0xB2B JUMP JUMPDEST SWAP3 SWAP2 POP POP JUMP JUMPDEST PUSH0 PUSH1 0x20 DUP3 DUP5 SUB SLT ISZERO PUSH2 0xB6A JUMPI PUSH2 0xB69 PUSH2 0xA43 JUMP JUMPDEST JUMPDEST PUSH0 PUSH2 0xB77 DUP5 DUP3 DUP6 ADD PUSH2 0xB41 JUMP JUMPDEST SWAP2 POP POP SWAP3 SWAP2 POP POP JUMP JUMPDEST PUSH0 PUSH1 0x40 DUP3 ADD SWAP1 POP DUP2 DUP2 SUB PUSH0 DUP4 ADD MSTORE PUSH2 0xB98 DUP2 DUP6 PUSH2 0x9E2 JUMP JUMPDEST SWAP1 POP PUSH2 0xBA7 PUSH1 0x20 DUP4 ADD DUP5 PUSH2 0xAAB JUMP JUMPDEST SWAP4 SWAP3 POP POP POP JUMP JUMPDEST PUSH32 0x4E487B7100000000000000000000000000000000000000000000000000000000 PUSH0 MSTORE PUSH1 0x21 PUSH1 0x4 MSTORE PUSH1 0x24 PUSH0 REVERT JUMPDEST PUSH1 0x3 DUP2 LT PUSH2 0xBEC JUMPI PUSH2 0xBEB PUSH2 0xBAE JUMP JUMPDEST JUMPDEST POP JUMP JUMPDEST PUSH0 DUP2 SWAP1 POP PUSH2 0xBFC DUP3 PUSH2 0xBDB JUMP JUMPDEST SWAP2 SWAP1 POP JUMP JUMPDEST PUSH0 PUSH2 0xC0B DUP3 PUSH2 0xBEF JUMP JUMPDEST SWAP1 POP SWAP2 SWAP1 POP JUMP JUMPDEST PUSH2 0xC1B DUP2 PUSH2 0xC01 JUMP JUMPDEST DUP3 MSTORE POP POP JUMP JUMPDEST PUSH0 PUSH1 0x20 DUP3 ADD SWAP1 POP PUSH2 0xC34 PUSH0 DUP4 ADD DUP5 PUSH2 0xC12 JUMP JUMPDEST SWAP3 SWAP2 POP POP JUMP JUMPDEST PUSH0 DUP1 REVERT JUMPDEST PUSH0 DUP1 REVERT JUMPDEST PUSH32 0x4E487B7100000000000000000000000000000000000000000000000000000000 PUSH0 MSTORE PUSH1 0x41 PUSH1 0x4 MSTORE PUSH1 0x24 PUSH0 REVERT JUMPDEST PUSH2 0xC78 DUP3 PUSH2 0x9D2 JUMP JUMPDEST DUP2 ADD DUP2 DUP2 LT PUSH8 0xFFFFFFFFFFFFFFFF DUP3 GT OR ISZERO PUSH2 0xC97 JUMPI PUSH2 0xC96 PUSH2 0xC42 JUMP JUMPDEST JUMPDEST DUP1 PUSH1 0x40 MSTORE POP POP POP JUMP JUMPDEST PUSH0 PUSH2 0xCA9 PUSH2 0xA3A JUMP JUMPDEST SWAP1 POP PUSH2 0xCB5 DUP3 DUP3 PUSH2 0xC6F JUMP JUMPDEST SWAP2 SWAP1 POP JUMP JUMPDEST PUSH0 PUSH8 0xFFFFFFFFFFFFFFFF DUP3 GT ISZERO PUSH2 0xCD4 JUMPI PUSH2 0xCD3 PUSH2 0xC42 JUMP JUMPDEST JUMPDEST PUSH2 0xCDD DUP3 PUSH2 0x9D2 JUMP JUMPDEST SWAP1 POP PUSH1 0x20 DUP2 ADD SWAP1 POP SWAP2 SWAP1 POP JUMP JUMPDEST DUP3 DUP2 DUP4 CALLDATACOPY PUSH0 DUP4 DUP4 ADD MSTORE POP POP POP JUMP JUMPDEST PUSH0 PUSH2 0xD0A PUSH2 0xD05 DUP5 PUSH2 0xCBA JUMP JUMPDEST PUSH2 0xCA0 JUMP JUMPDEST SWAP1 POP DUP3 DUP2 MSTORE PUSH1 0x20 DUP2 ADD DUP5 DUP5 DUP5 ADD GT ISZERO PUSH2 0xD26 JUMPI PUSH2 0xD25 PUSH2 0xC3E JUMP JUMPDEST JUMPDEST PUSH2 0xD31 DUP5 DUP3 DUP6 PUSH2 0xCEA JUMP JUMPDEST POP SWAP4 SWAP3 POP POP POP JUMP JUMPDEST PUSH0 DUP3 PUSH1 0x1F DUP4 ADD SLT PUSH2 0xD4D JUMPI PUSH2 0xD4C PUSH2 0xC3A JUMP JUMPDEST JUMPDEST DUP2 CALLDATALOAD PUSH2 0xD5D DUP5 DUP3 PUSH1 0x20 DUP7 ADD PUSH2 0xCF8 JUMP JUMPDEST SWAP2 POP POP SWAP3 SWAP2 POP POP JUMP JUMPDEST PUSH0 DUP1 PUSH1 0x40 DUP4 DUP6 SUB SLT ISZERO PUSH2 0xD7C JUMPI PUSH2 0xD7B PUSH2 0xA43 JUMP JUMPDEST JUMPDEST PUSH0 PUSH2 0xD89 DUP6 DUP3 DUP7 ADD PUSH2 0xB41 JUMP JUMPDEST SWAP3 POP POP PUSH1 0x20 DUP4 ADD CALLDATALOAD PUSH8 0xFFFFFFFFFFFFFFFF DUP2 GT ISZERO PUSH2 0xDAA JUMPI PUSH2 0xDA9 PUSH2 0xA47 JUMP JUMPDEST JUMPDEST PUSH2 0xDB6 DUP6 DUP3 DUP7 ADD PUSH2 0xD39 JUMP JUMPDEST SWAP2 POP POP SWAP3 POP SWAP3 SWAP1 POP JUMP JUMPDEST PUSH32 0x4E487B7100000000000000000000000000000000000000000000000000000000 PUSH0 MSTORE PUSH1 0x22 PUSH1 0x4 MSTORE PUSH1 0x24 PUSH0 REVERT JUMPDEST PUSH0 PUSH1 0x2 DUP3 DIV SWAP1 POP PUSH1 0x1 DUP3 AND DUP1 PUSH2 0xE04 JUMPI PUSH1 0x7F DUP3 AND SWAP2 POP JUMPDEST PUSH1 0x20 DUP3 LT DUP2 SUB PUSH2 0xE17 JUMPI PUSH2 0xE16 PUSH2 0xDC0 JUMP JUMPDEST JUMPDEST POP SWAP2 SWAP1 POP JUMP JUMPDEST PUSH32 0x4E487B7100000000000000000000000000000000000000000000000000000000 PUSH0 MSTORE PUSH1 0x11 PUSH1 0x4 MSTORE PUSH1 0x24 PUSH0 REVERT JUMPDEST PUSH0 PUSH2 0xE54 DUP3 PUSH2 0x979 JUMP JUMPDEST SWAP2 POP PUSH32 0xFFFFFFFFFFFFFFFFFFFFFFFFFFFFFFFFFFFFFFFFFFFFFFFFFFFFFFFFFFFFFFFF DUP3 SUB PUSH2 0xE86 JUMPI PUSH2 0xE85 PUSH2 0xE1D JUMP JUMPDEST JUMPDEST PUSH1 0x1 DUP3 ADD SWAP1 POP SWAP2 SWAP1 POP JUMP JUMPDEST PUSH0 DUP2 SWAP1 POP DUP2 PUSH0 MSTORE PUSH1 0x20 PUSH0 KECCAK256 SWAP1 POP SWAP2 SWAP1 POP JUMP JUMPDEST PUSH0 PUSH1 0x20 PUSH1 0x1F DUP4 ADD DIV SWAP1 POP SWAP2 SWAP1 POP JUMP JUMPDEST PUSH0 DUP3 DUP3 SHL SWAP1 POP SWAP3 SWAP2 POP POP JUMP JUMPDEST PUSH0 PUSH1 0x8 DUP4 MUL PUSH2 0xEED PUSH32 0xFFFFFFFFFFFFFFFFFFFFFFFFFFFFFFFFFFFFFFFFFFFFFFFFFFFFFFFFFFFFFFFF DUP3 PUSH2 0xEB2 JUMP JUMPDEST PUSH2 0xEF7 DUP7 DUP4 PUSH2 0xEB2 JUMP JUMPDEST SWAP6 POP DUP1 NOT DUP5 AND SWAP4 POP DUP1 DUP7 AND DUP5 OR SWAP3 POP POP POP SWAP4 SWAP3 POP POP POP JUMP JUMPDEST PUSH0 DUP2 SWAP1 POP SWAP2 SWAP1 POP JUMP JUMPDEST PUSH0 PUSH2 0xF32 PUSH2 0xF2D PUSH2 0xF28 DUP5 PUSH2 0x979 JUMP JUMPDEST PUSH2 0xF0F JUMP JUMPDEST PUSH2 0x979 JUMP JUMPDEST SWAP1 POP SWAP2 SWAP1 POP JUMP JUMPDEST PUSH0 DUP2 SWAP1 POP SWAP2 SWAP1 POP JUMP JUMPDEST PUSH2 0xF4B DUP4 PUSH2 0xF18 JUMP JUMPDEST PUSH2 0xF5F PUSH2 0xF57 DUP3 PUSH2 0xF39 JUMP JUMPDEST DUP5 DUP5 SLOAD PUSH2 0xEBE JUMP JUMPDEST DUP3 SSTORE POP POP POP POP JUMP JUMPDEST PUSH0 SWAP1 JUMP JUMPDEST PUSH2 0xF73 PUSH2 0xF67 JUMP JUMPDEST PUSH2 0xF7E DUP2 DUP5 DUP5 PUSH2 0xF42 JUMP JUMPDEST POP POP POP JUMP JUMPDEST JUMPDEST DUP2 DUP2 LT ISZERO PUSH2 0xFA1 JUMPI PUSH2 0xF96 PUSH0 DUP3 PUSH2 0xF6B JUMP JUMPDEST PUSH1 0x1 DUP2 ADD SWAP1 POP PUSH2 0xF84 JUMP JUMPDEST POP POP JUMP JUMPDEST PUSH1 0x1F DUP3 GT ISZERO PUSH2 0xFE6 JUMPI PUSH2 0xFB7 DUP2 PUSH2 0xE91 JUMP JUMPDEST PUSH2 0xFC0 DUP5 PUSH2 0xEA3 JUMP JUMPDEST DUP2 ADD PUSH1 0x20 DUP6 LT ISZERO PUSH2 0xFCF JUMPI DUP2 SWAP1 POP JUMPDEST PUSH2 0xFE3 PUSH2 0xFDB DUP6 PUSH2 0xEA3 JUMP JUMPDEST DUP4 ADD DUP3 PUSH2 0xF83 JUMP JUMPDEST POP POP JUMPDEST POP POP POP JUMP JUMPDEST PUSH0 DUP3 DUP3 SHR SWAP1 POP SWAP3 SWAP2 POP POP JUMP JUMPDEST PUSH0 PUSH2 0x1006 PUSH0 NOT DUP5 PUSH1 0x8 MUL PUSH2 0xFEB JUMP JUMPDEST NOT DUP1 DUP4 AND SWAP2 POP POP SWAP3 SWAP2 POP POP JUMP JUMPDEST PUSH0 PUSH2 0x101E DUP4 DUP4 PUSH2 0xFF7 JUMP JUMPDEST SWAP2 POP DUP3 PUSH1 0x2 MUL DUP3 OR SWAP1 POP SWAP3 SWAP2 POP POP JUMP JUMPDEST PUSH2 0x1037 DUP3 PUSH2 0x9AA JUMP JUMPDEST PUSH8 0xFFFFFFFFFFFFFFFF DUP2 GT ISZERO PUSH2 0x1050 JUMPI PUSH2 0x104F PUSH2 0xC42 JUMP JUMPDEST JUMPDEST PUSH2 0x105A DUP3 SLOAD PUSH2 0xDED JUMP JUMPDEST PUSH2 0x1065 DUP3 DUP3 DUP6 PUSH2 0xFA5 JUMP JUMPDEST PUSH0 PUSH1 0x20 SWAP1 POP PUSH1 0x1F DUP4 GT PUSH1 0x1 DUP2 EQ PUSH2 0x1096 JUMPI PUSH0 DUP5 ISZERO PUSH2 0x1084 JUMPI DUP3 DUP8 ADD MLOAD SWAP1 POP JUMPDEST PUSH2 0x108E DUP6 DUP3 PUSH2 0x1013 JUMP JUMPDEST DUP7 SSTORE POP PUSH2 0x10F5 JUMP JUMPDEST PUSH1 0x1F NOT DUP5 AND PUSH2 0x10A4 DUP7 PUSH2 0xE91 JUMP JUMPDEST PUSH0 JUMPDEST DUP3 DUP2 LT ISZERO PUSH2 0x10CB JUMPI DUP5 DUP10 ADD MLOAD DUP3 SSTORE PUSH1 0x1 DUP3 ADD SWAP2 POP PUSH1 0x20 DUP6 ADD SWAP5 POP PUSH1 0x20 DUP2 ADD SWAP1 POP PUSH2 0x10A6 JUMP JUMPDEST DUP7 DUP4 LT ISZERO PUSH2 0x10E8 JUMPI DUP5 DUP10 ADD MLOAD PUSH2 0x10E4 PUSH1 0x1F DUP10 AND DUP3 PUSH2 0xFF7 JUMP JUMPDEST DUP4 SSTORE POP JUMPDEST PUSH1 0x1 PUSH1 0x2 DUP9 MUL ADD DUP9 SSTORE POP POP POP JUMPDEST POP POP POP POP POP POP JUMP INVALID LOG2 PUSH5 0x6970667358 0x22 SLT KECCAK256 BLOCKHASH PUSH10 0x516F6441D96C55D3FC9 0xB1 0x4E RETURNDATACOPY DUP16 0x2C 0xE7 GT 0xA9 SELFBALANCE DIV NUMBER LOG3 PUSH5 0x859D15062C 0xF6 0xEA PUSH5 0x736F6C6343 STOP ADDMOD NOT STOP CALLER "
				},
				"gasEstimates": {
					"creation": {
						"codeDepositCost": "880600",
						"executionCost": "infinite",
						"totalCost": "infinite"
					},
					"external": {
						"addVoter(address,string)": "infinite",
						"ballotOfficialAddress()": "2508",
						"ballotOfficialName()": "infinite",
						"doVote(bool)": "infinite",
						"endVoate()": "53027",
						"finalResult()": "2535",
						"proposal()": "infinite",
						"startVote()": "28835",
						"state()": "2598",
						"totalVoter()": "2470",
						"voterRegister(address)": "infinite"
					}
				},
				"methodIdentifiers": {
					"addVoter(address,string)": "d9e95a98",
					"ballotOfficialAddress()": "90949747",
					"ballotOfficialName()": "de975d18",
					"doVote(bool)": "87caea78",
					"endVoate()": "0289e227",
					"finalResult()": "f3a8286f",
					"proposal()": "753ec103",
					"startVote()": "4c0a6af0",
					"state()": "c19d93fb",
					"totalVoter()": "6332abc9",
					"voterRegister(address)": "af154087"
				}
			},
			"storageLayout": {
				"storage": [
					{
						"astId": 14,
						"contract": "contracts/5_Voting.sol:Ballot",
						"label": "countResult",
						"offset": 0,
						"slot": "0",
						"type": "t_uint256"
					},
					{
						"astId": 17,
						"contract": "contracts/5_Voting.sol:Ballot",
						"label": "finalResult",
						"offset": 0,
						"slot": "1",
						"type": "t_uint256"
					},
					{
						"astId": 20,
						"contract": "contracts/5_Voting.sol:Ballot",
						"label": "totalVoter",
						"offset": 0,
						"slot": "2",
						"type": "t_uint256"
					},
					{
						"astId": 23,
						"contract": "contracts/5_Voting.sol:Ballot",
						"label": "totalVote",
						"offset": 0,
						"slot": "3",
						"type": "t_uint256"
					},
					{
						"astId": 25,
						"contract": "contracts/5_Voting.sol:Ballot",
						"label": "ballotOfficialAddress",
						"offset": 0,
						"slot": "4",
						"type": "t_address"
					},
					{
						"astId": 27,
						"contract": "contracts/5_Voting.sol:Ballot",
						"label": "ballotOfficialName",
						"offset": 0,
						"slot": "5",
						"type": "t_string_storage"
					},
					{
						"astId": 29,
						"contract": "contracts/5_Voting.sol:Ballot",
						"label": "proposal",
						"offset": 0,
						"slot": "6",
						"type": "t_string_storage"
					},
					{
						"astId": 34,
						"contract": "contracts/5_Voting.sol:Ballot",
						"label": "votes",
						"offset": 0,
						"slot": "7",
						"type": "t_mapping(t_uint256,t_struct(vote)6_storage)"
					},
					{
						"astId": 39,
						"contract": "contracts/5_Voting.sol:Ballot",
						"label": "voterRegister",
						"offset": 0,
						"slot": "8",
						"type": "t_mapping(t_address,t_struct(voter)11_storage)"
					},
					{
						"astId": 46,
						"contract": "contracts/5_Voting.sol:Ballot",
						"label": "state",
						"offset": 0,
						"slot": "9",
						"type": "t_enum(State)43"
					}
				],
				"types": {
					"t_address": {
						"encoding": "inplace",
						"label": "address",
						"numberOfBytes": "20"
					},
					"t_bool": {
						"encoding": "inplace",
						"label": "bool",
						"numberOfBytes": "1"
					},
					"t_enum(State)43": {
						"encoding": "inplace",
						"label": "enum Ballot.State",
						"numberOfBytes": "1"
					},
					"t_mapping(t_address,t_struct(voter)11_storage)": {
						"encoding": "mapping",
						"key": "t_address",
						"label": "mapping(address => struct Ballot.voter)",
						"numberOfBytes": "32",
						"value": "t_struct(voter)11_storage"
					},
					"t_mapping(t_uint256,t_struct(vote)6_storage)": {
						"encoding": "mapping",
						"key": "t_uint256",
						"label": "mapping(uint256 => struct Ballot.vote)",
						"numberOfBytes": "32",
						"value": "t_struct(vote)6_storage"
					},
					"t_string_storage": {
						"encoding": "bytes",
						"label": "string",
						"numberOfBytes": "32"
					},
					"t_struct(vote)6_storage": {
						"encoding": "inplace",
						"label": "struct Ballot.vote",
						"members": [
							{
								"astId": 3,
								"contract": "contracts/5_Voting.sol:Ballot",
								"label": "voterAddress",
								"offset": 0,
								"slot": "0",
								"type": "t_address"
							},
							{
								"astId": 5,
								"contract": "contracts/5_Voting.sol:Ballot",
								"label": "choice",
								"offset": 20,
								"slot": "0",
								"type": "t_bool"
							}
						],
						"numberOfBytes": "32"
					},
					"t_struct(voter)11_storage": {
						"encoding": "inplace",
						"label": "struct Ballot.voter",
						"members": [
							{
								"astId": 8,
								"contract": "contracts/5_Voting.sol:Ballot",
								"label": "voterName",
								"offset": 0,
								"slot": "0",
								"type": "t_string_storage"
							},
							{
								"astId": 10,
								"contract": "contracts/5_Voting.sol:Ballot",
								"label": "voted",
								"offset": 0,
								"slot": "1",
								"type": "t_bool"
							}
						],
						"numberOfBytes": "64"
					},
					"t_uint256": {
						"encoding": "inplace",
						"label": "uint256",
						"numberOfBytes": "32"
					}
				}
			},
			"userdoc": {
				"kind": "user",
				"methods": {},
				"version": 1
			}
		}
	}
}